:020000040000FA
:060000000219FD020301DC
:03000B0002008D63
:0300130002051AC9
:03001B0002009050
:03002B000202B618
:03005B0002052972
:030073000202EE98
:100080000406080C10182030406080A0C0054032E3
:10009000C2AFC2A853E6EFC28E85698BC0D0D2D35F
:1000A000C0E0C0F0C2CAA8CCA9CDD2CAD2AF758A6E
:1000B00000C3E8956AF8E9956BF9C3E913F9E81309
:1000C000F8E5646007C3E913F9E813F8E97025E877
:1000D000956C4020956C501CE582B410177C007B19
:1000E000007A007908900000A868E5647004C3E80D
:1000F00013F801FD900000D2A8D2AA61CCE0FDC3A4
:100100009CC39840EF98EB33FB0582E0FCC39DC392
:100110009840E198EB33FB0582E0FDC39CC3984017
:10012000D398EB33FB0582E0FCC39DC39840C59890
:10013000EB33FB0582E0FDC39CC39840B798EB33DB
:10014000FB0582E0FCC39DC39840A998EB33FB05F7
:1001500082E0FDC39CC398409B98EB33FB0582E093
:10016000FCC39DC398408D98EB33FB0582217890AA
:100170000000D2A8D2AA61CCE0FDC39CC39840EF96
:1001800098EA33FA0582E0FCC39DC39840E198EAFF
:1001900033FA0582E0FDC39CC39840D398EA33FA52
:1001A0000582E0FCC39DC39840C598EA33FA0582F6
:1001B000E0FDC39CC39840B798EA33FA0582E0FC9F
:1001C000C39DC39840A998EA33FA0582E0FDC39C19
:1001D000C398409B98EA33FA0582E0FCC39DC3981C
:1001E000408D98EA33FA0582EBC46B6A54F0F9EA61
:1001F000C454F0C3996009900000D2A8D2AA61CC7F
:10020000EBF4C454F0F9EAF4C4540E49FAEBF4C424
:10021000540FFBC3EA9460FAEB9400FB50067B009A
:100220007A007900303A27C3EA94D0F8EB9407F9C2
:10023000400BE8FAE9FB203509D23541423035025E
:10024000C235203902B235C3EA33FAEB33FBEB2B6C
:100250003B3BF9C3EB13FBEA13FAEA29FAEB340050
:10026000FB30E3047AFF7BFFE5255403601B202A63
:1002700018E55B33F9EB7007C3E99A4002E9FAE548
:100280003CC4332AFAEB3400FBC3EA33C4540FF8FE
:10029000EB33C454F048F87005EA6002780190002E
:1002A00000D2A8D2AAE5226002152281B9900000EE
:1002B000D2A8D2AA61CCC0D0C0E0C2CF0541E564CB
:1002C0006009E563600575630041E9756301E52335
:1002D00060021523C3E552600575530041E9E553FB
:1002E0002401F55350037553FFD0E0D0D032C2AF94
:1002F00053E67F7592FA7593FFC22053917FD2AF78
:1003000032C0E0E58A30340885698BF0A3D0E03252
:10031000D0E0C2AF53E6EFC0D0C0E0C0F0D2D3D23D
:10032000AF5388EFA88AA98CAA40308D010A758A3C
:1003300000758C00754000438810E564700AC3E8BE
:1003400033F8E933F9EA33FA30331FE8C4540FFACB
:10035000E9C454F04AFAC3132AFAC3E833F8E9337C
:10036000F9E82AFAE93406FB61BD30320FC3E833FD
:10037000E933FAE82AFAE93400FB61BD303115E8C7
:1003800075F056A4AAF0E975F056A42AFAC5F0341F
:1003900000FB61BDC3EA13FAE913F9E813F8E87545
:1003A000F056A4AAF0E975F056A42AFAC5F0340074
:1003B000C313FBEA13FAC3EB13FBEA13FAC3EB9480
:1003C000125009C3EA9434EB940750160522E52233
:1003D00070021522C3E52294325002A10D7552001D
:1003E000A110E522600215223036067C007D0861EE
:1003F000FCAC31AD32303A04AC33AD34C3EA9CFAD4
:10040000EB9DFB9208AE5EAF5F303A42500720355D
:1004100009D235811A303502C235303504AE60AFAD
:1004200061203902B235C3EA33FAEB33FBA208503C
:100430000AEAF42401FAEBF43400FBC3EA9450FA1C
:10044000EB9400FB501478007A007B00815AA208DC
:10045000500878007A007B0081B9E5255403601BC1
:10046000202A18E55B33F9EB7007C3E99A4002E9EB
:10047000FAE53CC4332AFAEB3400FBEA8EF0A4F927
:10048000AAF0EB8EF0A42AFAC5F03400FBC3EB13FC
:10049000FDEA13F8C3ED13FDE813F80FEF14600441
:1004A000C3E833F8C3E933EA33FAEB33FBDFEDEBB0
:1004B00030E30678FF7AFF7B078852D230E860038A
:1004C000755300C3E559FC955A4002AC5AC3EC95EC
:1004D000525008EC75F008A4FAABF0EAF4F8EBF42B
:1004E0005407F9C3E8948CFAE99400FB50047A00AD
:1004F0007B00885489558A568B5775230AD0F0D0D3
:10050000E0D0D053F7DF43F74043E6103275230ABB
:10051000D0F0D0E0D0D043E61032C2AAD28EC2CA08
:1005200085CC6A85CD6BD2CA32C2AFC0D0C0E0D212
:10053000D3A8F9E55830E20AE5FA20E23520E132A5
:10054000A14AE5FA30E22B20E128C3E55513F8E58E
:100550005413F5FB88FCC3E55713F8E55613F5E98A
:1005600088EA85555853F7BFD2A8303402D2AA532F
:10057000E6EF53F7DFD0E0D0D0D2AF32790180146C
:1005800079038010790A800C791E800879648004D0
:1005900079C880007817E4D5E0FDD8FAD9F622783A
:1005A000FF20282879A1E76023E548601F74FF85B4
:1005B00048F084853FF030290375F005A4F8C5F0B4
:1005C000600278FFC3E8955B5002A85B885A22C39B
:1005D000E54794A0E5489400E55A500314A1E004CF
:1005E0006002F55A2275E89022055CC3E55C940828
:1005F000405330EDF4A8BDA9BE755C00E9FA79A0BE
:10060000E76041EA7006E55D6018800CC3E8955D1F
:10061000600EE55D5005600A1480070460FA8002F0
:10062000E55DF55DC39567401B7559C0C3940440F3
:1006300013755980C39404400B755940C39404400A
:100640000375590022E5592410500274FFF5592210
:10065000743279A687F0A4C5F0A2F733F8C3E89501
:10066000594002A859885B227547007548F022C29C
:10067000AFC2CAA8CCA9CDAA4130CF010AD2CAD2F2
:10068000AFC3EA13FAE913F9E813F8AB42AC4388B5
:10069000428943C3E89BF8E99C20280A547FF9303B
:1006A0002C02E18DC1E6AD448A44F9EA9D547FFAFB
:1006B000600678FF79FFC1CBAE45AF468B458C46CF
:1006C000A842A943C3E89EF8E99FF9C3E54813FB94
:1006D000E54713FAE82AF547E93BF5485006754720
:1006E000FF7548FFE133AA47AB48AC47AD487E04ED
:1006F0007F02C3EB9404400D1E1FC3EB940840051A
:100700002029021E1FC3ED13FDEC13FCDEF7C3EA24
:100710009CFAEB9DFBEF6009C3E913F9E813F8DFDE
:10072000F7EA28FAEB39FB8A478B4850067BFF8BA8
:10073000478B48C3EB94025002D22C3028047F032D
:10074000E15E7892E6FFC3E53D948240110FC3E578
:100750003D94A040010FC3EF940640027F057E0246
:10076000E548C4540FF9E548C454F0F8E547C454CB
:100770000F28F8C3E89EFAE99400FB4009C3EA9405
:1007800001EB940050047A01E4FB0207D9AA47ABBD
:1007900048EBC4FEEAC4540F4EFCC3EA9CFAEB9447
:1007A00000FBC3E813C313F8EA28FAEB3400FB8A12
:1007B000478B48C3EB94024002C22C7802EBC4FE84
:1007C0007B00EAC4540F4EFAC3EA98FA4005C3947A
:1007D0000150027A017892E6FF302002E1D9854E7D
:1007E00092854F93D22043E680C3E49AF8E49BF9C4
:1007F000C3E833F8E933F9302C0302086EE8FAE96C
:10080000FBD3E913FDE813FC884E894FC3EF940333
:100810006038EF20E00CE82CF8E93DF9ECFAEDFB4C
:100820008013E828F8E939F9C3E82401F8E934002D
:10083000F97AFF7BFFC3EF9403400F8A508B5188F6
:100840004A894B8C4C8D4D0208A3885089518A4AA5
:100850008B4B8C4C8D4D3028127550F07551FF75B7
:100860004CF0754DFF754EF0754FFF0208A3E8FA86
:10087000D3E813FC884EC3EF94036021EF20E00718
:10088000E82CF8ECFA018EE8282401F87AFFC3EF8F
:10089000940340098A50884A8C4C0208A388508AE5
:1008A0004A8C4C30200201A3753A02D22043E680E4
:1008B000E5255403602DA847A948C3E913F9E813B7
:1008C000F8302804E92440F9C2AF53E67F7591005F
:1008D000C3E498F594E499F595759104D22043E624
:1008E00080D2AF22D221754900752000302B0375CC
:1008F00020402102D221754900752040302B03751C
:10090000200078017901202C20E52554036002C2E3
:10091000217914E548C313700104F8C3941440020C
:100920007814302804781B791BC3E833F8C3E93303
:10093000F9202010E549600C302803D53A04D22371
:1009400021B511AB0549E59B5440B52002219F30EC
:10095000280908C3E899400118213120210A08C359
:10096000E899400221022131C22153E67F759100AE
:10097000302C117594007595F0759104D22043E6E2
:1009800080020902E5487EFFC3334009C3334005B6
:10099000C3334001FEC3E49E759400F5952179C3ED
:1009A000E5399401500221023021022102D80221AE
:1009B000B32131C223C2AF53E67F759100855094B5
:1009C000855195759104854A92854B93D22043E6D3
:1009D00080D2AFE525540360072029020539801035
:1009E00030230D202B0A202107158115810215C007
:1009F0002278003021027801E53D75F007A4F9E581
:100A0000F028F5F0E9A2F013A2F113A2F213F53DDC
:100A1000C394785003753D78C3E53D953E400ED2B2
:100A200022C286C290C29275D4FF75D50F302002C3
:100A3000412D854C92854D93D22043E6802220386B
:100A400013C2AFC291D28775D4FF75D503D2AF75EB
:100A50009F426132C2AFC291D29375D43F75D50F18
:100A6000D2AF759F426132203813C2AFC29275D4A3
:100A7000FF75D50CD287D2AF759F526132C2AFC21B
:100A80008675D4FF75D50CD293D2AF759F32613283
:100A9000203813C2AFC287D29375D4FF75D50CD25C
:100AA000AF759F326132C2AFC293D28775D4FF75E2
:100AB000D50CD2AF759F528079203813C2AFC29047
:100AC00075D43F75D50FD293D2AF759F428063C264
:100AD000AFC29075D4FF75D503D287D2AF759F4250
:100AE0008050203813C2AFC293D29175D43F75D5D0
:100AF0000FD2AF759F52803AC2AFC287D29175D4E0
:100B0000FF75D503D2AF759F328027203813C2AF4F
:100B1000C28675D4FF75D503D291D2AF759F32804E
:100B200011C2AFC29275D43F75D50FD291D2AF75B5
:100B30009F52C22222203E687A147BC88019203E30
:100B4000697A107B8C8010203E6A7A0D7BB4800716
:100B5000203E6B7A0B7BC8303F01227902E4C291C0
:100B6000D5E0FDD290D5E0FDC290D5E0FDD291D583
:100B7000E0FDE920E002D28630E002D292E562D5C3
:100B8000E0FDE920E002C28630E002C2927496D510
:100B9000E0FDD9C9EAF8D5E0FDD8FBDBBEC2912261
:100BA0007A507C507B057D1480407A327C287B14FF
:100BB0007D2880367A3C7CB47B047D0A802C7A9632
:100BC0007C327B027D1E80227A647C287B057D0F2F
:100BD00080187888E614D23C7AC87C327B037D3C4E
:100BE00080087AC87C507B057D46303F0122EBF8B7
:100BF000303C15203D091CECB40112B23D800E0CB6
:100C0000ECB43209B23D80051CEC70010CECC0E084
:100C1000E8C0E0EDC0E0303B0FD291D286E562D56E
:100C2000E0FDC286C291800DD291D292E562D5E0FC
:100C3000FDC292C291B23BD0E0FDFED0E0F8D0E020
:100C4000FCF97464D5E0FDDEF9744BD5E0FDD9F90B
:100C5000203BBAD8B8DA0122DA9422C286C290C206
:100C600092C287C291C29375D4FF75D50F22788046
:100C700076FF0876FF0876FF0876FF0876FF08768D
:100C8000FF0876050876FF087601788C76010876ED
:100C9000FF0876FF0876FF0876FF0876FF087603E0
:100CA0000876FF0876FF0876FF08760A0876F008CF
:100CB000765B0876500876030876FF087603087698
:100CC000FF08767D0876FF0876060876010876FF2D
:100CD0000876FF08760108760122FA75F00CA4ABBD
:100CE000F0EAC333F8740133F9E8C333F8E933F9B0
:100CF000E8C32BF8E93400F9E8C333F8E933F92203
:100D00007888E6C39403D23A5002C23AC238E63039
:100D1000E102D238A23892397886E61490008093A6
:100D200078A6F67886E6F53FC394025003753F0235
:100D3000789CE6753EFFB40203753EA0B4030375CC
:100D40003E8278A0E6F8600674282409D8FCF5678E
:100D50007896E691DA88318932789EE691DA88339E
:100D600089347897E691DA88358936915B22303676
:100D7000117A007B007CFF7D007E00B1D48B5F8AFE
:100D80005E22303A227896E6FA7B00789EE6FC7D79
:100D900000C3EA33FAEB33FBC3EC33FCED33FD7EE7
:100DA0000AB1D48B618A607896303A02789EE6FA6E
:100DB0007B007897E6FC7D007E00303A10C3EA3372
:100DC000FAEB33FBC3EC33FCED33FD7E0AB1D48B7D
:100DD0005F8A5E22C3EC9EFCED9400FDC3EC9AFC9E
:100DE000ED9BFDC3EC9423ED940050047C237D0027
:100DF000C3EC94FFED940140047CFF7D017BFF0B6D
:100E00007A000AEA7009C3EC33FCED33FDA1FFEC74
:100E10008AF0A4AEF0ED8AF0A42E947C40E4EAF4CB
:100E200060DD22D236B16E1205881205887A007B09
:100E3000007C10120580E5522AFA74003BFBDCF3BB
:100E40007C04C3EB13FBEA13FADCF7FFEB60027FD1
:100E5000FFC236B16E2278A5E6F954037000E9545A
:100E60000C7000E954307000E954C07000227ADC44
:100E70007B367C02E13E7A327B367C02E13E7A664A
:100E80007B5A7C02E13E7A3A7B1D7C02E13E7A3E4F
:100E90007B047C02E13E7AA47B067C03E13E7A4639
:100EA0007B557C03E13E7ADE7B6E7C02E13E7A84F8
:100EB0007B2B7C03E13E7A847B1D7C02E13E7A58E9
:100EC0007BAC7C02E13E7A587B147C0380707A62B2
:100ED0007B6E7C0280687A2D7B6E7C0280607A5EFD
:100EE0007B967C0280587A417BB67C0180507A46A2
:100EF0007B7D7C0380487A457B9B7C0180407A49DE
:100F00007B8C7C0180387A927B8C7C0180307A4E9D
:100F10007B797C0180287A527B677C0180207AA4CF
:100F20007B677C0180187A577B567C0180107AC4DD
:100F30007B377C0180087A587B377C018000ECC0CD
:100F4000E0D291D286E562D5E0FDC286C291D0E0C2
:100F5000FCF9EBFD7817E4D5E0FDD8FAD9F6741E5C
:100F6000D5E0FDDDF9DAD722120588740220310EB2
:100F70000420320A04203306042034027401C0E045
:100F8000713512058CD0E0D5E0F42230341EE56CCA
:100F9000C3941E400C941E4002801171477147801B
:100FA0000B713E713E12058C7147714712058C71B1
:100FB000507150227565007566007597DE7597ADA6
:100FC0007581C043FF8075EF0675A900915B758040
:100FD0003F75F1C375A4C075803F75D4FF7590004F
:100FE00075F20F75A50F75900075D50F75A6017573
:100FF000E34075E202915BE4F8F6D8FD916ED1030F
:1010000078988662753001C2AF120590120E5612A2
:101010000590120590E562147005D23F0211B4C22A
:101020003F945914604114600C14606A1460030208
:1010300011A5021173120588120F16120588120FDE
:101040001612058C120588120F1612058C120EE668
:10105000120588120F1612058C120F361205901207
:101060000590120ED621B4120590120EA612058C10
:10107000120EA612058C120EA612058C120EAE12BE
:101080000EB6120EA612058C120EAE120EB6120E6F
:10109000A6120EA621B4120590120F2E120584126C
:1010A0000EE6120EE6120584120F0E120584120FC0
:1010B00026120584120F2E120584120EE6120EE679
:1010C000120584120F0E120584120F2612058412C7
:1010D0000F2E120584120EE6120EE6120584120F70
:1010E0000E120584120F26120584120F2E1205848B
:1010F000120EE6120EE6120584120F0E120584126D
:101100000F26120584120F06120584120ECE120548
:1011100084120E86120584120EE6120584120F0642
:10112000120584120ECE120584120E861205841248
:101130000EE6120584120F06120584120ECE120559
:1011400084120E86120584120EE6120584120F0612
:10115000120584120ECE120584120E861205841218
:101160000EE6120584120F26120F26120584120EA7
:10117000BE8041120F16120EFE120EDE120E7E12ED
:101180000EF6120E8E120E9E120EC6120E8E120E3B
:1011900076120EEE120EC6120E76120E76120E7623
:1011A000120E76800F120B35120588120B3E1205B7
:1011B00088120B47120588C2AF7565007566007806
:1011C000FA79FA308007D9FBD8F7021C00120D001B
:1011D000120D6E78988662120C5B75A91375A710B4
:1011E00075C10075A70075640075E40075881175F8
:1011F0008E0475890975C80475910475D84075D930
:101200000875F782759E0375960275DA4275DB42A2
:1012100075A82375E69075B801759B80759D00755E
:10122000D10C75BCB975BB1075E88075B20112059B
:101230007CD2AF753C00C230120590C231C232C2BE
:1012400033C23475220012058CC3E522940A500281
:101250006108D23175220012058CC3E522940A5030
:10126000026108C231D23275220012058CC3E52218
:10127000940A5002610875E480758851758E017575
:1012800089AA758C00758D00C2A9D2ABD2AA7569E6
:1012900080756814756C50C232D23475220A1205FA
:1012A0008C756810C3E522940A405D758E0C7569D3
:1012B00000756828756C2875220A12058C756820DF
:1012C000C3E522940A4041758E0C75695075681605
:1012D000756C1775220A12058C756817C3E5229480
:1012E0000A402575E400758811758E04758909D248
:1012F000A9C2ABC2AAC234D23375220012058CC374
:10130000E522940A400221B7120580203003021121
:10131000B7C2AF120F68D2AF120590203403303A33
:10132000030213CA120580788CE6C394015002614F
:10133000CAE530C39401500261CA7565A57566F1AE
:101340007F02D236120D6E12058CC2AFC236120D5C
:101350006EC3E552947FD2AF407012057CC2AF12CB
:101360000B50D2AFDFDC120E23C3EF7897F61205D5
:1013700090D1F07F0AD236120D6E12058CC2AFC228
:1013800036120D6EC3E552947FD2AF50E612057C43
:10139000C2AF120B35120584120B35D2AFDFD61255
:1013A0000E23EF24037896F6F87997E7C394234049
:1013B00003985006E824237897F6120590D14AF155
:1013C0001F12058C120D6E0211B77565007566004F
:1013D00012058CC3E55294014002611BC2AF120595
:1013E0008C120F8BD2AF120590753000E4F537F5F3
:1013F000380537E537F4703F0538789AE6781914E0
:101400006012783214600D787D14600878FA1460E8
:1014100003753800C3E53898401D120C5B12057C3B
:10142000153875370078998662C2AF120BC8D2AFF3
:101430007898866212058C120584E523700221B724
:10144000C3E552940140AA12058CE52370030211F2
:10145000B7C2AF120C5BE4D2AFE4F55CF524F5251E
:10146000F53D755C0812057C1205E530EDFDA8BD63
:10147000A9BEE97001F8885D1205E9755C08C2AF84
:101480007559FF120650855B59855B5AD2AF75A717
:101490001075C13075A70075A903756401303A074E
:1014A000C238303502D238D228753900120AE21219
:1014B0000B0B12066812066F12066812066F1206F0
:1014C000681208F41209F1120A3E12066F1208E4BB
:1014D000202C0312059F302C031205CF1209F112A4
:1014E0000A6712066F1208F41209F1120A90120626
:1014F0006F1208E41209F1120AB912066F1208F409
:101500001209F1120AE212066F1205E51208E4123E
:1015100009F1120B0B1205E912066F302827855BC3
:101520005979187A0CC3E53999400EC228D2298A14
:101530003B855B59855B5A800CC3E552940140039F
:101540000214C1A1C830291F202B1CE53B147006D2
:10155000C229D22A81C1F53BC3E55294014003025E
:1015600014C1203A028061753C0078FA79A4E760E2
:10157000027803C3E55398504FE523604B303A1788
:10158000203805203507800F303502800A202B07D0
:10159000D22B855B5981F178F0302B05855B59782A
:1015A00020C3E5489850030214C1302B1BC22BC244
:1015B00038303502D238D229753B12855B5981C14A
:1015C000053CE5526002A1CB753C00C2AF120C5B3A
:1015D00075240075250075A91375A71075C10075D0
:1015E000A700756400D2AF12058C120C5B78A4E6DC
:1015F0006006D287D291D293C3E53C940440022185
:10160000B761EC901A0D7820D183E520B4550AA378
:10161000D183E520B4AA0280137565A57566F11221
:101620000C6ED14A756500756600801D901A0378AE
:10163000807B0AD183A308DBFA901A0F788C7B1A7F
:10164000D183A308DBFA901A2922C2AFD1C6D1A355
:10165000901A007410D188A37444D188A37421D146
:1016600088901A0378807B0AD187A308DBFA901A46
:101670000F788C7B1AD187A308DBFAD1D9D1B79028
:101680001A2922E493F622E6438F01538FFDFFC30C
:10169000E583941C400122EF8565B78566B7F0535A
:1016A0008FFE22438F02438F018565B78566B79011
:1016B0001A0DF0538FFC22901A0D7455D188901A90
:1016C0000E74AAD188227A3079D07820901A40D12D
:1016D00083E520F709A3DAF7227A3079D0901A400F
:1016E000E7D18809A3DAF9227C05120590DCFB22F8
:1016F000C2AF120B35120B3E120B47120B501205E4
:1017000084120B35120B3E120B47120B501205843C
:10171000120B35120B3E120B47120B50D2AF22C2E6
:10172000AF120B50120B47120B3E120B35120584F1
:10173000120B50120B47120B3E120B35120584127E
:0E1740000B50120B47120B3E120B35D2AF228C
:1019FD00020FB4104421FFFFFFFFFFFF05FF01FFA2
:101A0D0055AA01FFFFFFFFFF03FFFFFF0AF05B5029
:0D1A1D0003FF03FF7DFF0601FFFF0101FF36
:101A400023435F485F3730232020202020202020A0
:101A500023424C48454C492445464D3842323123B7
:101A600031362E36385F546F6E657320202020206B
:101C0000C2AFC2D37597DE7597AD7581C075A90057
:101C100043FF80752438752503B1DB7529A5752A26
:101C2000F143F10153A4FED28075D4FF75E3407DEA
:101C3000FA780379E67C10752200752300901DE880
:101C40007B06752498752501308002814820800824
:101C5000D8FBD9F9DCF781BA308008D8FBD9F9DC98
:101C6000F781BAB19BE493A3C39A6004DDC381BA40
:101C7000DBDBB18D600281317B08E493FAA3B16EA6
:101C8000DBF87A30B16E752200752300B18DEAFC65
:101C9000EBFDC3ED94FE400EB18D8A278B28ED300D
:101CA000E0048A828B83B18D7AC270D8C3ED94FE32
:101CB000601950CEBD0029EC600F7520007521FF22
:101CC000752900752A000200008100A827A92808AC
:101CD00009D804D90281DDB191EAF281D10D81A642
:101CE000C3ED94035051EDA2E092007AC5C3E582A2
:101CF0009400E583941C508C200010438F02438F86
:101D0000018529B7852AB7F0300027A827A9280818
:101D100009438F01538FFDD804D902A132C3E58353
:101D2000941C4003A3A117E28529B7852AB7F0A325
:101D3000A117538FFC81827AC1BD030CE493A3FAEF
:101D4000B152DCF8B14A81828184AA22AB23B16E00
:101D5000EBFAEA6222752608C3E52313F523E52290
:101D600013F52250066323A0632201D526EAB1DBD6
:101D7000B1DB75260AEAF4200102D280300102C2EA
:101D800080B1DBC3134002C201D526EB22B191EA38
:101D9000FB208002A191308002A196752608AE2416
:101DA000AF25C3EF13FFEE13FEB1DFB1DBC3EA13C0
:101DB0003080024480FA30E703632201C3E5231335
:101DC000F523E52213F52250066323A0632201D5F3
:101DD00026D9E52265236523F52222AE24AF250E00
:101DE0000FDEFEDFFCD20122424C48656C693437BD
:061DF0003164E8B20601B7
:00000001FF
