:020000040000FA
:060000000219FD020301DC
:03000B0002008D63
:0300130002051CC7
:03001B0002009050
:03002B000202B618
:03005B0002052B70
:030073000202EE98
:100080000406080C10182030406080A0C0054032E3
:10009000C2AFC2A853E6EFC28E85698BC0D0D2D35F
:1000A000C0E0C0F0C2CAA8CCA9CDD2CAD2AF758A6E
:1000B00000C3E8956AF8E9956BF9C3E913F9E81309
:1000C000F8E5646007C3E913F9E813F8E97025E877
:1000D000956C4020956C501CE582B410177C007B19
:1000E000007A007908900000A868E5647004C3E80D
:1000F00013F801FD900000D2A8D2AA61CCE0FDC3A4
:100100009CC39840EF98EB33FB0582E0FCC39DC392
:100110009840E198EB33FB0582E0FDC39CC3984017
:10012000D398EB33FB0582E0FCC39DC39840C59890
:10013000EB33FB0582E0FDC39CC39840B798EB33DB
:10014000FB0582E0FCC39DC39840A998EB33FB05F7
:1001500082E0FDC39CC398409B98EB33FB0582E093
:10016000FCC39DC398408D98EB33FB0582217890AA
:100170000000D2A8D2AA61CCE0FDC39CC39840EF96
:1001800098EA33FA0582E0FCC39DC39840E198EAFF
:1001900033FA0582E0FDC39CC39840D398EA33FA52
:1001A0000582E0FCC39DC39840C598EA33FA0582F6
:1001B000E0FDC39CC39840B798EA33FA0582E0FC9F
:1001C000C39DC39840A998EA33FA0582E0FDC39C19
:1001D000C398409B98EA33FA0582E0FCC39DC3981C
:1001E000408D98EA33FA0582EBC46B6A54F0F9EA61
:1001F000C454F0C3996009900000D2A8D2AA61CC7F
:10020000EBF4C454F0F9EAF4C4540E49FAEBF4C424
:10021000540FFBC3EA9460FAEB9400FB50067B009A
:100220007A007900303A27C3EA94D0F8EB9407F9C2
:10023000400BE8FAE9FB203509D23541423035025E
:10024000C235203902B235C3EA33FAEB33FBEB2B6C
:100250003B3BF9C3EB13FBEA13FAEA29FAEB340050
:10026000FB30E3047AFF7BFFE5255403601B202A63
:1002700018E55B33F9EB7007C3E99A4002E9FAE548
:100280003CC4332AFAEB3400FBC3EA33C4540FF8FE
:10029000EB33C454F048F87005EA6002780190002E
:1002A00000D2A8D2AAE5226002152281B9900000EE
:1002B000D2A8D2AA61CCC0D0C0E0C2CF0541E564CB
:1002C0006009E563600575630041E9756301E52335
:1002D00060021523C3E552600575530041E9E553FB
:1002E0002401F55350037553FFD0E0D0D032C2AF94
:1002F00053E67F7592FA7593FFC22053917FD2AF78
:1003000032C0E0E58A30340885698BF0A3D0E03252
:10031000D0E0C2AF53E6EFC0D0C0E0C0F0D2D3D23D
:10032000AF5388EFA88AA98CAA40308D010A758A3C
:1003300000758C00754000438810E564700AC3E8BE
:1003400033F8E933F9EA33FA30331FE8C4540FFACB
:10035000E9C454F04AFAC3132AFAC3E833F8E9337C
:10036000F9E82AFAE93406FB61BD30320FC3E833FD
:10037000E933FAE82AFAE93400FB61BD303115E8C7
:1003800075F056A4AAF0E975F056A42AFAC5F0341F
:1003900000FB61BDC3EA13FAE913F9E813F8E87545
:1003A000F056A4AAF0E975F056A42AFAC5F0340074
:1003B000C313FBEA13FAC3EB13FBEA13FAC3EB9480
:1003C000125009C3EA9434EB940750160522E52233
:1003D00070021522C3E52294325002A10F7552001B
:1003E000A112E522600215223036067C007D0861EC
:1003F000FCAC31AD32303A04AC33AD34C3EA9CFAD4
:10040000EB9DFB9208AE5EAF5F303A42500720355D
:1004100009D235811A303502C235303504AE60AFAD
:1004200061203902B235C3EA33FAEB33FBA208503C
:100430000AEAF42401FAEBF43400FBC3EA9450FA1C
:10044000EB9400FB501478007A007B00815AA208DC
:10045000500878007A007B0081B9E5255403601BC1
:10046000202A18E55B33F9EB7007C3E99A4002E9EB
:10047000FAE53CC4332AFAEB3400FBEA8EF0A4F927
:10048000AAF0EB8EF0A42AFAC5F03400FBC3EB13FC
:10049000FDEA13F8C3ED13FDE813F80FEF14600441
:1004A000C3E833F8C3E933EA33FAEB33FBDFEDEBB0
:1004B00030E30678FF7AFF7B078852D230E860038A
:1004C000755300C3E559FC955A4002AC5AC3EC95EC
:1004D000525008EC75F008A4FAABF0EAF4F8EBF42B
:1004E0005407F98854895575230AE55830E210D02D
:1004F000F0D0E0D0D053F7DF43F74043E61032D0DE
:10050000F0D0E0D0D053D8FE43DA0143E610327584
:10051000230AD0F0D0E0D0D043E61032C2AAD28E67
:10052000C2CA85CC6A85CD6BD2CA32C2AFC0D0C038
:10053000E0D2D38554FB8555FC85555853F7BF53FE
:10054000DAFED2A8303402D2AA53E6EF53F7DF53D3
:10055000D8FED0E0D0D0D2AF3279018014790380B8
:1005600010790A800C791E80087964800479C8802B
:10057000007817E4D5E0FDD8FAD9F62278FF2028D4
:100580002879A1E76023E548601F74FF8548F0845F
:10059000853FF030290375F005A4F8C5F0600278B6
:1005A000FFC3E8955B5002A85B885A22C3E54794D5
:1005B000A0E5489400E55A500314A1BD046002F57B
:1005C0005A2275E89022055CC3E55C9408405330DC
:1005D000EDF4A8BDA9BE755C00E9FA79A0E7604119
:1005E000EA7006E55D6018800CC3E8955D600EE575
:1005F0005D5005600A1480070460FA8002E55DF52D
:100600005DC39567401B7559C0C394044013755969
:1006100080C39404400B755940C39404400375593A
:100620000022E5592410500274FFF55922743279E2
:10063000A687F0A4C5F0A2F733F8C3E895594002A5
:10064000A859885B227547007548F022C2AFC2CA1C
:10065000A8CCA9CDAA4130CF010AD2CAD2AFC3EAF1
:1006600013FAE913F9E813F8AB42AC438842894323
:10067000C3E89BF8E99C20280A547FF9302C02E15A
:100680006AC1C3AD448A44F9EA9D547FFA60067892
:10069000FF79FFC1A8AE45AF468B458C46A842A95D
:1006A00043C3E89EF8E99FF9C3E54813FBE5471308
:1006B000FAE82AF547E93BF54850067547FF7548C3
:1006C000FFE110AA47AB48AC47AD487E047F02C3A8
:1006D000EB9404400D1E1FC3EB9408400520290233
:1006E0001E1FC3ED13FDEC13FCDEF7C3EA9CFAEB0F
:1006F0009DFBEF6009C3E913F9E813F8DFF7EA2877
:10070000FAEB39FB8A478B4850067BFF8B478B48B7
:10071000C3EB94025002D22C3028047F03E13B78D3
:1007200092E6FFC3E53D948240110FC3E53D94A0DE
:1007300040010FC3EF940640027F057E02E548C4E6
:10074000540FF9E548C454F0F8E547C4540F28F8AD
:10075000C3E89EFAE99400FB4009C3EA9401EB94D4
:100760000050047A01E4FB0207B6AA47AB48EBC489
:10077000FEEAC4540F4EFCC3EA9CFAEB9400FBC3A0
:10078000E813C313F8EA28FAEB3400FB8A478B48D6
:10079000C3EB94024002C22C7802EBC4FE7B00EA59
:1007A000C4540F4EFAC3EA98FA4005C394015002AC
:1007B0007A017892E6FF302002E1B6854E92854FAD
:1007C00093D22043E680C3E49AF8E49BF9C3E8336C
:1007D000F8E933F9302C0302084BE8FAE9FBD3E9D6
:1007E00013FDE813FC884E894FC3EF94036038EF84
:1007F00020E00CE82CF8E93DF9ECFAEDFB8013E879
:1008000028F8E939F9C3E82401F8E93400F97AFF56
:100810007BFFC3EF9403400F8A508B51884A894B6A
:100820008C4C8D4D020880885089518A4A8B4B8CA4
:100830004C8D4D3028127550F07551FF754CF07588
:100840004DFF754EF0754FFF020880E8FAD3E813AC
:10085000FC884EC3EF94036021EF20E007E82CF8FA
:10086000ECFA016BE8282401F87AFFC3EF94034007
:10087000098A50884A8C4C02088088508A4A8C4CDD
:100880003020020180753A02D22043E680E52554EB
:1008900003602DA847A948C3E913F9E813F83028E5
:1008A00004E92440F9C2AF53E67F759100C3E49890
:1008B000F594E499F595759104D22043E680D2AF82
:1008C00022D221754900752000302B03752040018C
:1008D000DFD221754900752040302B037520007848
:1008E000017901202C20E52554036002C2217914EE
:1008F000E548C313700104F8C3941440027814301F
:100900002804781B791BC3E833F8C3E933F92020A6
:1009100010E549600C302803D53A04D22321921106
:10092000880549E59B5440B52002217C3028090800
:10093000C3E899400118210E20210A08C3E8994014
:100940000201DF210EC22153E67F759100302C1188
:100950007594007595F0759104D22043E6800208E5
:10096000DFE5487EFFC3334009C3334005C333404E
:1009700001FEC3E49E759400F5952156C3E53994B4
:1009800001500201DF30210201DFD8022190210E47
:10099000C223C2AF53E67F7591008550948551956F
:1009A000759104854A92854B93D22043E680D2AF5D
:1009B000E525540360072029020539801030230DF6
:1009C000202B0A202107158115810215E3227800CA
:1009D0003021027801E53D75F007A4F9E5F028F52E
:1009E000F0E9A2F013A2F113A2F213F53DC394783B
:1009F0005003753D78C3E53D953E400ED222C28737
:100A0000C291C29375D4FF75D50F302002410A857B
:100A10004C92854D93D22043E68022203817C2AFF6
:100A2000C291C286D287D29375D4FF75D50BD2AF4F
:100A3000759F42613FC2AFC291C292D293D2877575
:100A4000D4BF75D50FD2AF759F42613F203817C212
:100A5000AFC293D29175D4FF75D50EC286D287D21C
:100A6000AF759F52613FC2AFC287D29175D4FF75F7
:100A7000D50EC292D293D2AF759F32613F20381704
:100A8000C2AFC287C292D293D29175D4FF75D50EF0
:100A9000D2AF759F32613FC2AFC293C286D287D2B6
:100AA0009175D4FF75D50ED2AF759F52613F203836
:100AB00017C2AFC291D28775D4BF75D50FC292D27B
:100AC00093D2AF759F428077C2AFC291D29375D453
:100AD000FF75D50BC286D287D2AF759F428060204A
:100AE0003817C2AFC293C290D291D28775D4BF7566
:100AF000D50FD2AF759F528046C2AFC287C290D287
:100B000091D29375D4FF75D50BD2AF759F32802FDC
:100B1000203817C2AFC287D29375D4FF75D50BC2E8
:100B200090D291D2AF759F328015C2AFC293D28757
:100B300075D4BF75D50FC290D291D2AF759F52C2F6
:100B40002222203E707A147BC88019203E717A10D0
:100B50007B8C8010203E727A0D7BB48007203E7320
:100B60007A0B7BC8303F01227902E4C291D5E0FDC7
:100B7000D290D291D5E0FDC291D5E0FDC290D29144
:100B8000D5E0FDE920E004D286D28730E004D2929D
:100B9000D293E562D5E0FDE920E002C28730E002B1
:100BA000C2937496D5E0FDD9C1EAF8D5E0FDD8FB33
:100BB000DBB6C291227A507C507B057D1480407A4E
:100BC000327C287B147D2880367A3C7CB47B047D83
:100BD0000A802C7A967C327B027D1E80227A647C8D
:100BE000287B057D0F80187888E614D23C7AC87C73
:100BF000327B037D3C80087AC87C507B057D463083
:100C00003F0122EBF8303C15203D091CECB40112E9
:100C1000B23D800E0CECB43209B23D80051CEC7084
:100C2000010CECC0E0E8C0E0EDC0E0303B13C29046
:100C3000D291D286D287E562D5E0FDC287C291808B
:100C400011C290D291D292D293E562D5E0FDC293C7
:100C5000C291B23BD0E0FDFED0E0F8D0E0FCF974E8
:100C600064D5E0FDDEF9744BD5E0FDD9F9203BB247
:100C7000D8B0DA0122DA8C22C287C291C293C2872D
:100C8000C291C29375D4FF75D50F22788076FF0884
:100C900076FF0876FF0876FF0876FF0876FF08766D
:100CA000050876FF087601788C76010876FF0876CD
:100CB000FF0876FF0876FF0876FF0876030876FFC0
:100CC0000876FF0876FF08760A0876F008765B0853
:100CD00076500876030876FF0876030876FF0876D4
:100CE0007D0876FF0876060876010876FF0876FF0D
:100CF00008760108760122FA75F00CA4ABF0EAC37D
:100D000033F8740133F9E8C333F8E933F9E8C32B56
:100D1000F8E93400F9E8C333F8E933F9227888E6D2
:100D2000C39403D23A5002C23AC238E630E102D24A
:100D300038A23892397886E6149000809378A6F627
:100D40007886E6F53FC394025003753F02789CE62F
:100D5000753EFFB40203753EA0B40303753E82786E
:100D6000A0E6F8600674282409D8FCF5677896E6B2
:100D700091F788318932789EE691F7883389347803
:100D800097E691F7883589369178223036117A00C6
:100D90007B007CFF7D007E00B1F18B5F8A5E22309C
:100DA0003A227896E6FA7B00789EE6FC7D00C3EA5C
:100DB00033FAEB33FBC3EC33FCED33FD7E0AB1F1C8
:100DC0008B618A607896303A02789EE6FA7B0078EA
:100DD00097E6FC7D007E00303A10C3EA33FAEB332D
:100DE000FBC3EC33FCED33FD7E0AB1F18B5F8A5E11
:100DF00022C3EC9EFCED9400FDC3EC9AFCED9BFD40
:100E0000C3EC9423ED940050047C237D00C3EC9448
:100E1000FFED940140047CFF7D017BFF0B7A000A0B
:100E2000EA7009C3EC33FCED33FDC11CEC8AF0A47D
:100E3000AEF0ED8AF0A42E947C40E4EAF460DD226A
:100E4000D236B18B1205651205657A007B007C10E5
:100E500012055DE5522AFA74003BFBDCF37C04C307
:100E6000EB13FBEA13FADCF7FFEB60027FFFC236FD
:100E7000B18B2278A5E6F954037000E9540C700098
:100E8000E954307000E954C07000227ADC7B367C73
:100E900002E15B7A327B367C02E15B7A667B5A7CCC
:100EA00002E15B7A3A7B1D7C02E15B7A3E7B047C4B
:100EB00002E15B7AA47B067C03E15B7A467B557C8E
:100EC00003E15B7ADE7B6E7C02E15B7A847B2B7CC8
:100ED00003E15B7A847B1D7C02E15B7A587BAC7C0E
:100EE00002E15B7A587B147C0380707A627B6E7CB3
:100EF0000280687A2D7B6E7C0280607A5E7B967CB5
:100F00000280587A417BB67C0180507A467B7D7C9A
:100F10000380487A457B9B7C0180407A497B8C7CAE
:100F20000180387A927B8C7C0180307A4E7B797C90
:100F30000180287A527B677C0180207AA47B677CC1
:100F40000180187A577B567C0180107AC47B377CED
:100F50000180087A587B377C018000ECC0E0C290A9
:100F6000D291D286D287E562D5E0FDC287C291D008
:100F7000E0FCF9EBFD7817E4D5E0FDD8FAD9F6747A
:100F80001ED5E0FDDDF9DAD32212056574022031A9
:100F90000E0420320A04203306042034027401C0F7
:100FA000E07142120569D0E0D5E0F42230341EE54C
:100FB0006CC3941E400C941E4002801171547154F5
:100FC000800B714B714B1205697154715412056994
:100FD000715D715D227565007566007597DE7597A8
:100FE000AD7581C043FF8075EF0675A900917875D6
:100FF000803F75F1C375A4C075803F75D4FF7590AF
:101000000075F20F75A50F75900075D50F75A601C7
:1010100075E34075E202120C78E4F8F6D8FD120C84
:101020008BD12C78988662753001C2AF12056D1293
:101030000E7312056D12056DE562147005D23F0244
:1010400011D7C23F945914604114600C14606A14A3
:1010500060030211C8021196120565120F331205C2
:1010600065120F33120569120565120F33120569F7
:10107000120F03120565120F33120569120F531276
:10108000056D12056D120EF321D712056D120EC3F8
:10109000120569120EC3120569120EC312056912F8
:1010A0000ECB120ED3120EC3120569120ECB120E06
:1010B000D3120EC3120EC321D712056D120F4B129D
:1010C0000561120F03120F03120561120F2B120597
:1010D00061120F43120561120F4B120561120F03CB
:1010E000120F03120561120F2B120561120F43122A
:1010F0000561120F4B120561120F03120F03120547
:1011000061120F2B120561120F43120561120F4B72
:10111000120561120F03120F03120561120F2B1239
:101120000561120F43120561120F23120561120EA1
:10113000EB120561120EA3120561120F0312056175
:10114000120F23120561120EEB120561120EA3128B
:101150000561120F03120561120F23120561120EB1
:10116000EB120561120EA3120561120F0312056145
:10117000120F23120561120EEB120561120EA3125B
:101180000561120F03120561120F43120F4312057E
:1011900061120EDB8041120F33120F1B120EFB1275
:1011A0000E9B120F13120EAB120EBB120EE3120E99
:1011B000AB120E93120F0B120EE3120E93120E933C
:1011C000120E93120E93800F120B42120565120B32
:1011D0004B120565120B54120565C2AF756500759B
:1011E000660078FA79FA308007D9FBD8F7021C003C
:1011F000120D1D120D8B78988662120C7875A9134A
:1012000075A71075C10075A70075640075E40075B9
:101210008811758E0475890975C80475910475D88F
:101220004075D90875F783759E0075960275DA4A80
:1012300075DB0075A82375E69075B801759B807500
:101240009D0075D10C75BCB975BB1075E88075B281
:1012500001120559D2AF753C00C23012056DC23182
:10126000C232C233C234752200120569C3E522942A
:101270000A5002612BD231752200120569C3E522A2
:10128000940A5002612BC231D232752200120569D4
:10129000C3E522940A5002612B75E480758851756C
:1012A0008E017589AA758C00758D00C2A9D2ABD24A
:1012B000AA756980756814756C50C232D234752273
:1012C0000A120569756810C3E522940A405D758E9F
:1012D0000C756900756828756C2875220A120569F5
:1012E000756820C3E522940A4041758E0C756950DB
:1012F000756816756C1775220A120569756817C32B
:10130000E522940A402575E400758811758E0475F0
:101310008909D2A9C2ABC2AAC234D2337522001243
:101320000569C3E522940A400221DA12055D2030E6
:10133000030211DAC2AF120F89D2AF12056D203449
:1013400003303A030213ED12055D788CE6C3940175
:10135000500261EDE530C39401500261ED7565A561
:101360007566F17F02D236120D8B120569C2AFC2CB
:1013700036120D8BC3E552947FD2AF4070120559DF
:10138000C2AF120B5DD2AFDFDC120E40C3EF789715
:10139000F612056DF1197F0AD236120D8B1205690E
:1013A000C2AFC236120D8BC3E552947FD2AF50E666
:1013B000120559C2AF120B42120561120B42D2AF95
:1013C000DFD6120E40EF24037896F6F87997E7C33C
:1013D00094234003985006E824237897F612056D6D
:1013E000D173F148120569120D8B0211DA7565008F
:1013F000756600120569C3E55294014002613EC260
:10140000AF120569120FACD2AF12056D753000E452
:10141000F537F5380537E537F4703F0538789AE643
:101420007819146012783214600D787D1460087891
:10143000FA146003753800C3E53898401D120C7823
:10144000120559153875370078998662C2AF120BAC
:10145000DDD2AF78988662120569120561E52370C6
:101460000221DAC3E552940140AA120569E523700E
:10147000030211DAC2AF120C78E4D2AFE4F55CF5E6
:1014800024F525F53D755C081205591205C230EDAD
:10149000FDA8BDA9BEE97001F8885D1205C6755C9E
:1014A00008C2AF7559FF12062D855B59855B5AD26C
:1014B000AF75A71075C13075A70075A903756401D4
:1014C000303A07C238303502D238D2287539001286
:1014D0000ADF120B1012064512064C1206451206C0
:1014E0004C1206451208D11209CE120A1B12064CE4
:1014F0001208C1202C0312057C302C031205AC12FB
:1015000009CE120A4C12064C1208D11209CE120A48
:101510007D12064C1208C11209CE120AAE12064CF8
:101520001208D11209CE120ADF12064C1205C2129D
:1015300008C11209CE120B101205C612064C302833
:1015400027855B5979187A0CC3E53999400EC22872
:10155000D2298A3B855B59855B5A800CC3E552943E
:101560000140030214E4A1EB30291F202B1CE53BB2
:10157000147006C229D22A81E4F53BC3E5529401D6
:1015800040030214E4203A028061753C0078FA7945
:10159000A4E760027803C3E55398504FE523604BFE
:1015A000303A17203805203507800F303502800A81
:1015B000202B07D22B855B59A11478F0302B0585A1
:1015C0005B597820C3E5489850030214E4302B1B84
:1015D000C22BC238303502D238D229753B12855B16
:1015E0005981E4053CE5526002A1EE753C00C2AFB2
:1015F000120C7875240075250075A91375A7107550
:10160000C10075A700756400D2AF120569120C788D
:1016100078A4E6600CC286D287C290D291C292D2E0
:1016200093C3E53C9404400221DA810F901A0D78AF
:1016300020D1ACE520B4550AA3D1ACE520B4AA0270
:1016400080137565A57566F1120C8BD173756500F5
:10165000756600801D901A0378807B0AD1ACA308C0
:10166000DBFA901A0F788C7B1AD1ACA308DBFA90C6
:101670001A2922C2AFD1EFD1CC901A007410D1B187
:10168000A37444D1B1A37421D1B1901A0378807BA3
:101690000AD1B0A308DBFA901A0F788C7B1AD1B06C
:1016A000A308DBFAF102D1E0901A2922E493F62292
:1016B000E6438F01538FFDFFC3E583941C40012255
:1016C000EF8565B78566B7F0538FFE22438F0243DF
:1016D0008F018565B78566B7901A0DF0538FFC2290
:1016E000901A0D7455D1B1901A0E74AAD1B1227A04
:1016F0003079D07820901A40D1ACE520F709A3DAF0
:10170000F7227A3079D0901A40E7D1B109A3DAF9FB
:10171000227C0512056DDCFB22C2AF120B42120BBC
:101720004B120B54120B5D120561120B42120B4B44
:10173000120B54120B5D120561120B42120B4B126D
:101740000B54120B5DD2AF22C2AF120B5D120B54C1
:10175000120B4B120B42120561120B5D120B54124D
:101760000B4B120B42120561120B5D120B54120B44
:071770004B120B42D2AF2225
:1019FD00020FD5104421FFFFFFFFFFFF05FF01FF81
:101A0D0055AA01FFFFFFFFFF03FFFFFF0AF05B5029
:0D1A1D0003FF03FF7DFF0601FFFF0101FF36
:101A400023435F485F3030232020202020202020A7
:101A500023424C48454C492445464D3842323123B7
:101A600031362E36385F546F6E657320202020206B
:101C0000C2AFC2D37597DE7597AD7581C075A90057
:101C100043FF80752438752503B1DB7529A5752A26
:101C2000F143F10153A4FED28075D4FF75E3407DEA
:101C3000FA780379E67C10752200752300901DE880
:101C40007B06752498752501308002814820800824
:101C5000D8FBD9F9DCF781BA308008D8FBD9F9DC98
:101C6000F781BAB19BE493A3C39A6004DDC381BA40
:101C7000DBDBB18D600281317B08E493FAA3B16EA6
:101C8000DBF87A30B16E752200752300B18DEAFC65
:101C9000EBFDC3ED94FE400EB18D8A278B28ED300D
:101CA000E0048A828B83B18D7AC270D8C3ED94FE32
:101CB000601950CEBD0029EC600F7520007521FF22
:101CC000752900752A000200008100A827A92808AC
:101CD00009D804D90281DDB191EAF281D10D81A642
:101CE000C3ED94035051EDA2E092007AC5C3E582A2
:101CF0009400E583941C508C200010438F02438F86
:101D0000018529B7852AB7F0300027A827A9280818
:101D100009438F01538FFDD804D902A132C3E58353
:101D2000941C4003A3A117E28529B7852AB7F0A325
:101D3000A117538FFC81827AC1BD030CE493A3FAEF
:101D4000B152DCF8B14A81828184AA22AB23B16E00
:101D5000EBFAEA6222752608C3E52313F523E52290
:101D600013F52250066323A0632201D526EAB1DBD6
:101D7000B1DB75260AEAF4200102D280300102C2EA
:101D800080B1DBC3134002C201D526EB22B191EA38
:101D9000FB208002A191308002A196752608AE2416
:101DA000AF25C3EF13FFEE13FEB1DFB1DBC3EA13C0
:101DB0003080024480FA30E703632201C3E5231335
:101DC000F523E52213F52250066323A0632201D5F3
:101DD00026D9E52265236523F52222AE24AF250E00
:101DE0000FDEFEDFFCD20122424C48656C693437BD
:061DF0003164E8B20601B7
:00000001FF
