:020000040000FA
:060000000219FD020301DC
:03000B0002008D63
:0300130002051AC9
:03001B0002009050
:03002B000202B618
:03005B0002052972
:030073000202EE98
:100080000406080C10182030406080A0C0054032E3
:10009000C2AFC2A853E6EFC28E85698BC0D0D2D35F
:1000A000C0E0C0F0C2CAA8CCA9CDD2CAD2AF758A6E
:1000B00000C3E8956AF8E9956BF9C3E913F9E81309
:1000C000F8E5646007C3E913F9E813F8E97025E877
:1000D000956C4020956C501CE582B410177C007B19
:1000E000007A007908900000A868E5647004C3E80D
:1000F00013F801FD900000D2A8D2AA61CCE0FDC3A4
:100100009CC39840EF98EB33FB0582E0FCC39DC392
:100110009840E198EB33FB0582E0FDC39CC3984017
:10012000D398EB33FB0582E0FCC39DC39840C59890
:10013000EB33FB0582E0FDC39CC39840B798EB33DB
:10014000FB0582E0FCC39DC39840A998EB33FB05F7
:1001500082E0FDC39CC398409B98EB33FB0582E093
:10016000FCC39DC398408D98EB33FB0582217890AA
:100170000000D2A8D2AA61CCE0FDC39CC39840EF96
:1001800098EA33FA0582E0FCC39DC39840E198EAFF
:1001900033FA0582E0FDC39CC39840D398EA33FA52
:1001A0000582E0FCC39DC39840C598EA33FA0582F6
:1001B000E0FDC39CC39840B798EA33FA0582E0FC9F
:1001C000C39DC39840A998EA33FA0582E0FDC39C19
:1001D000C398409B98EA33FA0582E0FCC39DC3981C
:1001E000408D98EA33FA0582EBC46B6A54F0F9EA61
:1001F000C454F0C3996009900000D2A8D2AA61CC7F
:10020000EBF4C454F0F9EAF4C4540E49FAEBF4C424
:10021000540FFBC3EA9460FAEB9400FB50067B009A
:100220007A007900303A27C3EA94D0F8EB9407F9C2
:10023000400BE8FAE9FB203509D23541423035025E
:10024000C235203902B235C3EA33FAEB33FBEB2B6C
:100250003B3BF9C3EB13FBEA13FAEA29FAEB340050
:10026000FB30E3047AFF7BFFE5255403601B202A63
:1002700018E55B33F9EB7007C3E99A4002E9FAE548
:100280003CC4332AFAEB3400FBC3EA33C4540FF8FE
:10029000EB33C454F048F87005EA6002780190002E
:1002A00000D2A8D2AAE5226002152281B9900000EE
:1002B000D2A8D2AA61CCC0D0C0E0C2CF0541E564CB
:1002C0006009E563600575630041E9756301E52335
:1002D00060021523C3E552600575530041E9E553FB
:1002E0002401F55350037553FFD0E0D0D032C2AF94
:1002F00053E67F7592FA7593FFC22053917FD2AF78
:1003000032C0E0E58A30340885698BF0A3D0E03252
:10031000D0E0C2AF53E6EFC0D0C0E0C0F0D2D3D23D
:10032000AF5388EFA88AA98CAA40308D010A758A3C
:1003300000758C00754000438810E564700AC3E8BE
:1003400033F8E933F9EA33FA30331FE8C4540FFACB
:10035000E9C454F04AFAC3132AFAC3E833F8E9337C
:10036000F9E82AFAE93406FB61BD30320FC3E833FD
:10037000E933FAE82AFAE93400FB61BD303115E8C7
:1003800075F056A4AAF0E975F056A42AFAC5F0341F
:1003900000FB61BDC3EA13FAE913F9E813F8E87545
:1003A000F056A4AAF0E975F056A42AFAC5F0340074
:1003B000C313FBEA13FAC3EB13FBEA13FAC3EB9480
:1003C000125009C3EA9434EB940750160522E52233
:1003D00070021522C3E52294325002A10D7552001D
:1003E000A110E522600215223036067C007D0861EE
:1003F000FCAC31AD32303A04AC33AD34C3EA9CFAD4
:10040000EB9DFB9208AE5EAF5F303A42500720355D
:1004100009D235811A303502C235303504AE60AFAD
:1004200061203902B235C3EA33FAEB33FBA208503C
:100430000AEAF42401FAEBF43400FBC3EA9450FA1C
:10044000EB9400FB501478007A007B00815AA208DC
:10045000500878007A007B0081B9E5255403601BC1
:10046000202A18E55B33F9EB7007C3E99A4002E9EB
:10047000FAE53CC4332AFAEB3400FBEA8EF0A4F927
:10048000AAF0EB8EF0A42AFAC5F03400FBC3EB13FC
:10049000FDEA13F8C3ED13FDE813F80FEF14600441
:1004A000C3E833F8C3E933EA33FAEB33FBDFEDEBB0
:1004B00030E30678FF7AFF7B078852D230E860038A
:1004C000755300C3E559FC955A4002AC5AC3EC95EC
:1004D000525008EC75F008A4FAABF0EAF4F8EBF42B
:1004E0005407F9C3E8940AFAE99400FB50047A002F
:1004F0007B00885489558A568B5775230AD0F0D0D3
:10050000E0D0D053F7DF43F74043E6103275230ABB
:10051000D0F0D0E0D0D043E61032C2AAD28EC2CA08
:1005200085CC6A85CD6BD2CA32C2AFC0D0C0E0D212
:10053000D3A8F9E55830E20AE5FA20E23520E132A5
:10054000A14AE5FA30E22B20E128C3E55513F8E58E
:100550005413F5FB88FCC3E55713F8E55613F5E98A
:1005600088EA85555853F7BFD2A8303402D2AA532F
:10057000E6EF53F7DFD0E0D0D0D2AF32790180146C
:1005800079038010790A800C791E800879648004D0
:1005900079C880007817E4D5E0FDD8FAD9F622783A
:1005A000FF20282879A1E76023E548601F74FF85B4
:1005B00048F084853FF030290375F005A4F8C5F0B4
:1005C000600278FFC3E8955B5002A85B885A22C39B
:1005D000E54794A0E5489400E55A500314A1E004CF
:1005E0006002F55A2275E89022055CC3E55C940828
:1005F000405330EDF4A8BDA9BE755C00E9FA79A0BE
:10060000E76041EA7006E55D6018800CC3E8955D1F
:10061000600EE55D5005600A1480070460FA8002F0
:10062000E55DF55DC39567401B7559C0C3940440F3
:1006300013755980C39404400B755940C39404400A
:100640000375590022E5592410500274FFF5592210
:10065000743279A687F0A4C5F0A2F733F8C3E89501
:10066000594002A859885B227547007548F022C29C
:10067000AFC2CAA8CCA9CDAA4130CF010AD2CAD2F2
:10068000AFC3EA13FAE913F9E813F8AB42AC4388B5
:10069000428943C3E89BF8E99C20280A547FF9303B
:1006A0002C02E18DC1E6AD448A44F9EA9D547FFAFB
:1006B000600678FF79FFC1CBAE45AF468B458C46CF
:1006C000A842A943C3E89EF8E99FF9C3E54813FB94
:1006D000E54713FAE82AF547E93BF5485006754720
:1006E000FF7548FFE133AA47AB48AC47AD487E04ED
:1006F0007F02C3EB9404400D1E1FC3EB940840051A
:100700002029021E1FC3ED13FDEC13FCDEF7C3EA24
:100710009CFAEB9DFBEF6009C3E913F9E813F8DFDE
:10072000F7EA28FAEB39FB8A478B4850067BFF8BA8
:10073000478B48C3EB94025002D22C3028047F032D
:10074000E15E7892E6FFC3E53D948240110FC3E578
:100750003D94A040010FC3EF940640027F057E0246
:10076000E548C4540FF9E548C454F0F8E547C454CB
:100770000F28F8C3E89EFAE99400FB4009C3EA9405
:1007800001EB940050047A01E4FB0207D9AA47ABBD
:1007900048EBC4FEEAC4540F4EFCC3EA9CFAEB9447
:1007A00000FBC3E813C313F8EA28FAEB3400FB8A12
:1007B000478B48C3EB94024002C22C7802EBC4FE84
:1007C0007B00EAC4540F4EFAC3EA98FA4005C3947A
:1007D0000150027A017892E6FF302002E1D9854E7D
:1007E00092854F93D22043E680C3E49AF8E49BF9C4
:1007F000C3E833F8E933F9302C0302086EE8FAE96C
:10080000FBD3E913FDE813FC884E894FC3EF940333
:100810006038EF20E00CE82CF8E93DF9ECFAEDFB4C
:100820008013E828F8E939F9C3E82401F8E934002D
:10083000F97AFF7BFFC3EF9403400F8A508B5188F6
:100840004A894B8C4C8D4D0208A3885089518A4AA5
:100850008B4B8C4C8D4D3028127550F07551FF75B7
:100860004CF0754DFF754EF0754FFF0208A3E8FA86
:10087000D3E813FC884EC3EF94036021EF20E00718
:10088000E82CF8ECFA018EE8282401F87AFFC3EF8F
:10089000940340098A50884A8C4C0208A388508AE5
:1008A0004A8C4C30200201A3753A02D22043E680E4
:1008B000E5255403602DA847A948C3E913F9E813B7
:1008C000F8302804E92440F9C2AF53E67F7591005F
:1008D000C3E498F594E499F595759104D22043E624
:1008E00080D2AF22D221754900752000302B0375CC
:1008F00020402102D221754900752040302B03751C
:10090000200078017901202C20E52554036002C2E3
:10091000217914E548C313700104F8C3941440020C
:100920007814302804781B791BC3E833F8C3E93303
:10093000F9202010E549600C302803D53A04D22371
:1009400021B511AB0549E59B5440B52002219F30EC
:10095000280908C3E899400118213120210A08C359
:10096000E899400221022131C22153E67F759100AE
:10097000302C117594007595F0759104D22043E6E2
:1009800080020902E5487EFFC3334009C3334005B6
:10099000C3334001FEC3E49E759400F5952179C3ED
:1009A000E5399401500221023021022102D80221AE
:1009B000B32131C223C2AF53E67F759100855094B5
:1009C000855195759104854A92854B93D22043E6D3
:1009D00080D2AFE525540360072029020539801035
:1009E00030230D202B0A202107158115810215C502
:1009F0002278003021027801E53D75F007A4F9E581
:100A0000F028F5F0E9A2F013A2F113A2F213F53DDC
:100A1000C394785003753D78C3E53D953E400BD2B5
:100A200022C290C292C29475D57F302002412A859D
:100A30004C92854D93D22043E68022203810C2AFDD
:100A4000C293D29175D54FD2AF759F20610BC2AFC3
:100A5000C293D29575D57CD2AF759F20610B20389B
:100A600010C2AFC29475D573D291D2AF759F306169
:100A70000BC2AFC29075D573D295D2AF759F10617E
:100A80000B203810C2AFC291D29575D573D2AF7515
:100A90009F108077C2AFC295D29175D573D2AF75D2
:100AA0009F308067203810C2AFC29275D57CD29536
:100AB000D2AF759F208054C2AFC29275D54FD291EC
:100AC000D2AF759F208044203810C2AFC295D29318
:100AD00075D57CD2AF759F308031C2AFC291D293B1
:100AE00075D54FD2AF759F108021203810C2AFC28C
:100AF0009075D54FD293D2AF759F10800EC2AFC202
:100B00009475D57CD293D2AF759F30C22222203EFD
:100B1000687A147BC88019203E697A107B8C80101B
:100B2000203E6A7A0D7BB48007203E6B7A0B7BC82F
:100B3000303F01227902E4C293D5E0FDD292D5E0A4
:100B4000FDC292D5E0FDD293D5E0FDE920E002D2CE
:100B50009030E002D294E562D5E0FDE920E002C2E7
:100B60009030E002C2947496D5E0FDD9C9EAF8D578
:100B7000E0FDD8FBDBBEC293227A507C507B057D22
:100B80001480407A327C287B147D2880367A3C7C25
:100B9000B47B047D0A802C7A967C327B027D1E8099
:100BA000227A647C287B057D0F80187888E614D231
:100BB0003C7AC87C327B037D3C80087AC87C507BC1
:100BC000057D46303F0122EBF8303C15203D091CE5
:100BD000ECB40112B23D800E0CECB43209B23D808F
:100BE000051CEC70010CECC0E0E8C0E0EDC0E030AA
:100BF0003B0FD293D290E562D5E0FDC290C29380C4
:100C00000DD293D294E562D5E0FDC294C293B23B7B
:100C1000D0E0FDFED0E0F8D0E0FCF97464D5E0FD52
:100C2000DEF9744BD5E0FDD9F9203BBAD8B8DA012A
:100C300022DA9422C290C292C294C291C293C29507
:100C400075D57F22788076FF0876FF0876FF0876D4
:100C5000FF0876FF0876FF0876050876FF0876011C
:100C6000788C76010876FF0876FF0876FF0876FF15
:100C70000876FF0876030876FF0876FF0876FF08F7
:100C8000760A0876F008765B0876500876030876D0
:100C9000FF0876030876FF08767D0876FF0876065B
:100CA0000876010876FF0876FF08760108760122AB
:100CB000FA75F00CA4ABF0EAC333F8740133F9E829
:100CC000C333F8E933F9E8C32BF8E93400F9E8C392
:100CD00033F8E933F9227888E6C39403D23A500214
:100CE000C23AC238E630E102D238A2389239788668
:100CF000E6149000809378A6F67886E6F53FC394D4
:100D0000025003753F02789CE6753EFFB4020375FE
:100D10003EA0B40303753E8278A0E6F8600674280E
:100D20002409D8FCF5677896E691B0883189327845
:100D30009EE691B0883389347897E691B0883589FA
:100D4000369134223036117A007B007CFF7D007EA4
:100D500000B1AA8B5F8A5E22303A227896E6FA7B4F
:100D600000789EE6FC7D00C3EA33FAEB33FBC3EC6C
:100D700033FCED33FD7E0AB1AA8B618A6078963030
:100D80003A02789EE6FA7B007897E6FC7D007E00CA
:100D9000303A10C3EA33FAEB33FBC3EC33FCED33E8
:100DA000FD7E0AB1AA8B5F8A5E22C3EC9EFCED94A5
:100DB00000FDC3EC9AFCED9BFDC3EC9423ED940085
:100DC00050047C237D00C3EC94FFED940140047C2F
:100DD000FF7D017BFF0B7A000AEA7009C3EC33FC4C
:100DE000ED33FDA1D5EC8AF0A4AEF0ED8AF0A42E8F
:100DF000947C40E4EAF460DD22D236B144120588E6
:100E00001205887A007B007C10120580E5522AFAD0
:100E100074003BFBDCF37C04C3EB13FBEA13FADC4A
:100E2000F7FFEB60027FFFC236B1442278A5E6F9F6
:100E30005403D2867002C286E9540CD2877002C273
:100E400087E95430D2967002C296E954C0700022ED
:100E50007ADC7B367C02E1207A327B367C02E12030
:100E60007A667B5A7C02E1207A3A7B1D7C02E12083
:100E70007A3E7B047C02E1207AA47B067C03E1209D
:100E80007A467B557C03E1207ADE7B6E7C02E12092
:100E90007A847B2B7C03E1207A847B1D7C02E12019
:100EA0007A587BAC7C02E1207A587B147C038070FA
:100EB0007A627B6E7C0280687A2D7B6E7C02806019
:100EC0007A5E7B967C0280587A417BB67C018050AA
:100ED0007A467B7D7C0380487A457B9B7C01804001
:100EE0007A497B8C7C0180387A927B8C7C018030C3
:100EF0007A4E7B797C0180287A527B677C01802046
:100F00007AA47B677C0180187A577B567C0180101D
:100F10007AC47B377C0180087A587B377C0180005B
:100F2000ECC0E0D293D290E562D5E0FDC290C293CE
:100F3000D0E0FCF9EBFD7817E4D5E0FDD8FAD9F65E
:100F4000741ED5E0FDDDF9DAD722C286120588D2FB
:100F500087740220310E0420320A04203306042054
:100F600034027401C0E0710E12058CD0E0D5E0F4BB
:100F70002230341EE56CC3941E400C941E40028047
:100F80001171207120800B7117711712058C71205F
:100F9000712012058C712971292275650075660012
:100FA0007597DE7597AD7581C043FF8075EF067547
:100FB000A900913475803F75F1F075A4C075803F2C
:100FC00075D4FF75900075F27F75A57F75900075DB
:100FD000D57F75A60175E34075E202C290C292C248
:100FE0009412058CD291D293D29512057CC291C2F3
:100FF00093C2959134E4F8F6D8FD9144121608781E
:10100000988662753001C2AF120590120E2C12053F
:1010100090120590E562147005D23F0211B5D28698
:10102000C23F945914604114600C14606A14600348
:101030000211A6021174120588120EF81205881208
:101040000EF812058C120588120EF812058C120E7D
:10105000C8120588120EF812058C120F181205908E
:10106000120590120EB821B5120590120E881205C5
:101070008C120E8812058C120E8812058C120E909E
:10108000120E98120E8812058C120E90120E9812E3
:101090000E88120E8821B5120590120F10120584C9
:1010A000120EC8120EC8120584120EF01205841218
:1010B0000F08120584120F10120584120EC8120EAA
:1010C000C8120584120EF0120584120F081205844E
:1010D000120F10120584120EC8120EC812058412C7
:1010E0000EF0120584120F08120584120F1012055B
:1010F00084120EC8120EC8120584120EF012058456
:10110000120F08120584120EE8120584120EB01296
:101110000584120E68120584120EC8120584120E80
:10112000E8120584120EB0120584120E68120584AE
:10113000120EC8120584120EE8120584120EB012A7
:101140000584120E68120584120EC8120584120E50
:10115000E8120584120EB0120584120E681205847E
:10116000120EC8120584120F08120F0812058412FD
:101170000EA08041120EF8120EE0120EC0120E6088
:10118000120ED8120E70120E80120EA8120E7012CD
:101190000E58120ED0120EA8120E58120E58120E21
:1011A00058120E58800F120B0E120588120B1712D0
:1011B0000588120B20120588C2AF756500756600A0
:1011C00078FA79FA308507D9FBD8F7021C00120C9F
:1011D000D6120D4478988662120C3475A91375A73F
:1011E0001075C10075A70075640075E40575881158
:1011F000758E0475890975C80475910475D8407594
:10120000D90875F782759E0375960275DA4275DB0B
:101210004275A82375E69075B801759B80759D0091
:1012200075D10C75BCB975BB1075E88075B201122B
:10123000057CD2AF753C00C230120590C231C2327B
:10124000C233C23475220012058CC3E522940A50C1
:10125000026109D23175220012058CC3E522940A7D
:1012600050026109C231D23275220012058CC3E5E9
:1012700022940A5002610975E4D5758851758E0172
:101280007589AA758C00758D00C2A9D2ABD2AA75DA
:101290006980756814756C50C232D23475220A1296
:1012A000058C756810C3E522940A405D758E0C7537
:1012B0006900756828756C2875220A12058C756896
:1012C00020C3E522940A4041758E0C7569507568FB
:1012D00016756C1775220A12058C756817C3E522FE
:1012E000940A402575E405758811758E0475890981
:1012F000D2A9C2ABC2AAC234D23375220012058C65
:10130000C3E522940A400221B8120580203003026E
:1013100011B8C2AF120F4AD2AF1205902034033079
:101320003A030213CB120580788CE6C39401500275
:1013300061CBE530C39401500261CB7565A575663C
:10134000F17F02D236120D4412058CC2AFC23612A2
:101350000D44C3E552947FD2AF407012057CC2AFFA
:10136000120B29D2AFDFDC120DF9C3EF7897F6121A
:101370000590D1F57F0AD236120D4412058CC2AF0A
:10138000C236120D44C3E552947FD2AF50E6120527
:101390007CC2AF120B0E120584120B0ED2AFDFD639
:1013A000120DF9EF24037896F6F87997E7C39423A2
:1013B0004003985006E824237897F6120590D14F01
:1013C000F12412058C120D440211B8756500756682
:1013D0000012058CC3E55294014002611CC2AFC2E9
:1013E0008712058C120F71D296D2AF12059075300C
:1013F00000E4F537F5380537E537F4703F05387800
:101400009AE67819146012783214600D787D1460B1
:101410000878FA146003753800C3E53898401D1247
:101420000C3412057C153875370078998662C2AF86
:10143000120BA1D2AF7898866212058C120584E552
:1014400023700221B8C3E552940140AA12058CE52D
:101450002370030211B8C2AF120C34E4D2AFE4F52A
:101460005CF524F525F53D755C0812057C1205E553
:1014700030EDFDA8BDA9BEE97001F8885D1205E94F
:10148000755C08C2AF7559FF120650855B59855BC4
:101490005AD2AF75A71075C13075A70075A903752D
:1014A0006401303A07C238303502D238D228753953
:1014B00000120AC7120AEA12066812066F120668BC
:1014C00012066F1206681208F41209F1120A3B1292
:1014D000066F1208E4202C0312059F302C0312051E
:1014E000CF1209F1120A5E12066F1208F41209F106
:1014F000120A8112066F1208E41209F1120AA412EC
:10150000066F1208F41209F1120AC712066F1205CB
:10151000E51208E41209F1120AEA1205E912066F4F
:10152000302827855B5979187A0CC3E53999400E24
:10153000C228D2298A3B855B59855B5A800CC3E55A
:1015400052940140030214C6A1CD30291F202B1C48
:10155000E53B147006C229D22A81C6F53BC3E55289
:10156000940140030214C6203A028061753C007861
:10157000FA79A4E760027803C3E55398504FE52356
:10158000604B303A17203805203507800F30350280
:10159000800A202B07D22B855B5981F678F0302BFF
:1015A00005855B597820C3E5489850030214C6307E
:1015B0002B1BC22BC238303502D238D229753B12D0
:1015C000855B5981C6053CE5526002A1D0753C009F
:1015D000C2AF120C3475240075250075A91375A7C8
:1015E0001075C10075A700756400D2AF12058C128A
:1015F0000C3478A4E66006D291D293D295C3E53C30
:101600009404400221B861F1901A0D7820D188E548
:1016100020B4550AA3D188E520B4AA0280137565C9
:10162000A57566F1120C44D14F7565007566008092
:101630001D901A0378807B0AD188A308DBFA901AE0
:101640000F788C7B1AD188A308DBFA901A2922C262
:10165000AFD1CBD1A8901A007410D18DA37444D10E
:101660008DA37421D18D901A0378807B0AD18CA32D
:1016700008DBFA901A0F788C7B1AD18CA308DBFA5E
:10168000D1DED1BC901A2922E493F622E6438F01E1
:10169000538FFDFFC3E583941C400122EF8565B79E
:1016A0008566B7F0538FFE22438F02438F01856515
:1016B000B78566B7901A0DF0538FFC22901A0D74FF
:1016C00055D18D901A0E74AAD18D227A3079D078A6
:1016D00020901A40D188E520F709A3DAF7227A3062
:1016E00079D0901A40E7D18D09A3DAF9227C05124E
:1016F0000590DCFB22C2AF120B0E120B17120B204F
:10170000120B29120584120B0E120B17120B20124A
:101710000B29120584120B0E120B17120B20120B41
:1017200029D2AF22C2AF120B29120B20120B1712B3
:101730000B0E120584120B29120B20120B17120B21
:101740000E120584120B29120B20120B17120B0E0E
:03175000D2AF22F3
:1019FD00020F9A104421FFFFFFFFFFFF05FF01FFBC
:101A0D0055AA01FFFFFFFFFF03FFFFFF0AF05B5029
:0D1A1D0003FF03FF7DFF0601FFFF0101FF36
:101A400023455F485F3035232020202020202020A0
:101A500023424C48454C492445464D3842323123B7
:101A600031362E36385F546F6E657320202020206B
:101C0000C2AFC2D37597DE7597AD7581C075A90057
:101C100043FF80752438752503B1DB7529A5752A26
:101C2000F143F12053A4DFD28575D4FF75E3407DE5
:101C3000FA780379E67C10752200752300901DE880
:101C40007B0675249875250130850281482085081A
:101C5000D8FBD9F9DCF781BA308508D8FBD9F9DC93
:101C6000F781BAB19BE493A3C39A6004DDC381BA40
:101C7000DBDBB18D600281317B08E493FAA3B16EA6
:101C8000DBF87A30B16E752200752300B18DEAFC65
:101C9000EBFDC3ED94FE400EB18D8A278B28ED300D
:101CA000E0048A828B83B18D7AC270D8C3ED94FE32
:101CB000601950CEBD0029EC600F7520007521FF22
:101CC000752900752A000200008100A827A92808AC
:101CD00009D804D90281DDB191EAF281D10D81A642
:101CE000C3ED94035051EDA2E092007AC5C3E582A2
:101CF0009400E583941C508C200010438F02438F86
:101D0000018529B7852AB7F0300027A827A9280818
:101D100009438F01538FFDD804D902A132C3E58353
:101D2000941C4003A3A117E28529B7852AB7F0A325
:101D3000A117538FFC81827AC1BD030CE493A3FAEF
:101D4000B152DCF8B14A81828184AA22AB23B16E00
:101D5000EBFAEA6222752608C3E52313F523E52290
:101D600013F52250066323A0632201D526EAB1DBD6
:101D7000B1DB75260AEAF4200102D285300102C2E5
:101D800085B1DBC3134002C201D526EB22B191EA33
:101D9000FB208502A191308502A196752608AE240C
:101DA000AF25C3EF13FFEE13FEB1DFB1DBC3EA13C0
:101DB0003085024480FA30E703632201C3E5231330
:101DC000F523E52213F52250066323A0632201D5F3
:101DD00026D9E52265236523F52222AE24AF250E00
:101DE0000FDEFEDFFCD20122424C48656C693437BD
:061DF0003164E8B20601B7
:00000001FF
