:020000040000FA
:060000000219FD020301DC
:03000B0002008D63
:0300130002051AC9
:03001B0002009050
:03002B000202B618
:03005B0002052972
:030073000202EE98
:100080000406080C10182030406080A0C0054032E3
:10009000C2AFC2A853E6EFC28E85698BC0D0D2D35F
:1000A000C0E0C0F0C2CAA8CCA9CDD2CAD2AF758A6E
:1000B00000C3E8956AF8E9956BF9C3E913F9E81309
:1000C000F8E5646007C3E913F9E813F8E97025E877
:1000D000956C4020956C501CE582B410177C007B19
:1000E000007A007908900000A868E5647004C3E80D
:1000F00013F801FD900000D2A8D2AA61CCE0FDC3A4
:100100009CC39840EF98EB33FB0582E0FCC39DC392
:100110009840E198EB33FB0582E0FDC39CC3984017
:10012000D398EB33FB0582E0FCC39DC39840C59890
:10013000EB33FB0582E0FDC39CC39840B798EB33DB
:10014000FB0582E0FCC39DC39840A998EB33FB05F7
:1001500082E0FDC39CC398409B98EB33FB0582E093
:10016000FCC39DC398408D98EB33FB0582217890AA
:100170000000D2A8D2AA61CCE0FDC39CC39840EF96
:1001800098EA33FA0582E0FCC39DC39840E198EAFF
:1001900033FA0582E0FDC39CC39840D398EA33FA52
:1001A0000582E0FCC39DC39840C598EA33FA0582F6
:1001B000E0FDC39CC39840B798EA33FA0582E0FC9F
:1001C000C39DC39840A998EA33FA0582E0FDC39C19
:1001D000C398409B98EA33FA0582E0FCC39DC3981C
:1001E000408D98EA33FA0582EBC46B6A54F0F9EA61
:1001F000C454F0C3996009900000D2A8D2AA61CC7F
:10020000EBF4C454F0F9EAF4C4540E49FAEBF4C424
:10021000540FFBC3EA9460FAEB9400FB50067B009A
:100220007A007900303A27C3EA94D0F8EB9407F9C2
:10023000400BE8FAE9FB203509D23541423035025E
:10024000C235203902B235C3EA33FAEB33FBEB2B6C
:100250003B3BF9C3EB13FBEA13FAEA29FAEB340050
:10026000FB30E3047AFF7BFFE5255403601B202A63
:1002700018E55B33F9EB7007C3E99A4002E9FAE548
:100280003CC4332AFAEB3400FBC3EA33C4540FF8FE
:10029000EB33C454F048F87005EA6002780190002E
:1002A00000D2A8D2AAE5226002152281B9900000EE
:1002B000D2A8D2AA61CCC0D0C0E0C2CF0541E564CB
:1002C0006009E563600575630041E9756301E52335
:1002D00060021523C3E552600575530041E9E553FB
:1002E0002401F55350037553FFD0E0D0D032C2AF94
:1002F00053E67F7592FA7593FFC22053917FD2AF78
:1003000032C0E0E58A30340885698BF0A3D0E03252
:10031000D0E0C2AF53E6EFC0D0C0E0C0F0D2D3D23D
:10032000AF5388EFA88AA98CAA40308D010A758A3C
:1003300000758C00754000438810E564700AC3E8BE
:1003400033F8E933F9EA33FA30331FE8C4540FFACB
:10035000E9C454F04AFAC3132AFAC3E833F8E9337C
:10036000F9E82AFAE93406FB61BD30320FC3E833FD
:10037000E933FAE82AFAE93400FB61BD303115E8C7
:1003800075F056A4AAF0E975F056A42AFAC5F0341F
:1003900000FB61BDC3EA13FAE913F9E813F8E87545
:1003A000F056A4AAF0E975F056A42AFAC5F0340074
:1003B000C313FBEA13FAC3EB13FBEA13FAC3EB9480
:1003C000125009C3EA9434EB940750160522E52233
:1003D00070021522C3E52294325002A10D7552001D
:1003E000A110E522600215223036067C007D0861EE
:1003F000FCAC31AD32303A04AC33AD34C3EA9CFAD4
:10040000EB9DFB9208AE5EAF5F303A42500720355D
:1004100009D235811A303502C235303504AE60AFAD
:1004200061203902B235C3EA33FAEB33FBA208503C
:100430000AEAF42401FAEBF43400FBC3EA9450FA1C
:10044000EB9400FB501478007A007B00815AA208DC
:10045000500878007A007B0081B9E5255403601BC1
:10046000202A18E55B33F9EB7007C3E99A4002E9EB
:10047000FAE53CC4332AFAEB3400FBEA8EF0A4F927
:10048000AAF0EB8EF0A42AFAC5F03400FBC3EB13FC
:10049000FDEA13F8C3ED13FDE813F80FEF14600441
:1004A000C3E833F8C3E933EA33FAEB33FBDFEDEBB0
:1004B00030E30678FF7AFF7B078852D230E860038A
:1004C000755300C3E559FC955A4002AC5AC3EC95EC
:1004D000525008EC75F008A4FAABF0EAF4F8EBF42B
:1004E0005407F9C3E89414FAE99400FB50047A0025
:1004F0007B00885489558A568B5775230AD0F0D0D3
:10050000E0D0D053F7DF43F74043E6103275230ABB
:10051000D0F0D0E0D0D043E61032C2AAD28EC2CA08
:1005200085CC6A85CD6BD2CA32C2AFC0D0C0E0D212
:10053000D3A8F9E55830E20AE5FA20E23520E132A5
:10054000A14AE5FA30E22B20E128C3E55513F8E58E
:100550005413F5FB88FCC3E55713F8E55613F5E98A
:1005600088EA85555853F7BFD2A8303402D2AA532F
:10057000E6EF53F7DFD0E0D0D0D2AF32790180146C
:1005800079038010790A800C791E800879648004D0
:1005900079C880007817E4D5E0FDD8FAD9F622783A
:1005A000FF20282879A1E76023E548601F74FF85B4
:1005B00048F084853FF030290375F005A4F8C5F0B4
:1005C000600278FFC3E8955B5002A85B885A22C39B
:1005D000E54794A0E5489400E55A500314A1E004CF
:1005E0006002F55A2275E89022055CC3E55C940828
:1005F000405330EDF4A8BDA9BE755C00E9FA79A0BE
:10060000E76041EA7006E55D6018800CC3E8955D1F
:10061000600EE55D5005600A1480070460FA8002F0
:10062000E55DF55DC39567401B7559C0C3940440F3
:1006300013755980C39404400B755940C39404400A
:100640000375590022E5592410500274FFF5592210
:10065000743279A687F0A4C5F0A2F733F8C3E89501
:10066000594002A859885B227547007548F022C29C
:10067000AFC2CAA8CCA9CDAA4130CF010AD2CAD2F2
:10068000AFC3EA13FAE913F9E813F8AB42AC4388B5
:10069000428943C3E89BF8E99C20280A547FF9303B
:1006A0002C02E18DC1E6AD448A44F9EA9D547FFAFB
:1006B000600678FF79FFC1CBAE45AF468B458C46CF
:1006C000A842A943C3E89EF8E99FF9C3E54813FB94
:1006D000E54713FAE82AF547E93BF5485006754720
:1006E000FF7548FFE133AA47AB48AC47AD487E04ED
:1006F0007F02C3EB9404400D1E1FC3EB940840051A
:100700002029021E1FC3ED13FDEC13FCDEF7C3EA24
:100710009CFAEB9DFBEF6009C3E913F9E813F8DFDE
:10072000F7EA28FAEB39FB8A478B4850067BFF8BA8
:10073000478B48C3EB94025002D22C3028047F032D
:10074000E15E7892E6FFC3E53D948240110FC3E578
:100750003D94A040010FC3EF940640027F057E0246
:10076000E548C4540FF9E548C454F0F8E547C454CB
:100770000F28F8C3E89EFAE99400FB4009C3EA9405
:1007800001EB940050047A01E4FB0207D9AA47ABBD
:1007900048EBC4FEEAC4540F4EFCC3EA9CFAEB9447
:1007A00000FBC3E813C313F8EA28FAEB3400FB8A12
:1007B000478B48C3EB94024002C22C7802EBC4FE84
:1007C0007B00EAC4540F4EFAC3EA98FA4005C3947A
:1007D0000150027A017892E6FF302002E1D9854E7D
:1007E00092854F93D22043E680C3E49AF8E49BF9C4
:1007F000C3E833F8E933F9302C0302086EE8FAE96C
:10080000FBD3E913FDE813FC884E894FC3EF940333
:100810006038EF20E00CE82CF8E93DF9ECFAEDFB4C
:100820008013E828F8E939F9C3E82401F8E934002D
:10083000F97AFF7BFFC3EF9403400F8A508B5188F6
:100840004A894B8C4C8D4D0208A3885089518A4AA5
:100850008B4B8C4C8D4D3028127550F07551FF75B7
:100860004CF0754DFF754EF0754FFF0208A3E8FA86
:10087000D3E813FC884EC3EF94036021EF20E00718
:10088000E82CF8ECFA018EE8282401F87AFFC3EF8F
:10089000940340098A50884A8C4C0208A388508AE5
:1008A0004A8C4C30200201A3753A02D22043E680E4
:1008B000E5255403602DA847A948C3E913F9E813B7
:1008C000F8302804E92440F9C2AF53E67F7591005F
:1008D000C3E498F594E499F595759104D22043E624
:1008E00080D2AF22D221754900752000302B0375CC
:1008F00020402102D221754900752040302B03751C
:10090000200078017901202C20E52554036002C2E3
:10091000217914E548C313700104F8C3941440020C
:100920007814302804781B791BC3E833F8C3E93303
:10093000F9202010E549600C302803D53A04D22371
:1009400021B511AB0549E59B5440B52002219F30EC
:10095000280908C3E899400118213120210A08C359
:10096000E899400221022131C22153E67F759100AE
:10097000302C117594007595F0759104D22043E6E2
:1009800080020902E5487EFFC3334009C3334005B6
:10099000C3334001FEC3E49E759400F5952179C3ED
:1009A000E5399401500221023021022102D80221AE
:1009B000B32131C223C2AF53E67F759100855094B5
:1009C000855195759104854A92854B93D22043E6D3
:1009D00080D2AFE525540360072029020539801035
:1009E00030230D202B0A2021071581158102159631
:1009F0002278003021027801E53D75F007A4F9E581
:100A0000F028F5F0E9A2F013A2F113A2F213F53DDC
:100A1000C394785003753D78C3E53D953E400BD2B5
:100A200022C290C292C29475D53F302002412A85DD
:100A30004C92854D93D22043E68022203810C2AFDD
:100A4000C293D29175D50FD2AF759F20610BC2AF03
:100A5000C293D29575D53CD2AF759F20610B2038DB
:100A600010C2AFC29475D533D291D2AF759F1061C9
:100A70000BC2AFC29075D533D295D2AF759F30619E
:100A80000B203810C2AFC291D29575D533D2AF7555
:100A90009F308077C2AFC295D29175D533D2AF75F2
:100AA0009F108067203810C2AFC29275D53CD29596
:100AB000D2AF759F208054C2AFC29275D50FD2912C
:100AC000D2AF759F208044203810C2AFC295D29318
:100AD00075D53CD2AF759F108031C2AFC291D29311
:100AE00075D50FD2AF759F308021203810C2AFC2AC
:100AF0009075D50FD293D2AF759F30800EC2AFC222
:100B00009475D53CD293D2AF759F10C22222203E5D
:100B1000687A147BC88019203E697A107B8C80101B
:100B2000203E6A7A0D7BB48007203E6B7A0B7BC82F
:100B3000303F01227902E4C293D5E0FDD292D5E0A4
:100B4000FDC292D5E0FDD293D5E0FDE920E002D2CE
:100B50009030E002D294E562D5E0FDE920E002C2E7
:100B60009030E002C2947496D5E0FDD9C9EAF8D578
:100B7000E0FDD8FBDBBEC293227A507C507B057D22
:100B80001480407A327C287B147D2880367A3C7C25
:100B9000B47B047D0A802C7A967C327B027D1E8099
:100BA000227A647C287B057D0F80187888E614D231
:100BB0003C7AC87C327B037D3C80087AC87C507BC1
:100BC000057D46303F0122EBF8303C15203D091CE5
:100BD000ECB40112B23D800E0CECB43209B23D808F
:100BE000051CEC70010CECC0E0E8C0E0EDC0E030AA
:100BF0003B0FD293D290E562D5E0FDC290C29380C4
:100C00000DD293D294E562D5E0FDC294C293B23B7B
:100C1000D0E0FDFED0E0F8D0E0FCF97464D5E0FD52
:100C2000DEF9744BD5E0FDD9F9203BBAD8B8DA012A
:100C300022DA9422C290C292C294C291C293C29507
:100C400075D53F22788076FF0876FF0876FF087614
:100C5000FF0876FF0876FF0876050876FF0876011C
:100C6000788C76010876FF0876FF0876FF0876FF15
:100C70000876FF0876030876FF0876FF0876FF08F7
:100C8000760A0876F008765B0876500876030876D0
:100C9000FF0876030876FF08767D0876FF0876065B
:100CA0000876010876FF0876FF08760108760122AB
:100CB000FA75F00CA4ABF0EAC333F8740133F9E829
:100CC000C333F8E933F9E8C32BF8E93400F9E8C392
:100CD00033F8E933F9227888E6C39403D23A500214
:100CE000C23AC238E630E102D238A2389239788668
:100CF000E6149000809378A6F67886E6F53FC394D4
:100D0000025003753F02789CE6753EFFB4020375FE
:100D10003EA0B40303753E8278A0E6F8600674280E
:100D20002409D8FCF5677896E691B0883189327845
:100D30009EE691B0883389347897E691B0883589FA
:100D4000369134223036117A007B007CFF7D007EA4
:100D500000B1AA8B5F8A5E22303A227896E6FA7B4F
:100D600000789EE6FC7D00C3EA33FAEB33FBC3EC6C
:100D700033FCED33FD7E0AB1AA8B618A6078963030
:100D80003A02789EE6FA7B007897E6FC7D007E00CA
:100D9000303A10C3EA33FAEB33FBC3EC33FCED33E8
:100DA000FD7E0AB1AA8B5F8A5E22C3EC9EFCED94A5
:100DB00000FDC3EC9AFCED9BFDC3EC9423ED940085
:100DC00050047C237D00C3EC94FFED940140047C2F
:100DD000FF7D017BFF0B7A000AEA7009C3EC33FC4C
:100DE000ED33FDA1D5EC8AF0A4AEF0ED8AF0A42E8F
:100DF000947C40E4EAF460DD22D236B144120588E6
:100E00001205887A007B007C10120580E5522AFAD0
:100E100074003BFBDCF37C04C3EB13FBEA13FADC4A
:100E2000F7FFEB60027FFFC236B1442278A5E6F9F6
:100E300054037000E9540C7000E954307000E95418
:100E4000C07000227ADC7B367C02E1147A327B3679
:100E50007C02E1147A667B5A7C02E1147A3A7B1DAB
:100E60007C02E1147A3E7B047C02E1147AA47B06C6
:100E70007C03E1147A467B557C03E1147ADE7B6EB9
:100E80007C02E1147A847B2B7C03E1147A847B1D41
:100E90007C02E1147A587BAC7C02E1147A587B1412
:100EA0007C0380707A627B6E7C0280687A2D7B6E18
:100EB0007C0280607A5E7B967C0280587A417BB6A9
:100EC0007C0180507A467B7D7C0380487A457B9B01
:100ED0007C0180407A497B8C7C0180387A927B8CC3
:100EE0007C0180307A4E7B797C0180287A527B6746
:100EF0007C0180207AA47B677C0180187A577B561E
:100F00007C0180107AC47B377C0180087A587B375B
:100F10007C018000ECC0E0D293D290E562D5E0FD88
:100F2000C290C293D0E0FCF9EBFD7817E4D5E0FD68
:100F3000D8FAD9F6741ED5E0FDDDF9DAD72212050C
:100F400088740220310E0420320A04203306042063
:100F500034027401C0E0710E12058CD0E0D5E0F4CB
:100F60002230341EE56CC3941E400C941E40028057
:100F70001171207120800B7117711712058C71206F
:100F8000712012058C712971292275650075660022
:100F90007597DE7597AD7581C043FF8075EF067557
:100FA000A90091347580FF75F1F075A4007580FF7C
:100FB00075D4FF75900075F23F75A53F759000756B
:100FC000D53F75A60175E34075E2029134E4F8F669
:100FD000D8FD91441215D978988662753001C2AF58
:100FE000120590D12C120590120590E5621470053F
:100FF000D23F02118AC23F945914604114600C140C
:10100000606A14600302117B021149120588120EF6
:10101000EC120588120EEC12058C120588120EECEB
:1010200012058C120EBC120588120EEC12058C12E1
:101030000F0C120590120590120EAC218A12059029
:10104000120E7C12058C120E7C12058C120E7C1274
:10105000058C120E84120E8C120E7C12058C120E50
:1010600084120E8C120E7C120E7C218A12059012B4
:101070000F04120584120EBC120EBC120584120E4F
:10108000E4120584120EFC120584120F041205846A
:10109000120EBC120EBC120584120EE4120584124C
:1010A0000EFC120584120F04120584120EBC120EDF
:1010B000BC120584120EE4120584120EFC12058483
:1010C000120F04120584120EBC120EBC12058412FB
:1010D0000EE4120584120EFC120584120EDC1205B9
:1010E00084120EA4120584120E5C120584120EBC2A
:1010F000120584120EDC120584120EA4120584124D
:101100000E5C120584120EBC120584120EDC120550
:1011100084120EA4120584120E5C120584120EBCF9
:10112000120584120EDC120584120EA4120584121C
:101130000E5C120584120EBC120584120EFC120EF7
:10114000FC120584120E948041120EEC120ED41281
:101150000EB4120E54120ECC120E64120E74120E35
:101160009C120E64120E4C120EC4120E9C120E4CE7
:10117000120E4C120E4C120E4C800F120B0E12055A
:1011800088120B17120588120B20120588C2AF7542
:10119000650075660078FA79FA308507D9FBD8F7CB
:1011A000021C00120CD6120D4478988662120C3480
:1011B00075A91375A71075C10075A7007564007532
:1011C000E405758811758E0475890975C8047591D3
:1011D0000475D84075D90875F782759E0375960217
:1011E00075DA4275DB4275A82375E69075B801750E
:1011F0009B80759D0075D10C75BCB975BB1075E8E9
:101200008075B20112057CD2AF753C00C230120568
:1012100090C231C232C233C23475220012058CC36F
:10122000E522940A500241DED23175220012058C6B
:10123000C3E522940A500241DEC231D23275220047
:1012400012058CC3E522940A500241DE75E4D5757F
:101250008851758E017589AA758C00758D00C2A99B
:10126000D2ABD2AA756980756814756C50C232D23F
:101270003475220A12058C756810C3E522940A4061
:101280005D758E0C756900756828756C2875220A65
:1012900012058C756820C3E522940A4041758E0CB6
:1012A000756950756816756C1775220A12058C756C
:1012B0006817C3E522940A402575E4057588117501
:1012C0008E04758909D2A9C2ABC2AAC234D23375C1
:1012D000220012058CC3E522940A4002218D1205DA
:1012E0008020300302118DC2AF120F3ED2AF120523
:1012F00090203403303A030213A0120580788CE664
:10130000C39401500261A0E530C39401500261A072
:101310007565A57566F17F02D236120D4412058CF3
:10132000C2AFC236120D44C3E552947FD2AF4070B3
:1013300012057CC2AF120B29D2AFDFDC120DF9C34C
:10134000EF7897F6120590D1C67F0AD236120D4477
:1013500012058CC2AFC236120D44C3E552947FD23F
:10136000AF50E612057CC2AF120B0E120584120BB1
:101370000ED2AFDFD6120DF9EF24037896F6F87986
:1013800097E7C394234003985006E824237897F600
:10139000120590D120D1F512058C120D4402118D49
:1013A00075650075660012058CC3E5529401400214
:1013B00041F1C2AF12058C120F61D2AF12059075C8
:1013C0003000E4F537F5380537E537F4703F053878
:1013D000789AE67819146012783214600D787D14CA
:1013E000600878FA146003753800C3E53898401D2A
:1013F000120C3412057C153875370078998662C254
:10140000AF120BA1D2AF7898866212058C120584B8
:10141000E5237002218DC3E552940140AA12058C88
:10142000E523700302118DC2AF120C34E4D2AFE495
:10143000F55CF524F525F53D755C0812057C120573
:10144000E530EDFDA8BDA9BEE97001F8885D120583
:10145000E9755C08C2AF7559FF120650855B598566
:101460005B5AD2AF75A71075C13075A70075A90377
:10147000756401303A07C238303502D238D2287547
:101480003900120AC7120AEA12066812066F12061B
:101490006812066F1206681208F41209F1120A3B6C
:1014A00012066F1208E4202C0312059F302C031241
:1014B00005CF1209F1120A5E12066F1208F4120922
:1014C000F1120A8112066F1208E41209F1120AA43D
:1014D00012066F1208F41209F1120AC712066F12EF
:1014E00005E51208E41209F1120AEA1205E91206EA
:1014F0006F302827855B5979187A0CC3E5399940F4
:101500000EC228D2298A3B855B59855B5A800CC361
:10151000E55294014003021497A19E30291F202B0D
:101520001CE53B147006C229D22A8197F53BC3E51E
:101530005294014003021497203A028061753C00E6
:1015400078FA79A4E760027803C3E55398504FE531
:1015500023604B303A17203805203507800F30358F
:1015600002800A202B07D22B855B5981C778F03087
:101570002B05855B597820C3E548985003021497E2
:10158000302B1BC22BC238303502D238D229753BE2
:1015900012855B598197053CE5526002A1A1753C1B
:1015A00000C2AF120C3475240075250075A913759F
:1015B000A71075C10075A700756400D2AF12058C25
:1015C000120C3478A4E66006D291D293D295C3E58A
:1015D0003C94044002218D61C2901A0D7820D159AB
:1015E000E520B4550AA3D159E520B4AA02801375A9
:1015F00065A57566F1120C44D1207565007566000D
:10160000801D901A0378807B0AD159A308DBFA90D9
:101610001A0F788C7B1AD159A308DBFA901A292269
:10162000C2AFD19CD179901A007410D15EA37444DA
:10163000D15EA37421D15E901A0378807B0AD15DBC
:10164000A308DBFA901A0F788C7B1AD15DA308DB14
:10165000FAD1AFD18D901A2922E493F622E6438F76
:1016600001538FFDFFC3E583941C400122EF856584
:10167000B78566B7F0538FFE22438F02438F0185F3
:1016800065B78566B7901A0DF0538FFC22901A0D3E
:101690007455D15E901A0E74AAD15E227A3079D038
:1016A0007820901A40D159E520F709A3DAF7227A79
:1016B0003079D0901A40E7D15E09A3DAF9227C058F
:1016C000120590DCFB22C2AF120B0E120B17120B8D
:1016D00020120B29120584120B0E120B17120B206D
:1016E000120B29120584120B0E120B17120B20126B
:1016F0000B29D2AF22C2AF120B29120B20120B17EB
:10170000120B0E120584120B29120B20120B17124A
:101710000B0E120584120B29120B20120B17120B41
:041720000ED2AF2214
:1019FD00020F8A104421FFFFFFFFFFFF05FF01FFCC
:101A0D0055AA01FFFFFFFFFF03FFFFFF0AF05B5029
:0D1A1D0003FF03FF7DFF0601FFFF0101FF36
:101A400023465F485F3130232020202020202020A3
:101A500023424C48454C492445464D3842323123B7
:101A600031362E36385F546F6E657320202020206B
:101C0000C2AFC2D37597DE7597AD7581C075A90057
:101C100043FF80752438752503B1DB7529A5752A26
:101C2000F143F12053A4DFD28575D4FF75E3407DE5
:101C3000FA780379E67C10752200752300901DE880
:101C40007B0675249875250130850281482085081A
:101C5000D8FBD9F9DCF781BA308508D8FBD9F9DC93
:101C6000F781BAB19BE493A3C39A6004DDC381BA40
:101C7000DBDBB18D600281317B08E493FAA3B16EA6
:101C8000DBF87A30B16E752200752300B18DEAFC65
:101C9000EBFDC3ED94FE400EB18D8A278B28ED300D
:101CA000E0048A828B83B18D7AC270D8C3ED94FE32
:101CB000601950CEBD0029EC600F7520007521FF22
:101CC000752900752A000200008100A827A92808AC
:101CD00009D804D90281DDB191EAF281D10D81A642
:101CE000C3ED94035051EDA2E092007AC5C3E582A2
:101CF0009400E583941C508C200010438F02438F86
:101D0000018529B7852AB7F0300027A827A9280818
:101D100009438F01538FFDD804D902A132C3E58353
:101D2000941C4003A3A117E28529B7852AB7F0A325
:101D3000A117538FFC81827AC1BD030CE493A3FAEF
:101D4000B152DCF8B14A81828184AA22AB23B16E00
:101D5000EBFAEA6222752608C3E52313F523E52290
:101D600013F52250066323A0632201D526EAB1DBD6
:101D7000B1DB75260AEAF4200102D285300102C2E5
:101D800085B1DBC3134002C201D526EB22B191EA33
:101D9000FB208502A191308502A196752608AE240C
:101DA000AF25C3EF13FFEE13FEB1DFB1DBC3EA13C0
:101DB0003085024480FA30E703632201C3E5231330
:101DC000F523E52213F52250066323A0632201D5F3
:101DD00026D9E52265236523F52222AE24AF250E00
:101DE0000FDEFEDFFCD20122424C48656C693437BD
:061DF0003164E8B20601B7
:00000001FF
