:020000040000FA
:060000000219FD0202F5E9
:030013000204E6FE
:03001B0002008D53
:03002B000202BA14
:03005B000204F5A7
:030073000202E2A4
:100080000406080C10182030406080A0C0C2AFC227
:10009000A853E6EFC28E85698BC0D0D2D3C0E0C032
:1000A000F0C2CAA8CCA9CDD2CAD2AF758A00C3E823
:1000B000956AF8E9956BF9C3E913F9E813F8E56473
:1000C0006007C3E913F9E813F8E97025E8956C4077
:1000D00020956C501CE582B410177C007B007A00E0
:1000E0007908900000A868E5647004C3E813F8017B
:1000F000FA900000D2A8D2AA619FE0FDC39CC398E9
:1001000040EF98EB33FB0582E0FCC39DC39840E1D0
:1001100098EB33FB0582E0FDC39CC39840D398EB7A
:1001200033FB0582E0FCC39DC39840C598EB33FBCD
:100130000582E0FDC39CC39840B798EB33FB058272
:10014000E0FCC39DC39840A998EB33FB0582E0FD1A
:10015000C39CC398409B98EB33FB0582E0FCC39D96
:10016000C398408D98EB33FB05822175900000D237
:10017000A8D2AA619FE0FDC39CC39840EF98EA33E0
:10018000FA0582E0FCC39DC39840E198EA33FA0582
:1001900082E0FDC39CC39840D398EA33FA0582E01D
:1001A000FCC39DC39840C598EA33FA0582E0FDC3BD
:1001B0009CC39840B798EA33FA0582E0FCC39DC31C
:1001C0009840A998EA33FA0582E0FDC39CC39840A1
:1001D0009B98EA33FA0582E0FCC39DC398408D9852
:1001E000EA33FA0582EBC46B6A54F0F9EAC454F0BE
:1001F000C3996009900000D2A8D2AA619FEBF4C411
:1002000054F0F9EAF4C4540E49FAEBF4C4540FFB69
:10021000C3EA9460FAEB9400FB50067B007A007905
:1002200000303A27C3EA94D0F8EB9407F9400BE882
:10023000FAE9FB203509D235413F303502C235207D
:100240003902B235C3EA33FAEB33FBEB2B3B3BF914
:10025000C3EB13FBEA13FAEA29FAEB3400FB30E3B1
:10026000047AFF7BFFE5255403601B202A18E55B19
:1002700033F9EB7007C3E99A4002E9FAE53CC4336D
:100280002AFAEB3400FBC3EA33C4540FF8EB33C44F
:1002900054F048F87005EA60027801C3EB13FBEAFA
:1002A00013FA900000D2A8D2AAE52260021522819A
:1002B00083900000D2A8D2AA619FC0D0C0E0C2CF74
:1002C0000541E52360021523C3E55260057553001F
:1002D00041DDE5532401F55350037553FFD0E0D0C1
:1002E000D032C2AF53E67F7592FA7593FFC22053A6
:1002F000917FD2AF32C0E0E58A30340885698BF057
:10030000A3D0E032D0E0C2AF53E6EFC0D0C0E0C02F
:10031000F0D2D3D2AF5388EFA88AA98C758A007522
:100320008C0043881030331FE8C4540FFAE9C454DA
:10033000F04AFAC3132AFAC3E833F8E933F9E82A92
:10034000FAE93403FB619030320FC3E833E933FA42
:10035000E82AFAE93400FB6190303115E875F0566F
:10036000A4AAF0E975F056A42AFAC5F03400FB619E
:1003700090E875F02BA4AAF0E975F02BA42AFAC531
:10038000F03400C313FBEA13FAC3EB13FBEA13FACE
:10039000C3EB94095009C3EA949AEB9403501605F1
:1003A00022E52270021522C3E5229432500281D93F
:1003B00075520081DCE522600215223036067C0091
:1003C0007D0461CFAC31AD32303A04AC33AD34C3CF
:1003D000EA9CFAEB9DFB9208AE5EAF5F303A42506A
:1003E00007203509D23561ED303502C2353035048C
:1003F000AE60AF61203902B235C3EA33FAEB33FBAA
:10040000A208500AEAF42401FAEBF43400FBC3EA30
:100410009428FAEB9400FB501478007A007B00815A
:100420002DA208500878007A007B008183E52554CE
:10043000036019202A16E55BF9EB7007C3E99A40BF
:1004400002E9FAE53CC42AFAEB3400FBEA8EF0A498
:10045000F9AAF0EB8EF0A42AFAC5F03400FBC3EB46
:1004600013FDEA13F80FEF146004C3E833F8C3E98F
:1004700033EA33FAEB33FBDFEDEB30E20678FF7A59
:10048000FF7B038852D230E86003755300C3E559FF
:10049000FC955A4002AC5AC3EC95525008EC75F0EA
:1004A00004A4FAABF0EAF4F8EBF45403F9885489A5
:1004B0005575230AE55830E110D0F0D0E0D0D05384
:1004C000F7DF43F74043E61032D0F0D0E0D0D0530E
:1004D000D8FE43DA0143E6103275230AD0F0D0E0AB
:1004E000D0D043E61032C2AAD28EC2CA85CC6A8569
:1004F000CD6BD2CA32C2AFC0D0C0E0D2D38554FBDC
:100500008555FC85555853F7BF53DAFED2A83034D1
:1005100002D2AA53E6EF53F7DF53D8FED0E0D0D093
:10052000D2AF327901801479038010790A800C7976
:100530001E80087964800479C880007817E4D5E0CB
:10054000FDD8FAD9F62278FF20282879A1E7602380
:10055000E548601F74FF8548F084853FF03029032B
:1005600075F005A4F8C5F0600278FFC3E8955B500C
:1005700002A85B885A22C3E54794E4E5489400E565
:100580005A500314A187046002F55A2275E890229C
:10059000055CC3E55C9408405330EDF4A8BDA9BEEA
:1005A000755C00E9FA79A0E76041EA7006E55D60F4
:1005B00018800CC3E8955D600EE55D5005600A1477
:1005C00080070460FA8002E55DF55DC39567401B16
:1005D0007559C0C394044013755980C39404400BEB
:1005E000755940C39404400375590022E5592410FD
:1005F000500274FFF55922743279A687F0A4C5F031
:10060000A2F733F8C3E895594002A859885B2275D0
:1006100047007548F022C2AFC2CAA8CCA9CDAA41F2
:1006200030CF010AD2CAD2AFAB42AC438842894331
:10063000C3E89BF8E99C202808F9302C02E126C188
:100640007FAD448A44F9EA9DFA600678FF79FFC1DC
:1006500064AE45AF468B458C46A842A943C3E89E8D
:10066000F8E99FF9C3E54813FBE54713FAE82AF5D3
:1006700047E93BF54850067547FF7548FFC1CCAACE
:1006800047AB48AC47AD487E047F02C3EB940440BF
:100690000D1E1FC3EB940840052029021E1FC3ED49
:1006A00013FDEC13FCDEF7C3EA9CFAEB9DFBEF6055
:1006B00009C3E913F9E813F8DFF7EA28FAEB39FB85
:1006C0008A478B4850067BFF8B478B48C3EB9402CD
:1006D0005002D22C3028047F03C1F77892E6FFC382
:1006E000E53D948240110FC3E53D94A040010FC346
:1006F000EF940640027F057E02E548C4540FF9E5F9
:1007000048C454F0F8E547C4540F28F8C3E89EFAEB
:10071000E99400FB4009C3EA9401EB940050047A89
:1007200001E4FB020772AA47AB48EBC4FEEAC454DB
:100730000F4EFCC3EA9CFAEB9400FBC3E813C3130F
:10074000F8EA28FAEB3400FB8A478B48C3EB9402A3
:100750004002C22C7802EBC4FE7B00EAC4540F4E68
:10076000FAC3EA98FA4005C3940150027A017892DC
:10077000E6FF302002E172854E92854F93D22043EE
:10078000E680C3E49AF8E49BF9302C03020800E801
:10079000FAE9FBD3E913FDE813FC884E894FC3EF58
:1007A00094036038EF20E00CE82CF8E93DF9ECFA0E
:1007B000EDFB8013E828F8E939F9C3E82401F8E9EA
:1007C0003400F97AFF7BFFC3EF9403400F8A508B0C
:1007D00051884A894B8C4C8D4D020835885089517F
:1007E0008A4A8B4B8C4C8D4D3028127550F07551C8
:1007F000FF754CF0754DFF754EF0754FFF020835D3
:10080000E8FAD3E813FC884EC3EF94036021EF208D
:10081000E007E82CF8ECFA0120E8282401F87AFF38
:10082000C3EF940340098A50884A8C4C02083588EB
:10083000508A4A8C4C3020020135753A02D220434E
:10084000E680E52554036034A847A948C3E913F9B5
:10085000E813F8C3E913F9E813F8302804E9244051
:10086000F9C2AF53E67F759100C3E498F594E4991B
:10087000F595759104D22043E680D2AF22D221753E
:100880004900752000302B03752040019BD2217553
:100890004900752040302B03752000780179012034
:1008A0002C20E52554036002C2217914E548C313C6
:1008B000700104F8C3941440027814302804781BA3
:1008C000791B202010E549600C302803D53A04D26A
:1008D000232142113D0549E59B5440B52002212CBE
:1008E00030280908C3E89940011801C220210A08EC
:1008F000C3E8994002019B01C2C22153E67F759172
:1009000000302C117594007595F8759104D2204330
:10091000E68002089BE5487EFFC3334005C33340B1
:1009200001FEC3E49E759400F595210AC3E5399450
:10093000015002019B302102019BD802214001C2DB
:10094000C223C2AF53E67F759100855094855195BF
:10095000759104854A92854B93D22043E680D2AFAD
:10096000E525540360072029020539801030230D46
:10097000202B0A2021071581158102153B227800C2
:100980003021027801E53D75F007A4F9E5F028F57E
:10099000F0E9A2F013A2F113A2F213F53DC394788B
:1009A0005003753D78C3E53D953E400BD222C2927F
:1009B000C291C29075D57F30200221B7854C9285B7
:1009C0004D93D22043E68022203814C2AFC291C298
:1009D00096D292D29075D56FD2AF759F2141C8C281
:1009E000AFC291C294D290D29275D53FD2AF759FCB
:1009F0002141C8203814C2AFC290D29175D55FC2D0
:100A000096D292D2AF759F0141C8C2AFC292D29125
:100A100075D55FC294D290D2AF759F3141C820384E
:100A200014C2AFC292C294D290D29175D55FD2AFA8
:100A3000759F3141C8C2AFC290C296D292D2917511
:100A4000D55FD2AF759F0141C8203814C2AFC291A3
:100A5000D29275D53FC294D290D2AF759F21806853
:100A6000C2AFC291D29075D56FC296D292D2AF75F5
:100A70009F218054203814C2AFC290C295D291D227
:100A80009275D53FD2AF759F01803DC2AFC292C271
:100A900095D291D29075D56FD2AF759F31802920B4
:100AA0003814C2AFC292D29075D56FC295D291D28E
:100AB000AF759F318012C2AFC290D29275D53FC23E
:100AC00095D291D2AF759F01C22222203E707A1436
:100AD0007BC88019203E717A107B8C8010203E727A
:100AE0007A0D7BB48007203E737A0B7BC8303F01C0
:100AF000227902E4C291D5E0FDD295D291D5E0FDF4
:100B0000C291D5E0FDC295D291D5E0FDE920E00487
:100B1000D296D29230E004D294D290E562D5E0FD34
:100B2000E920E002C29230E002C2907496D5E0FD66
:100B3000D9C1EAF8D5E0FDD8FBDBB6C291227A50E4
:100B40007C507B057D1480407A327C287B147D2884
:100B500080367A3C7CB47B047D0A802C7A967C3289
:100B60007B027D1E80227A647C287B057D0F8018A5
:100B70007888E614D23C7AC87C327B037D3C8008BE
:100B80007AC87C507B057D46303F0122EBF8303C33
:100B900015203D091CECB40112B23D800E0CECB4E2
:100BA0003209B23D80051CEC70010CECC0E0E8C0DD
:100BB000E0EDC0E0303B13C295D291D296D292E5DF
:100BC00062D5E0FDC292C2918011C295D291D294B9
:100BD000D290E562D5E0FDC290C291B23BD0E0FD7B
:100BE000FED0E0F8D0E0FCF97464D5E0FDDEF974E5
:100BF0004BD5E0FDD9F9203BB2D8B0DA0122DA8C2E
:100C000022C292C291C290C292C291C29075D57F07
:100C100022788076FF0876FF0876FF0876FF087650
:100C2000FF0876FF0876050876FF087601788C764F
:100C3000010876FF0876FF0876FF0876FF0876FF42
:100C40000876030876FF0876FF0876FF08760A081C
:100C500076F008765B0876500876030876FF08760B
:100C6000030876FF08767D0876FF08760608760189
:100C70000876FF0876FF08760108760122FA75F0FB
:100C80000CA4ABF0EAC333F8740133F9E8C333F8CA
:100C9000E933F9E8C32BF8E93400F9227888E6C390
:100CA0009403D23A5002C23AC238E630E102D23856
:100CB000A23892397886E6149000809378A6F67868
:100CC00086E6F53FC394025003753F02789CE675B3
:100CD0003EFFB40203753EA0B40303753E8278A0C4
:100CE000E6F8600674282409D8FCF5677896E69142
:100CF0007D88318932789EE6917D88338934789772
:100D0000E6917D883589369101223036117A007B53
:100D1000007CFF7D007E00B1708B5F8A5E22303ADE
:100D2000227896E6FA7B00789EE6FC7D00C3EA33E3
:100D3000FAEB33FBC3EC33FCED33FD7E0AB1708B71
:100D4000618A607896303A02789EE6FA7B0078975E
:100D5000E6FC7D007E00303A10C3EA33FAEB33FB49
:100D6000C3EC33FCED33FD7E0AB1708B5F8A5E22EB
:100D7000C3EC9EFCED9400FDC3EC9AFCED9BFDC31F
:100D8000EC9423ED940050047C237D00C3EC94FF8D
:100D9000ED940140047CFF7D017BFF0B7A000AEAA1
:100DA0007009C3EC33FCED33FDA19BEC8AF0A4AEDB
:100DB000F0ED8AF0A42E947C40E4EAF460DD22D2C7
:100DC00036B10A12052F12052F7A007B007C101213
:100DD0000527E5522AFA74003BFBDCF37C04C3EBE5
:100DE00013FBEA13FADCF7FFEB60027FFFC236B1B8
:100DF0000A2278A5E6F954037000E9540C7000E962
:100E000054307000E954C07000227ADC7B367C02DA
:100E1000C1DA7A327B367C02C1DA7A667B5A7C028E
:100E2000C1DA7A3A7B1D7C02C1DA7A3E7B047C020D
:100E3000C1DA7AA47B067C03C1DA7A467B557C034F
:100E4000C1DA7ADE7B6E7C02C1DA7A847B2B7C038A
:100E5000C1DA7A847B1D7C02C1DA7A587BAC7C02D1
:100E6000C1DA7A587B147C0380707A627B6E7C02D4
:100E700080687A2D7B6E7C0280607A5E7B967C0235
:100E800080587A417BB67C0180507A467B7D7C031A
:100E900080487A457B9B7C0180407A497B8C7C0131
:100EA00080387A927B8C7C0180307A4E7B797C0111
:100EB00080287A527B677C0180207AA47B677C0142
:100EC00080187A577B567C0180107AC47B377C016E
:100ED00080087A587B377C018000ECC0E0C295D254
:100EE00091D296D292E562D5E0FDC292C291D0E055
:100EF000FCF9EBFD7817E4D5E0FDD8FAD9F6741EBD
:100F0000D5E0FDDDF9DAD32212052F740220310E6F
:100F10000420320A04203306042034027401C0E0A5
:100F200051CB120533D0E0D5E0F42230341EE56C0D
:100F3000C3941E400C941E4002801151DD51DD808F
:100F40000B51D451D412053351DD51DD120533510B
:100F5000E651E6227565007566007597DE7597ADFA
:100F60007581C043FF8075EF0675A90091017580FA
:100F7000FF75F1F075A4007580FF75D4FF759000C2
:100F800075F27775A57775900075D57F75A6017593
:100F9000E34075E2029101E4F8F6D8FD91111215D3
:100FA0007578988662753001C2AF120537B1F212BA
:100FB0000537120537E562147005D23F02114DC2A4
:100FC0003F945914603A14600C1460631460030277
:100FD000113E02110C12052FD1B212052FD1B212FF
:100FE000053312052FD1B2120533D18212052FD14C
:100FF000B2120533D1D2120537120537D172214D05
:10100000120537120E42120533120E421205331228
:101010000E42120533120E4A120E52120E421205E1
:1010200033120E4A120E52120E42120E42214D126D
:101030000537120ECA12052B120E82120E821205ED
:101040002B120EAA12052B120EC212052B120ECA5B
:1010500012052B120E82120E8212052B120EAA12EC
:10106000052B120EC212052B120ECA12052B120EE0
:1010700082120E8212052B120EAA12052B120EC21C
:1010800012052B120ECA12052B120E82120E82129C
:10109000052B120EAA12052B120EC212052B120ED0
:1010A000A212052B120E6A12052B120E2212052B0C
:1010B000120E8212052B120EA212052B120E6A12AC
:1010C000052B120E2212052B120E8212052B120E68
:1010D000A212052B120E6A12052B120E2212052BDC
:1010E000120E8212052B120EA212052B120E6A127C
:1010F000052B120E2212052B120E8212052B120E38
:10110000C2120EC212052B120E5A8041120EB212DA
:101110000E9A120E7A120E1A120E92120E2A120E37
:101120003A120E62120E2A120E12120E8A120E625B
:10113000120E12120E12120E12120E12800F120A3C
:10114000CB12052F120AD412052F120ADD12052F19
:10115000C2AF75650075660078FA79FA308707D9ED
:10116000FBD8F7021C00120C9C120D0A78988662BC
:10117000120C0175E407758811758E04758909755F
:10118000C80475910475D84075D90875F782759EA5
:101190000075960075DA4A75DB0075A82175E69032
:1011A00075B801759B80759D0075D10C75BC59751E
:1011B000BB1075E88075B201120523D2AF753C00F3
:1011C000C230120537C231C232C233C23475220076
:1011D000120533C3E522940A50024192D23175229E
:1011E00000120533C3E522940A50024192C231D263
:1011F00032752200120533C3E522940A500241924F
:1012000075E4F7758851758E017589AA758C00751E
:101210008D00C2A9D2ABD2AA7569C0756814756C6D
:1012200050C232D23475220A120533756810C3E5F4
:1012300022940A405D758E0C756980756828756CFE
:101240002875220A120533756820C3E522940A40E6
:1012500041758E0C7569C0756816756C1775220A14
:10126000120533756817C3E522940A402575E40713
:10127000758811758E04758909D2A9C2ABC2AAC23C
:1012800034D233752200120533C3E522940A40029A
:101290002150120527203003021150C2AF120F084F
:1012A000D2AF120537203403303A0302135412052B
:1012B00027788CE6C3940150026154E530C3940151
:1012C000500261547565A57566F17F02D236120D24
:1012D0000A120533C2AFC236120D0AC3E552947F1B
:1012E000D2AF4070120523C2AF120AE6D2AFDFDCE4
:1012F000120DBFC3EF7897F6120537D1627F0AD27D
:1013000036120D0A120533C2AFC236120D0AC3E5FA
:1013100052947FD2AF50E6120523C2AF120ACB120D
:10132000052B120ACBD2AFDFD6120DBFEF24037804
:1013300096F6F87997E7C394234003985006E8247B
:10134000237897F6120537B1BCD191120533120DEF
:101350000A021150756500756600120533C3E55227
:101360009401400241A5C2AF120533120F2BD2AF38
:10137000120537753000E4F537F5380537E537F4F1
:10138000703F0538789AE678191460127832146044
:101390000D787D14600878FA146003753800C3E591
:1013A0003898401D120C0112052315387537007846
:1013B000998662C2AF120B66D2AF78988662120528
:1013C0003312052BE52370022150C3E552940140EE
:1013D000AA120533E5237003021150C2AF120C01AB
:1013E000E4D2AFE4F55CF524F525F53D755C081213
:1013F000052312058C30EDFDA8BDA9BEE97001F8EA
:10140000885D120590755C08C2AF7559FF1205F72B
:10141000855B59855B5AD2AF303A07C23830350206
:10142000D238D228753900120A74120A9F12060F98
:1014300012061612060F12061612060F12088D1249
:10144000097E1209C812061612087D202C03120507
:1014500046302C0312057612097E1209F312061685
:1014600012088D12097E120A1E12061612087D122B
:10147000097E120A4912061612088D12097E120AF6
:101480007412061612058C12087D12097E120A9F2C
:10149000120590120616302827855B5979187A0CA8
:1014A000C3E53999400EC228D2298A3B855B59850C
:1014B0005B5A800CC3E5529401400302143CA143E3
:1014C00030291F202B1CE53B147006C229D22A812B
:1014D0003CF53BC3E5529401400302143C203A0220
:1014E0008061753C0078FA79A4E760027803C3E56F
:1014F0005398504FE523604B303A1720380520357C
:1015000007800F303502800A202B07D22B855B59CC
:10151000816C78F0302B05855B597820C3E54898BD
:10152000500302143C302B1BC22BC238303502D280
:1015300038D229753B12855B59813C053CE55260E8
:1015400002A146753C00C2AF120C0175240075253E
:1015500000D2AF120533120C0178A4E6600CC296DB
:10156000D292C295D291C294D290C3E53C940440E9
:101570000221506176901A0D7820B1F5E520B4551E
:101580000AA3B1F5E520B4AA0280137565A57566B6
:10159000F1120C11B1BC756500756600801D901AC2
:1015A0000378807B0AB1F5A308DBFA901A0F788CD8
:1015B0007B1AB1F5A308DBFA901A2922C2AFD13801
:1015C000D115901A007410B1FAA37444B1FAA3743F
:1015D00021B1FA901A0378807B0AB1F9A308DBFAEB
:1015E000901A0F788C7B1AB1F9A308DBFAD14BD192
:1015F00029901A2922E493F622E6438F01538FFDA6
:10160000FFC3E583941C400122EF8565B78566B76B
:10161000F0538FFE22438F02438F018565B78566A5
:10162000B7901A0DF0538FFC22901A0D7455B1FA31
:10163000901A0E74AAB1FA227A3079D07820901AD2
:1016400040B1F5E520F709A3DAF7227A3079D09096
:101650001A40E7B1FA09A3DAF9227C05120537DC52
:10166000FB22C2AF120ACB120AD4120ADD120AE61A
:1016700012052B120ACB120AD4120ADD120AE61244
:10168000052B120ACB120AD4120ADD120AE6D2AFD7
:1016900022C2AF120AE6120ADD120AD4120ACB12D3
:1016A000052B120AE6120ADD120AD4120ACB120521
:1016B0002B120AE6120ADD120AD4120ACBD2AF228A
:1019FD00020F54104421FFFFFFFFFFFF05FF01FF02
:101A0D0055AA01FFFFFFFFFF03FFFFFF0AF05B5029
:0D1A1D0003FF03FF7DFF0601FFFF0101FF36
:101A400023485F4C5F30302320202020202020209E
:101A500023424C48454C492445464D3842313023B9
:101A600031362E36385F546F6E657320202020206B
:101C0000C2AFC2D37597DE7597AD7581C075A90057
:101C100043FF80752438752503B1DB7529A5752A26
:101C2000F143F18053A47FD28775D4FF75E3407DE3
:101C3000FA780379E67C10752200752300901DE880
:101C40007B06752498752501308702814820870816
:101C5000D8FBD9F9DCF781BA308708D8FBD9F9DC91
:101C6000F781BAB19BE493A3C39A6004DDC381BA40
:101C7000DBDBB18D600281317B08E493FAA3B16EA6
:101C8000DBF87A30B16E752200752300B18DEAFC65
:101C9000EBFDC3ED94FE400EB18D8A278B28ED300D
:101CA000E0048A828B83B18D7AC270D8C3ED94FE32
:101CB000601950CEBD0029EC600F7520007521FF22
:101CC000752900752A000200008100A827A92808AC
:101CD00009D804D90281DDB191EAF281D10D81A642
:101CE000C3ED94035051EDA2E092007AC5C3E582A2
:101CF0009400E583941C508C200010438F02438F86
:101D0000018529B7852AB7F0300027A827A9280818
:101D100009438F01538FFDD804D902A132C3E58353
:101D2000941C4003A3A117E28529B7852AB7F0A325
:101D3000A117538FFC81827AC1BD030CE493A3FAEF
:101D4000B152DCF8B14A81828184AA22AB23B16E00
:101D5000EBFAEA6222752608C3E52313F523E52290
:101D600013F52250066323A0632201D526EAB1DBD6
:101D7000B1DB75260AEAF4200102D287300102C2E3
:101D800087B1DBC3134002C201D526EB22B191EA31
:101D9000FB208702A191308702A196752608AE2408
:101DA000AF25C3EF13FFEE13FEB1DFB1DBC3EA13C0
:101DB0003087024480FA30E703632201C3E523132E
:101DC000F523E52213F52250066323A0632201D5F3
:101DD00026D9E52265236523F52222AE24AF250E00
:101DE0000FDEFEDFFCD20122424C48656C693437BD
:061DF0003164E8B10601B8
:00000001FF
