:020000040000FA
:060000000219FD0202F5E9
:030013000204E6FE
:03001B0002008D53
:03002B000202BA14
:03005B000204F5A7
:030073000202E2A4
:100080000406080C10182030406080A0C0C2AFC227
:10009000A853E6EFC28E85698BC0D0D2D3C0E0C032
:1000A000F0C2CAA8CCA9CDD2CAD2AF758A00C3E823
:1000B000956AF8E9956BF9C3E913F9E813F8E56473
:1000C0006007C3E913F9E813F8E97025E8956C4077
:1000D00020956C501CE582B410177C007B007A00E0
:1000E0007908900000A868E5647004C3E813F8017B
:1000F000FA900000D2A8D2AA619FE0FDC39CC398E9
:1001000040EF98EB33FB0582E0FCC39DC39840E1D0
:1001100098EB33FB0582E0FDC39CC39840D398EB7A
:1001200033FB0582E0FCC39DC39840C598EB33FBCD
:100130000582E0FDC39CC39840B798EB33FB058272
:10014000E0FCC39DC39840A998EB33FB0582E0FD1A
:10015000C39CC398409B98EB33FB0582E0FCC39D96
:10016000C398408D98EB33FB05822175900000D237
:10017000A8D2AA619FE0FDC39CC39840EF98EA33E0
:10018000FA0582E0FCC39DC39840E198EA33FA0582
:1001900082E0FDC39CC39840D398EA33FA0582E01D
:1001A000FCC39DC39840C598EA33FA0582E0FDC3BD
:1001B0009CC39840B798EA33FA0582E0FCC39DC31C
:1001C0009840A998EA33FA0582E0FDC39CC39840A1
:1001D0009B98EA33FA0582E0FCC39DC398408D9852
:1001E000EA33FA0582EBC46B6A54F0F9EAC454F0BE
:1001F000C3996009900000D2A8D2AA619FEBF4C411
:1002000054F0F9EAF4C4540E49FAEBF4C4540FFB69
:10021000C3EA9460FAEB9400FB50067B007A007905
:1002200000303A27C3EA94D0F8EB9407F9400BE882
:10023000FAE9FB203509D235413F303502C235207D
:100240003902B235C3EA33FAEB33FBEB2B3B3BF914
:10025000C3EB13FBEA13FAEA29FAEB3400FB30E3B1
:10026000047AFF7BFFE5255403601B202A18E55B19
:1002700033F9EB7007C3E99A4002E9FAE53CC4336D
:100280002AFAEB3400FBC3EA33C4540FF8EB33C44F
:1002900054F048F87005EA60027801C3EB13FBEAFA
:1002A00013FA900000D2A8D2AAE52260021522819A
:1002B00083900000D2A8D2AA619FC0D0C0E0C2CF74
:1002C0000541E52360021523C3E55260057553001F
:1002D00041DDE5532401F55350037553FFD0E0D0C1
:1002E000D032C2AF53E67F7592FA7593FFC22053A6
:1002F000917FD2AF32C0E0E58A30340885698BF057
:10030000A3D0E032D0E0C2AF53E6EFC0D0C0E0C02F
:10031000F0D2D3D2AF5388EFA88AA98C758A007522
:100320008C0043881030331FE8C4540FFAE9C454DA
:10033000F04AFAC3132AFAC3E833F8E933F9E82A92
:10034000FAE93403FB619030320FC3E833E933FA42
:10035000E82AFAE93400FB6190303115E875F0566F
:10036000A4AAF0E975F056A42AFAC5F03400FB619E
:1003700090E875F02BA4AAF0E975F02BA42AFAC531
:10038000F03400C313FBEA13FAC3EB13FBEA13FACE
:10039000C3EB94095009C3EA949AEB9403501605F1
:1003A00022E52270021522C3E5229432500281D93F
:1003B00075520081DCE522600215223036067C0091
:1003C0007D0461CFAC31AD32303A04AC33AD34C3CF
:1003D000EA9CFAEB9DFB9208AE5EAF5F303A42506A
:1003E00007203509D23561ED303502C2353035048C
:1003F000AE60AF61203902B235C3EA33FAEB33FBAA
:10040000A208500AEAF42401FAEBF43400FBC3EA30
:100410009428FAEB9400FB501478007A007B00815A
:100420002DA208500878007A007B008183E52554CE
:10043000036019202A16E55BF9EB7007C3E99A40BF
:1004400002E9FAE53CC42AFAEB3400FBEA8EF0A498
:10045000F9AAF0EB8EF0A42AFAC5F03400FBC3EB46
:1004600013FDEA13F80FEF146004C3E833F8C3E98F
:1004700033EA33FAEB33FBDFEDEB30E20678FF7A59
:10048000FF7B038852D230E86003755300C3E559FF
:10049000FC955A4002AC5AC3EC95525008EC75F0EA
:1004A00004A4FAABF0EAF4F8EBF45403F9885489A5
:1004B0005575230AE55830E110D0F0D0E0D0D05384
:1004C000F7DF43F74043E61032D0F0D0E0D0D0530E
:1004D000D8FE43DA0143E6103275230AD0F0D0E0AB
:1004E000D0D043E61032C2AAD28EC2CA85CC6A8569
:1004F000CD6BD2CA32C2AFC0D0C0E0D2D38554FBDC
:100500008555FC85555853F7BF53DAFED2A83034D1
:1005100002D2AA53E6EF53F7DF53D8FED0E0D0D093
:10052000D2AF327901801479038010790A800C7976
:100530001E80087964800479C880007817E4D5E0CB
:10054000FDD8FAD9F62278FF20282879A1E7602380
:10055000E548601F74FF8548F084853FF03029032B
:1005600075F005A4F8C5F0600278FFC3E8955B500C
:1005700002A85B885A22C3E54794E4E5489400E565
:100580005A500314A187046002F55A2275E890229C
:10059000055CC3E55C9408405330EDF4A8BDA9BEEA
:1005A000755C00E9FA79A0E76041EA7006E55D60F4
:1005B00018800CC3E8955D600EE55D5005600A1477
:1005C00080070460FA8002E55DF55DC39567401B16
:1005D0007559C0C394044013755980C39404400BEB
:1005E000755940C39404400375590022E5592410FD
:1005F000500274FFF55922743279A687F0A4C5F031
:10060000A2F733F8C3E895594002A859885B2275D0
:1006100047007548F022C2AFC2CAA8CCA9CDAA41F2
:1006200030CF010AD2CAD2AFAB42AC438842894331
:10063000C3E89BF8E99C202808F9302C02E126C188
:100640007FAD448A44F9EA9DFA600678FF79FFC1DC
:1006500064AE45AF468B458C46A842A943C3E89E8D
:10066000F8E99FF9C3E54813FBE54713FAE82AF5D3
:1006700047E93BF54850067547FF7548FFC1CCAACE
:1006800047AB48AC47AD487E047F02C3EB940440BF
:100690000D1E1FC3EB940840052029021E1FC3ED49
:1006A00013FDEC13FCDEF7C3EA9CFAEB9DFBEF6055
:1006B00009C3E913F9E813F8DFF7EA28FAEB39FB85
:1006C0008A478B4850067BFF8B478B48C3EB9402CD
:1006D0005002D22C3028047F03C1F77892E6FFC382
:1006E000E53D948240110FC3E53D94A040010FC346
:1006F000EF940640027F057E02E548C4540FF9E5F9
:1007000048C454F0F8E547C4540F28F8C3E89EFAEB
:10071000E99400FB4009C3EA9401EB940050047A89
:1007200001E4FB020772AA47AB48EBC4FEEAC454DB
:100730000F4EFCC3EA9CFAEB9400FBC3E813C3130F
:10074000F8EA28FAEB3400FB8A478B48C3EB9402A3
:100750004002C22C7802EBC4FE7B00EAC4540F4E68
:10076000FAC3EA98FA4005C3940150027A017892DC
:10077000E6FF302002E172854E92854F93D22043EE
:10078000E680C3E49AF8E49BF9302C03020800E801
:10079000FAE9FBD3E913FDE813FC884E894FC3EF58
:1007A00094036038EF20E00CE82CF8E93DF9ECFA0E
:1007B000EDFB8013E828F8E939F9C3E82401F8E9EA
:1007C0003400F97AFF7BFFC3EF9403400F8A508B0C
:1007D00051884A894B8C4C8D4D020835885089517F
:1007E0008A4A8B4B8C4C8D4D3028127550F07551C8
:1007F000FF754CF0754DFF754EF0754FFF020835D3
:10080000E8FAD3E813FC884EC3EF94036021EF208D
:10081000E007E82CF8ECFA0120E8282401F87AFF38
:10082000C3EF940340098A50884A8C4C02083588EB
:10083000508A4A8C4C3020020135753A02D220434E
:10084000E680E52554036034A847A948C3E913F9B5
:10085000E813F8C3E913F9E813F8302804E9244051
:10086000F9C2AF53E67F759100C3E498F594E4991B
:10087000F595759104D22043E680D2AF22D221753E
:100880004900752000302B03752040019BD2217553
:100890004900752040302B03752000780179012034
:1008A0002C20E52554036002C2217914E548C313C6
:1008B000700104F8C3941440027814302804781BA3
:1008C000791B202010E549600C302803D53A04D26A
:1008D000232142113D0549E59B5440B52002212CBE
:1008E00030280908C3E89940011801C220210A08EC
:1008F000C3E8994002019B01C2C22153E67F759172
:1009000000302C117594007595F8759104D2204330
:10091000E68002089BE5487EFFC3334005C33340B1
:1009200001FEC3E49E759400F595210AC3E5399450
:10093000015002019B302102019BD802214001C2DB
:10094000C223C2AF53E67F759100855094855195BF
:10095000759104854A92854B93D22043E680D2AFAD
:10096000E525540360072029020539801030230D46
:10097000202B0A20210715811581021554227800A9
:100980003021027801E53D75F007A4F9E5F028F57E
:10099000F0E9A2F013A2F113A2F213F53DC394788B
:1009A0005003753D78C3E53D953E400BD222C2937E
:1009B000C294C29575D57F30200221B7854C9285AF
:1009C0004D93D22043E68022203814C2AFC294C295
:1009D00090D293D29575D53BD2AF759F2341C8C2B3
:1009E000AFC294C292D295D29375D53ED2AF759FC5
:1009F0002341C8203814C2AFC295D29475D53DC2E8
:100A000090D293D2AF759F1341C8C2AFC293D29414
:100A100075D53DC292D295D2AF759F0341C820389B
:100A200014C2AFC293C292D295D29475D53DD2AFC3
:100A3000759F0341C8C2AFC295C290D293D294753C
:100A4000D53DD2AF759F1341C8203814C2AFC294B0
:100A5000D29375D53EC292D295D2AF759F2380684E
:100A6000C2AFC294D29575D53BC290D293D2AF7526
:100A70009F238054203814C2AFC295C291D294D221
:100A80009375D53ED2AF759F13803DC2AFC293C25E
:100A900091D294D29575D53BD2AF759F0380292012
:100AA0003814C2AFC293D29575D53BC291D294D2BD
:100AB000AF759F038012C2AFC295D29375D53EC267
:100AC00091D294D2AF759F13C22222203E707A1425
:100AD0007BC88019203E717A107B8C8010203E727A
:100AE0007A0D7BB48007203E737A0B7BC8303F01C0
:100AF000227902E4C294D5E0FDD291D294D5E0FDF2
:100B0000C294D5E0FDC291D294D5E0FDE920E00485
:100B1000D290D29330E004D292D295E562D5E0FD36
:100B2000E920E002C29330E002C2957496D5E0FD60
:100B3000D9C1EAF8D5E0FDD8FBDBB6C294227A50E1
:100B40007C507B057D1480407A327C287B147D2884
:100B500080367A3C7CB47B047D0A802C7A967C3289
:100B60007B027D1E80227A647C287B057D0F8018A5
:100B70007888E614D23C7AC87C327B037D3C8008BE
:100B80007AC87C507B057D46303F0122EBF8303C33
:100B900015203D091CECB40112B23D800E0CECB4E2
:100BA0003209B23D80051CEC70010CECC0E0E8C0DD
:100BB000E0EDC0E0303B13C291D294D290D293E5E5
:100BC00062D5E0FDC293C2948011C291D294D292B8
:100BD000D295E562D5E0FDC295C294B23BD0E0FD6E
:100BE000FED0E0F8D0E0FCF97464D5E0FDDEF974E5
:100BF0004BD5E0FDD9F9203BB2D8B0DA0122DA8C2E
:100C000022C293C294C295C293C294C29575D57FF5
:100C100022788076FF0876FF0876FF0876FF087650
:100C2000FF0876FF0876050876FF087601788C764F
:100C3000010876FF0876FF0876FF0876FF0876FF42
:100C40000876030876FF0876FF0876FF08760A081C
:100C500076F008765B0876500876030876FF08760B
:100C6000030876FF08767D0876FF08760608760189
:100C70000876FF0876FF08760108760122FA75F0FB
:100C80000CA4ABF0EAC333F8740133F9E8C333F8CA
:100C9000E933F9E8C32BF8E93400F9227888E6C390
:100CA0009403D23A5002C23AC238E630E102D23856
:100CB000A23892397886E6149000809378A6F67868
:100CC00086E6F53FC394025003753F02789CE675B3
:100CD0003EFFB40203753EA0B40303753E8278A0C4
:100CE000E6F8600674282409D8FCF5677896E69142
:100CF0007D88318932789EE6917D88338934789772
:100D0000E6917D883589369101223036117A007B53
:100D1000007CFF7D007E00B1708B5F8A5E22303ADE
:100D2000227896E6FA7B00789EE6FC7D00C3EA33E3
:100D3000FAEB33FBC3EC33FCED33FD7E0AB1708B71
:100D4000618A607896303A02789EE6FA7B0078975E
:100D5000E6FC7D007E00303A10C3EA33FAEB33FB49
:100D6000C3EC33FCED33FD7E0AB1708B5F8A5E22EB
:100D7000C3EC9EFCED9400FDC3EC9AFCED9BFDC31F
:100D8000EC9423ED940050047C237D00C3EC94FF8D
:100D9000ED940140047CFF7D017BFF0B7A000AEAA1
:100DA0007009C3EC33FCED33FDA19BEC8AF0A4AEDB
:100DB000F0ED8AF0A42E947C40E4EAF460DD22D2C7
:100DC00036B10A12052F12052F7A007B007C101213
:100DD0000527E5522AFA74003BFBDCF37C04C3EBE5
:100DE00013FBEA13FADCF7FFEB60027FFFC236B1B8
:100DF0000A2278A5E6F95403C2857002D285E95427
:100E00000CC2867002D286E95430C2877002D28743
:100E1000E954C07000227ADC7B367C02C1E67A326B
:100E20007B367C02C1E67A667B5A7C02C1E67A3A5E
:100E30007B1D7C02C1E67A3E7B047C02C1E67AA47B
:100E40007B067C03C1E67A467B557C03C1E67ADEED
:100E50007B6E7C02C1E67A847B2B7C03C1E67A84BC
:100E60007B1D7C02C1E67A587BAC7C02C1E67A58D5
:100E70007B147C0380707A627B6E7C0280687A2DA2
:100E80007B6E7C0280607A5E7B967C0280587A4121
:100E90007BB67C0180507A467B7D7C0380487A4516
:100EA0007B9B7C0180407A497B8C7C0180387A92E4
:100EB0007B8C7C0180307A4E7B797C0180287A5251
:100EC0007B677C0180207AA47B677C0180187A573D
:100ED0007B567C0180107AC47B377C0180087A586D
:100EE0007B377C018000ECC0E0C291D294D290D2DA
:100EF00093E562D5E0FDC293C294D0E0FCF9EBFD2E
:100F00007817E4D5E0FDD8FAD9F6741ED5E0FDDDFA
:100F1000F9DAD322D28512052FC286740220310E4F
:100F20000420320A04203306042034027401C0E095
:100F300051CB120533D0E0D5E0F42230341EE56CFD
:100F4000C3941E400C941E4002801151DD51DD807F
:100F50000B51D451D412053351DD51DD12053351FB
:100F6000E651E6227565007566007597DE7597ADEA
:100F70007581C043FF8075EF0675A90091017580EA
:100F8000FF75F1F075A4E07580FF75D4FF759000D2
:100F900075F23F75A53F75900075D53F75A6017533
:100FA000E34075E2029101E4F8F6D8FD91111215C3
:100FB0008E78988662753001C2AF120537B1F21291
:100FC0000537120537E562147005D23F021162C27F
:100FD00085C23F945914603D14600C14606614601F
:100FE0000302115302112112052FD1BE12052FD178
:100FF000BE12053312052FD1BE120533D18E120554
:101000002F120EBE120533120EDE120537120537EF
:10101000120E7E2162120537120E4E120533120E89
:101020004E120533120E4E120533120E56120E5E7C
:10103000120E4E120533120E56120E5E120E4E1284
:101040000E4E2162120537120ED612052B120E8E8D
:10105000120E8E12052B120EB612052B120ECE1288
:10106000052B120ED612052B120E8E120E8E1205A5
:101070002B120EB612052B120ECE12052B120ED607
:1010800012052B120E8E120E8E12052B120EB61298
:10109000052B120ECE12052B120ED612052B120E98
:1010A0008E120E8E12052B120EB612052B120ECEBC
:1010B00012052B120EAE12052B120E7612052B12F4
:1010C0000E2E12052B120E8E12052B120EAE1205CD
:1010D0002B120E7612052B120E2E12052B120E8ECF
:1010E00012052B120EAE12052B120E7612052B12C4
:1010F0000E2E12052B120E8E12052B120EAE12059D
:101100002B120E7612052B120E2E12052B120E8E9E
:1011100012052B120ECE120ECE12052B120E668069
:1011200041120EBE120EA6120E86120E26120E9E30
:10113000120E36120E46120E6E120E36120E1E12BF
:101140000E96120E6E120E1E120E1E120E1E120E93
:101150001E800F120ACB12052F120AD412052F126D
:101160000ADD12052FC2AF75650075660078FA7941
:10117000FA308407D9FBD8F7021C00120C9C120D20
:101180000A78988662120C0175E404758811758ED0
:101190000475890975C80475910475D84075D90816
:1011A00075F782759E0075960275DA4A75DB0075D3
:1011B000A82175E69075B801759B80759D0075D165
:1011C0000C75BC5975BB1075E88075B2011205230A
:1011D000D2AF753C00C230120537C231C232C233C1
:1011E000C234752200120533C3E522940A5002412D
:1011F000A7D231752200120533C3E522940A5002AA
:1012000041A7C231D232752200120533C3E52294C0
:101210000A500241A775E4C4758851758E0175891D
:10122000AA758C00758D00C2A9D2ABD2AA7569C00F
:10123000756814756C50C232D23475220A120533A7
:10124000756810C3E522940A405D758E0C7569803F
:10125000756828756C2875220A120533756820C3D5
:10126000E522940A4041758E0C7569C07568167543
:101270006C1775220A120533756817C3E522940AA4
:10128000402575E404758811758E04758909D2A905
:10129000C2ABC2AAC234D233752200120533C3E5F1
:1012A00022940A40022165120527203003021165AD
:1012B000C2AF120F14D2AF120537203403303A03F5
:1012C000021369120527788CE6C394015002616904
:1012D000E530C39401500261697565A57566F17FBB
:1012E00002D236120D0A120533C2AFC236120D0AEF
:1012F000C3E552947FD2AF4070120523C2AF120AE9
:10130000E6D2AFDFDC120DBFC3EF7897F6120537D8
:10131000D17B7F0AD236120D0A120533C2AFC23614
:10132000120D0AC3E552947FD2AF50E6120523C2D4
:10133000AF120ACB12052B120ACBD2AFDFD6120D99
:10134000BFEF24037896F6F87997E7C39423400318
:10135000985006E824237897F6120537B1D5D1AA1C
:10136000120533120D0A02116575650075660012CB
:101370000533C3E5529401400241BAC2AFD286128E
:101380000533120F3BC287D2AF120537753000E428
:10139000F537F5380537E537F4703F0538789AE6C4
:1013A0007819146012783214600D787D1460087812
:1013B000FA146003753800C3E53898401D120C011B
:1013C000120523153875370078998662C2AF120B63
:1013D00066D2AF7898866212053312052BE523702A
:1013E000022165C3E552940140AA120533E523703A
:1013F00003021165C2AF120C01E4D2AFE4F55CF553
:1014000024F525F53D755C0812052312058C30ED99
:10141000FDA8BDA9BEE97001F8885D120590755C54
:1014200008C2AF7559FF1205F7855B59855B5AD223
:10143000AF303A07C238303502D238D22875390079
:10144000120A74120A9F12060F12061612060F12C3
:10145000061612060F12088D12097E1209C812060E
:101460001612087D202C03120546302C0312057637
:1014700012097E1209F312061612088D12097E1245
:101480000A1E12061612087D12097E120A49120659
:101490001612088D12097E120A7412061612058C95
:1014A00012087D12097E120A9F120590120616304C
:1014B0002827855B5979187A0CC3E53999400EC203
:1014C00028D2298A3B855B59855B5A800CC3E5523B
:1014D00094014003021455A15C30291F202B1CE508
:1014E0003B147006C229D22A8155F53BC3E55294BC
:1014F000014003021455203A028061753C0078FADD
:1015000079A4E760027803C3E55398504FE5236060
:101510004B303A17203805203507800F30350280D0
:101520000A202B07D22B855B59818578F0302B055B
:10153000855B597820C3E548985003021455302B39
:101540001BC22BC238303502D238D229753B1285E6
:101550005B598155053CE5526002A15F753C00C2B4
:10156000AF120C01752400752500D2AF120533129D
:101570000C0178A4E6600CC290D293C291D294C2BE
:1015800092D295C3E53C940440022165618F901A84
:101590000D7820D10EE520B4550AA3D10EE520B474
:1015A000AA0280137565A57566F1120C11B1D57587
:1015B0006500756600801D901A0378807B0AD10E45
:1015C000A308DBFA901A0F788C7B1AD10EA308DBE4
:1015D000FA901A2922C2AFD151D12E901A0074105C
:1015E000D113A37444D113A37421D113901A037897
:1015F000807B0AD112A308DBFA901A0F788C7B1A31
:10160000D112A308DBFAD164D142901A2922E493C3
:10161000F622E6438F01538FFDFFC3E583941C4000
:101620000122EF8565B78566B7F0538FFE22438FA1
:1016300002438F018565B78566B7901A0DF0538F09
:10164000FC22901A0D7455D113901A0E74AAD1135E
:10165000227A3079D07820901A40D10EE520F7090F
:10166000A3DAF7227A3079D0901A40E7D11309A390
:10167000DAF9227C05120537DCFB22C2AF120ACB55
:10168000120AD4120ADD120AE612052B120ACB1234
:101690000AD4120ADD120AE612052B120ACB120A2C
:1016A000D4120ADD120AE6D2AF22C2AF120AE61243
:1016B0000ADD120AD4120ACB12052B120AE6120A0C
:1016C000DD120AD4120ACB12052B120AE6120ADD29
:0916D000120AD4120ACBD2AF2297
:1019FD00020F64104421FFFFFFFFFFFF05FF01FFF2
:101A0D0055AA01FFFFFFFFFF03FFFFFF0AF05B5029
:0D1A1D0003FF03FF7DFF0601FFFF0101FF36
:101A4000234A5F4C5F30302320202020202020209C
:101A500023424C48454C492445464D3842313023B9
:101A600031362E36385F546F6E657320202020206B
:101C0000C2AFC2D37597DE7597AD7581C075A90057
:101C100043FF80752438752503B1DB7529A5752A26
:101C2000F143F11053A4EFD28475D4FF75E3407DE6
:101C3000FA780379E67C10752200752300901DE880
:101C40007B0675249875250130840281482084081C
:101C5000D8FBD9F9DCF781BA308408D8FBD9F9DC94
:101C6000F781BAB19BE493A3C39A6004DDC381BA40
:101C7000DBDBB18D600281317B08E493FAA3B16EA6
:101C8000DBF87A30B16E752200752300B18DEAFC65
:101C9000EBFDC3ED94FE400EB18D8A278B28ED300D
:101CA000E0048A828B83B18D7AC270D8C3ED94FE32
:101CB000601950CEBD0029EC600F7520007521FF22
:101CC000752900752A000200008100A827A92808AC
:101CD00009D804D90281DDB191EAF281D10D81A642
:101CE000C3ED94035051EDA2E092007AC5C3E582A2
:101CF0009400E583941C508C200010438F02438F86
:101D0000018529B7852AB7F0300027A827A9280818
:101D100009438F01538FFDD804D902A132C3E58353
:101D2000941C4003A3A117E28529B7852AB7F0A325
:101D3000A117538FFC81827AC1BD030CE493A3FAEF
:101D4000B152DCF8B14A81828184AA22AB23B16E00
:101D5000EBFAEA6222752608C3E52313F523E52290
:101D600013F52250066323A0632201D526EAB1DBD6
:101D7000B1DB75260AEAF4200102D284300102C2E6
:101D800084B1DBC3134002C201D526EB22B191EA34
:101D9000FB208402A191308402A196752608AE240E
:101DA000AF25C3EF13FFEE13FEB1DFB1DBC3EA13C0
:101DB0003084024480FA30E703632201C3E5231331
:101DC000F523E52213F52250066323A0632201D5F3
:101DD00026D9E52265236523F52222AE24AF250E00
:101DE0000FDEFEDFFCD20122424C48656C693437BD
:061DF0003164E8B10601B8
:00000001FF
