:020000040000FA
:060000000219FD0202F5E9
:030013000204E400
:03001B0002008D53
:03002B000202BA14
:03005B000204F3A9
:030073000202E2A4
:100080000406080C10182030406080A0C0C2AFC227
:10009000A853E6EFC28E85698BC0D0D2D3C0E0C032
:1000A000F0C2CAA8CCA9CDD2CAD2AF758A00C3E823
:1000B000956AF8E9956BF9C3E913F9E813F8E56473
:1000C0006007C3E913F9E813F8E97025E8956C4077
:1000D00020956C501CE582B410177C007B007A00E0
:1000E0007908900000A868E5647004C3E813F8017B
:1000F000FA900000D2A8D2AA619FE0FDC39CC398E9
:1001000040EF98EB33FB0582E0FCC39DC39840E1D0
:1001100098EB33FB0582E0FDC39CC39840D398EB7A
:1001200033FB0582E0FCC39DC39840C598EB33FBCD
:100130000582E0FDC39CC39840B798EB33FB058272
:10014000E0FCC39DC39840A998EB33FB0582E0FD1A
:10015000C39CC398409B98EB33FB0582E0FCC39D96
:10016000C398408D98EB33FB05822175900000D237
:10017000A8D2AA619FE0FDC39CC39840EF98EA33E0
:10018000FA0582E0FCC39DC39840E198EA33FA0582
:1001900082E0FDC39CC39840D398EA33FA0582E01D
:1001A000FCC39DC39840C598EA33FA0582E0FDC3BD
:1001B0009CC39840B798EA33FA0582E0FCC39DC31C
:1001C0009840A998EA33FA0582E0FDC39CC39840A1
:1001D0009B98EA33FA0582E0FCC39DC398408D9852
:1001E000EA33FA0582EBC46B6A54F0F9EAC454F0BE
:1001F000C3996009900000D2A8D2AA619FEBF4C411
:1002000054F0F9EAF4C4540E49FAEBF4C4540FFB69
:10021000C3EA9460FAEB9400FB50067B007A007905
:1002200000303A27C3EA94D0F8EB9407F9400BE882
:10023000FAE9FB203509D235413F303502C235207D
:100240003902B235C3EA33FAEB33FBEB2B3B3BF914
:10025000C3EB13FBEA13FAEA29FAEB3400FB30E3B1
:10026000047AFF7BFFE5255403601B202A18E55B19
:1002700033F9EB7007C3E99A4002E9FAE53CC4336D
:100280002AFAEB3400FBC3EA33C4540FF8EB33C44F
:1002900054F048F87005EA60027801C3EB13FBEAFA
:1002A00013FA900000D2A8D2AAE52260021522819A
:1002B00083900000D2A8D2AA619FC0D0C0E0C2CF74
:1002C0000541E52360021523C3E55260057553001F
:1002D00041DDE5532401F55350037553FFD0E0D0C1
:1002E000D032C2AF53E67F7592FA7593FFC22053A6
:1002F000917FD2AF32C0E0E58A30340885698BF057
:10030000A3D0E032D0E0C2AF53E6EFC0D0C0E0C02F
:10031000F0D2D3D2AF5388EFA88AA98C758A007522
:100320008C0043881030331FE8C4540FFAE9C454DA
:10033000F04AFAC3132AFAC3E833F8E933F9E82A92
:10034000FAE93403FB619030320FC3E833E933FA42
:10035000E82AFAE93400FB6190303115E875F0566F
:10036000A4AAF0E975F056A42AFAC5F03400FB619E
:1003700090E875F02BA4AAF0E975F02BA42AFAC531
:10038000F03400C313FBEA13FAC3EB13FBEA13FACE
:10039000C3EB94095009C3EA949AEB9403501605F1
:1003A00022E52270021522C3E5229432500281D741
:1003B00075520081DAE522600215223036067C0093
:1003C0007D0461CFAC31AD32303A04AC33AD34C3CF
:1003D000EA9CFAEB9DFB9208AE5EAF5F303A42506A
:1003E00007203509D23561ED303502C2353035048C
:1003F000AE60AF61203902B235C3EA33FAEB33FBAA
:10040000A208500AEAF42401FAEBF43400FBC3EA30
:100410009428FAEB9400FB501478007A007B00815A
:100420002DA208500878007A007B008183E52554CE
:10043000036019202A16E55BF9EB7007C3E99A40BF
:1004400002E9FAE53CC42AFAEB3400FBEA8EF0A498
:10045000F9AAF0EB8EF0A42AFAC5F03400FBC3EB46
:1004600013FDEA13F80FEF146004C3E833F8C3E98F
:1004700033EA33FAEB33FBDFEDEB30E20678FF7A59
:10048000FF7B038852D230E86003755300C3E559FF
:10049000FC955A4002AC5AC3EC95525008EC75F0EA
:1004A00004A4FAABF0EAF4F8EBF45403F9C3E894CB
:1004B0005AFAE99400FB50047A007B00885489556D
:1004C0008A568B5775230AD0F0D0E0D0D053F7DF8F
:1004D00043F74043E6103275230AD0F0D0E0D0D085
:1004E00043E61032C2AAD28EC2CA85CC6A85CD6BD1
:1004F000D2CA32C2AFC0D0C0E0D2D3A8F9E55830DA
:10050000E10AE5FA20E13520E032A114E5FA30E114
:100510002B20E028C3E55513F8E55413F5E988EAE4
:10052000C3E55713F8E55613F5FB88FC855558537A
:10053000F7BFD2A8303402D2AA53E6EF53F7DFD088
:10054000E0D0D0D2AF327901801479038010790ADB
:10055000800C791E80087964800479C8800078173F
:10056000E4D5E0FDD8FAD9F62278FF20282879A131
:10057000E76023E548601F74FF8548F084853FF0FD
:1005800030290375F005A4F8C5F0600278FFC3E8D0
:10059000955B5002A85B885A22C3E54794E4E5487E
:1005A0009400E55A500314A1AA046002F55A22757A
:1005B000E89022055CC3E55C9408405330EDF4A854
:1005C000BDA9BE755C00E9FA79A0E76041EA700652
:1005D000E55D6018800CC3E8955D600EE55D500533
:1005E000600A1480070460FA8002E55DF55DC3953A
:1005F00067401B7559C0C394044013755980C39458
:1006000004400B755940C39404400375590022E51A
:10061000592410500274FFF55922743279A687F0DC
:10062000A4C5F0A2F733F8C3E895594002A8598849
:100630005B227547007548F022C2AFC2CAA8CCA998
:10064000CDAA4130CF010AD2CAD2AFAB42AC438867
:10065000428943C3E89BF8E99C202808F9302C0222
:10066000E149C1A2AD448A44F9EA9DFA600678FFE7
:1006700079FFC187AE45AF468B458C46A842A9435A
:10068000C3E89EF8E99FF9C3E54813FBE54713FA71
:10069000E82AF547E93BF54850067547FF7548FFDE
:1006A000C1EFAA47AB48AC47AD487E047F02C3EB1D
:1006B0009404400D1E1FC3EB940840052029021E20
:1006C0001FC3ED13FDEC13FCDEF7C3EA9CFAEB9DB0
:1006D000FBEF6009C3E913F9E813F8DFF7EA28FA3A
:1006E000EB39FB8A478B4850067BFF8B478B48C30F
:1006F000EB94025002D22C3028047F03E11A789246
:10070000E6FFC3E53D948240110FC3E53D94A04050
:10071000010FC3EF940640027F057E02E548C454F2
:100720000FF9E548C454F0F8E547C4540F28F8C35E
:10073000E89EFAE99400FB4009C3EA9401EB9400B7
:1007400050047A01E4FB020795AA47AB48EBC4FECC
:10075000EAC4540F4EFCC3EA9CFAEB9400FBC3E8D6
:1007600013C313F8EA28FAEB3400FB8A478B48C31B
:10077000EB94024002C22C7802EBC4FE7B00EAC478
:10078000540F4EFAC3EA98FA4005C3940150027A16
:10079000017892E6FF302002E195854E92854F93D5
:1007A000D22043E680C3E49AF8E49BF9302C03029C
:1007B0000823E8FAE9FBD3E913FDE813FC884E8926
:1007C0004FC3EF94036038EF20E00CE82CF8E93DCC
:1007D000F9ECFAEDFB8013E828F8E939F9C3E824CD
:1007E00001F8E93400F97AFF7BFFC3EF9403400F6F
:1007F0008A508B51884A894B8C4C8D4D0208588801
:100800005089518A4A8B4B8C4C8D4D302812755033
:10081000F07551FF754CF0754DFF754EF0754FFF3B
:10082000020858E8FAD3E813FC884EC3EF9403603B
:1008300021EF20E007E82CF8ECFA0143E828240136
:10084000F87AFFC3EF940340098A50884A8C4C021F
:10085000085888508A4A8C4C3020020158753A0258
:10086000D22043E680E52554036034A847A948C355
:10087000E913F9E813F8C3E913F9E813F830280489
:10088000E92440F9C2AF53E67F759100C3E498F5BF
:1008900094E499F595759104D22043E680D2AF2275
:1008A000D221754900752000302B0375204001BE10
:1008B000D221754900752040302B03752000780146
:1008C0007901202C20E52554036002C2217914E52A
:1008D00048C313700104F8C39414400278143028FC
:1008E00004781B791B202010E549600C302803D5C3
:1008F0003A04D223216511600549E59B5440B52097
:1009000002214F30280908C3E89940011801E52069
:10091000210A08C3E899400201BE01E5C22153E65D
:100920007F759100302C117594007595F8759104C0
:10093000D22043E6800208BEE5487EFFC33340056F
:10094000C3334001FEC3E49E759400F595212DC389
:10095000E5399401500201BE30210201BED80221C6
:100960006301E5C223C2AF53E67F759100855094C1
:10097000855195759104854A92854B93D22043E623
:1009800080D2AFE525540360072029020539801085
:1009900030230D202B0A2021071581158102151304
:1009A0002278003021027801E53D75F007A4F9E5D1
:1009B000F028F5F0E9A2F013A2F113A2F213F53D2D
:1009C000C394785003753D78C3E53D953E400BD206
:1009D00022C295C294C29375D53F30200221DA8598
:1009E0004C92854D93D22043E68022203810C2AF2E
:1009F000D291C29075D533D2AF759F3241BBC2AF91
:100A0000D291C29275D51ED2AF759F3241BB2038AC
:100A100010C2AFC29375D52DC290D2AF759F52410F
:100A2000BBC2AFC29575D52DC292D2AF759F124190
:100A3000BB203810C2AFD290C29275D52DD2AF75FF
:100A40009F128077C2AFD292C29075D52DD2AF756A
:100A50009F528067203810C2AFC29475D51EC292D3
:100A6000D2AF759F328054C2AFC29475D533C29055
:100A7000D2AF759F328044203810C2AFD292C2915B
:100A800075D51ED2AF759F528031C2AFD290C29140
:100A900075D533D2AF759F128021203810C2AFC2F6
:100AA0009575D533C291D2AF759F12800EC2AFC279
:100AB0009375D51EC291D2AF759F52C22222203E9D
:100AC000687A147BC88019203E697A107B8C80106C
:100AD000203E6A7A0D7BB48007203E6B7A0B7BC880
:100AE000303F01227902E4D291D5E0FDD294D5E0E5
:100AF000FDC294D5E0FDC291D5E0FDE920E002D22F
:100B00009530E002D293E562D5E0FDE920E002C233
:100B10009530E002C2937496D5E0FDD9C9EAF8D5C4
:100B2000E0FDD8FBDBBED291227A507C507B057D64
:100B30001480407A327C287B147D2880367A3C7C75
:100B4000B47B047D0A802C7A967C327B027D1E80E9
:100B5000227A647C287B057D0F80187888E614D281
:100B60003C7AC87C327B037D3C80087AC87C507B11
:100B7000057D46303F0122EBF8303C15203D091C35
:100B8000ECB40112B23D800E0CECB43209B23D80DF
:100B9000051CEC70010CECC0E0E8C0E0EDC0E030FA
:100BA0003B0FC291D295E562D5E0FDC295D291800E
:100BB0000DC291D293E562D5E0FDC293D291B23BD2
:100BC000D0E0FDFED0E0F8D0E0FCF97464D5E0FDA3
:100BD000DEF9744BD5E0FDD9F9203BBAD8B8DA017B
:100BE00022DA9422C295C294C293D290D291D29228
:100BF00075D53F22788076FF0876FF0876FF087665
:100C0000FF0876FF0876FF0876050876FF0876016C
:100C1000788C76010876FF0876FF0876FF0876FF65
:100C20000876FF0876030876FF0876FF0876FF0847
:100C3000760A0876F008765B087650087603087620
:100C4000FF0876030876FF08767D0876FF087606AB
:100C50000876010876FF0876FF08760108760122FB
:100C6000FA75F00CA4ABF0EAC333F8740133F9E879
:100C7000C333F8E933F9E8C32BF8E93400F92278F3
:100C800088E6C39403D23A5002C23AC238E630E151
:100C900002D238A23892397886E614900080937890
:100CA000A6F67886E6F53FC394025003753F0278B6
:100CB0009CE6753EFFB40203753EA0B40303753E87
:100CC0008278A0E6F8600674282409D8FCF56778D5
:100CD00096E6916088318932789EE6916088338902
:100CE000347897E691608835893671E42230361180
:100CF0007A007B007CFF7D007E00B1538B5F8A5EB3
:100D000022303A227896E6FA7B00789EE6FC7D0057
:100D1000C3EA33FAEB33FBC3EC33FCED33FD7E0A5D
:100D2000B1538B618A607896303A02789EE6FA7BFE
:100D3000007897E6FC7D007E00303A10C3EA33FA73
:100D4000EB33FBC3EC33FCED33FD7E0AB1538B5F19
:100D50008A5E22C3EC9EFCED9400FDC3EC9AFCED90
:100D60009BFDC3EC9423ED940050047C237D00C3D1
:100D7000EC94FFED940140047CFF7D017BFF0B7A36
:100D8000000AEA7009C3EC33FCED33FDA17EEC8A66
:100D9000F0A4AEF0ED8AF0A42E947C40E4EAF46076
:100DA000DD22D23691ED1205521205527A007B00F7
:100DB0007C1012054AE5522AFA74003BFBDCF37CF6
:100DC00004C3EB13FBEA13FADCF7FFEB60027FFFCF
:100DD000C23691ED2278A5E6F954037000E9540C6F
:100DE0007000E954307000E954C07000227ADC7B56
:100DF000367C02C1BD7A327B367C02C1BD7A667B0D
:100E00005A7C02C1BD7A3A7B1D7C02C1BD7A3E7B11
:100E1000047C02C1BD7AA47B067C03C1BD7A467BFB
:100E2000557C03C1BD7ADE7B6E7C02C1BD7A847BBA
:100E30002B7C03C1BD7A847B1D7C02C1BD7A587BAB
:100E4000AC7C02C1BD7A587B147C0380707A627BD3
:100E50006E7C0280687A2D7B6E7C0280607A5E7B7D
:100E6000967C0280587A417BB67C0180507A467B22
:100E70007D7C0380487A457B9B7C0180407A497B5E
:100E80008C7C0180387A927B8C7C0180307A4E7B1E
:100E9000797C0180287A527B677C0180207AA47B50
:100EA000677C0180187A577B567C0180107AC47B5E
:100EB000377C0180087A587B377C018000ECC0E0E9
:100EC000C291D295E562D5E0FDC295D291D0E0FC09
:100ED000F9EBFD7817E4D5E0FDD8FAD9F6741ED504
:100EE000E0FDDDF9DAD722120552740220310E043A
:100EF00020320A04203306042034027401C0E05179
:100F0000BE120556D0E0D5E0F42230341EE56CC3A5
:100F1000941E400C941E4002801151D051D0800B81
:100F200051C751C712055651D051D012055651D94B
:100F300051D9227565007566007597DE7597AD7598
:100F400081C043FF8075EF0675A90071E47580FFCD
:100F500075F1D175A4007580FF75D4FF7590077584
:100F6000F23F75A53F75900775D53F75A60175E3EE
:100F70004075E20271E4E4F8F6D8FD71F412154709
:100F800078988662753001C2AF12055AB1D5120544
:100F90005A12055AE562147005D23F021125C23F6C
:100FA000945914603B14600C14605C1460030211CB
:100FB000160210E4120552D195120552D195120570
:100FC00056120552D195120556D165120552D1958A
:100FD000120556D1B512055A12055AD155021125DE
:100FE00012055AD125120556D125120556D12512C2
:100FF0000556D12DD135D125120556D12DD1351219
:101000000E25120E25212512055A120EAD12054E7F
:10101000120E65120E6512054E120E8D12054E123D
:101020000EA512054E120EAD12054E120E65120ED1
:101030006512054E120E8D12054E120EA512054EAA
:10104000120EAD12054E120E65120E6512054E12ED
:101050000E8D12054E120EA512054E120EAD120582
:101060004E120E65120E6512054E120E8D12054EB1
:10107000120EA512054E120E8512054E120E4D12BD
:10108000054E120E0512054E120E6512054E120E79
:101090008512054E120E4D12054E120E0512054E0A
:1010A000120E6512054E120E8512054E120E4D12CD
:1010B000054E120E0512054E120E6512054E120E49
:1010C0008512054E120E4D12054E120E0512054EDA
:1010D000120E6512054E120EA5120EA512054E1225
:1010E0000E3D8041120E95120E7D120E5D120DFD09
:1010F000120E75120E0D120E1D120E45120E0D124D
:101100000DF5120E6D120E45120DF5120DF5120DA4
:10111000F5120DF5800F120ABE120552120AC712FF
:101120000552120AD0120552C2AF756500756600ED
:1011300078FA79FA308007D9FBD8F7021C00120C34
:101140007F120CED78988662120BE475E4007588C6
:1011500011758E0475890975C80475910475D84098
:1011600075D90875F781759E0375960075DB427514
:10117000DA4275A82175E69075B801759B80759D5A
:101180000075D10C75BC5975BB1075E88075B2013E
:10119000120546D2AF753C00C23012055AC231C2A8
:1011A00032C233C234752200120556C3E522940AB6
:1011B0005002416AD231752200120556C3E52294CD
:1011C0000A5002416AC231D232752200120556C35A
:1011D000E522940A5002416A75E480758851758E43
:1011E000017589AA758C00758D00C2A9D2ABD2AAEF
:1011F0007569C0756814756C50C232D23475220A94
:10120000120556756810C3E522940A405D758E0C70
:10121000756980756828756C2875220A12055675DF
:101220006820C3E522940A4041758E0C7569C0752B
:101230006816756C1775220A120556756817C3E58E
:1012400022940A402575E400758811758E0475890D
:1012500009D2A9C2ABC2AAC234D233752200120588
:1012600056C3E522940A4002212812054A20300381
:10127000021128C2AF120EE7D2AF12055A20340372
:10128000303A0302132C12054A788CE6C3940150BD
:1012900002612CE530C394015002612C7565A5757F
:1012A00066F17F02D236120CED120556C2AFC2367D
:1012B000120CEDC3E552947FD2AF4070120546C2C6
:1012C000AF120AD9D2AFDFDC120DA2C3EF7897F6C6
:1012D00012055AD1347F0AD236120CED120556C2CD
:1012E000AFC236120CEDC3E552947FD2AF50E61276
:1012F0000546C2AF120ABE12054E120ABED2AFDFB9
:10130000D6120DA2EF24037896F6F87997E7C394E6
:10131000234003985006E824237897F612055AB123
:101320008ED163120556120CED02112875650075F9
:101330006600120556C3E55294014002417DC2AFDA
:10134000120556120F0AD2AF12055A753000E4F595
:1013500037F5380537E537F4703F0538789AE67881
:1013600019146012783214600D787D14600878FAD0
:10137000146003753800C3E53898401D120BE41261
:101380000546153875370078998662C2AF120B5141
:10139000D2AF7898866212055612054EE523700288
:1013A0002128C3E552940140AA120556E523700393
:1013B000021128C2AF120BE4E4D2AFE4F55CF524CD
:1013C000F525F53D755C081205461205AF30EDFDBB
:1013D000A8BDA9BEE97001F8885D1205B3755C0867
:1013E000C2AF7559FF12061A855B59855B5AD2AF99
:1013F000303A07C238303502D238D2287539001257
:101400000A77120A9A1206321206391206321206A8
:10141000391206321208B01209A11209EB1206396C
:101420001208A0202C03120569302C031205991212
:1014300009A1120A0E1206391208B01209A1120AE5
:10144000311206391208A01209A1120A54120639E3
:101450001208B01209A1120A771206391205AF124A
:1014600008A01209A1120A9A1205B31206393028EF
:1014700027855B5979187A0CC3E53999400EC22843
:10148000D2298A3B855B59855B5A800CC3E552940F
:10149000014003021414A11B30291F202B1CE53B23
:1014A000147006C229D22A8114F53BC3E552940177
:1014B0004003021414203A028061753C0078FA79E6
:1014C000A4E760027803C3E55398504FE523604BCF
:1014D000303A17203805203507800F303502800A52
:1014E000202B07D22B855B59814478F0302B058562
:1014F0005B597820C3E548985003021414302B1B25
:10150000C22BC238303502D238D229753B12855BE6
:10151000598114053CE5526002A11E753C00C2AF22
:10152000120BE4752400752500D2AF120556120B7C
:10153000E478A4E66006C290C291C292C3E53C94EE
:101540000440022128614E901A0D7820B1C7E52091
:10155000B4550AA3B1C7E520B4AA0280137565A5E6
:101560007566F1120BF4B18E756500756600801D0D
:10157000901A0378807B0AB1C7A308DBFA901A0F90
:10158000788C7B1AB1C7A308DBFA901A2922C2AF64
:10159000D10AB1E7901A007410B1CCA37444B1CC55
:1015A000A37421B1CC901A0378807B0AB1CBA30835
:1015B000DBFA901A0F788C7B1AB1CBA308DBFAD137
:1015C0001DB1FB901A2922E493F622E6438F0153C2
:1015D0008FFDFFC3E583941C400122EF8565B7852D
:1015E00066B7F0538FFE22438F02438F018565B7A4
:1015F0008566B7901A0DF0538FFC22901A0D745522
:10160000B1CC901A0E74AAB1CC227A3079D078205D
:10161000901A40B1C7E520F709A3DAF7227A3079AA
:10162000D0901A40E7B1CC09A3DAF9227C05120563
:101630005ADCFB22C2AF120ABE120AC7120AD0122B
:101640000AD912054E120ABE120AC7120AD0120A8D
:10165000D912054E120ABE120AC7120AD0120AD9AE
:10166000D2AF22C2AF120AD9120AD0120AC7120A86
:10167000BE12054E120AD9120AD0120AC7120ABEA9
:1016800012054E120AD9120AD0120AC7120ABED285
:02169000AF2287
:1019FD00020F33104421FFFFFFFFFFFF05FF01FF23
:101A0D0055AA01FFFFFFFFFF03FFFFFF0AF05B5029
:0D1A1D0003FF03FF7DFF0601FFFF0101FF36
:101A4000234B5F4C5F393023202020202020202092
:101A500023424C48454C492445464D3842313023B9
:101A600031362E36385F546F6E657320202020206B
:101C0000C2AFC2D37597DE7597AD7581C075A90057
:101C100043FF80752438752503B1DB7529A5752A26
:101C2000F143F10153A4FED28075D4FF75E3407DEA
:101C3000FA780379E67C10752200752300901DE880
:101C40007B06752498752501308002814820800824
:101C5000D8FBD9F9DCF781BA308008D8FBD9F9DC98
:101C6000F781BAB19BE493A3C39A6004DDC381BA40
:101C7000DBDBB18D600281317B08E493FAA3B16EA6
:101C8000DBF87A30B16E752200752300B18DEAFC65
:101C9000EBFDC3ED94FE400EB18D8A278B28ED300D
:101CA000E0048A828B83B18D7AC270D8C3ED94FE32
:101CB000601950CEBD0029EC600F7520007521FF22
:101CC000752900752A000200008100A827A92808AC
:101CD00009D804D90281DDB191EAF281D10D81A642
:101CE000C3ED94035051EDA2E092007AC5C3E582A2
:101CF0009400E583941C508C200010438F02438F86
:101D0000018529B7852AB7F0300027A827A9280818
:101D100009438F01538FFDD804D902A132C3E58353
:101D2000941C4003A3A117E28529B7852AB7F0A325
:101D3000A117538FFC81827AC1BD030CE493A3FAEF
:101D4000B152DCF8B14A81828184AA22AB23B16E00
:101D5000EBFAEA6222752608C3E52313F523E52290
:101D600013F52250066323A0632201D526EAB1DBD6
:101D7000B1DB75260AEAF4200102D280300102C2EA
:101D800080B1DBC3134002C201D526EB22B191EA38
:101D9000FB208002A191308002A196752608AE2416
:101DA000AF25C3EF13FFEE13FEB1DFB1DBC3EA13C0
:101DB0003080024480FA30E703632201C3E5231335
:101DC000F523E52213F52250066323A0632201D5F3
:101DD00026D9E52265236523F52222AE24AF250E00
:101DE0000FDEFEDFFCD20122424C48656C693437BD
:061DF0003164E8B10601B8
:00000001FF
