:020000040000FA
:060000000219FD0202F5E9
:030013000204E400
:03001B0002008D53
:03002B000202BA14
:03005B000204F3A9
:030073000202E2A4
:100080000406080C10182030406080A0C0C2AFC227
:10009000A853E6EFC28E85698BC0D0D2D3C0E0C032
:1000A000F0C2CAA8CCA9CDD2CAD2AF758A00C3E823
:1000B000956AF8E9956BF9C3E913F9E813F8E56473
:1000C0006007C3E913F9E813F8E97025E8956C4077
:1000D00020956C501CE582B410177C007B007A00E0
:1000E0007908900000A868E5647004C3E813F8017B
:1000F000FA900000D2A8D2AA619FE0FDC39CC398E9
:1001000040EF98EB33FB0582E0FCC39DC39840E1D0
:1001100098EB33FB0582E0FDC39CC39840D398EB7A
:1001200033FB0582E0FCC39DC39840C598EB33FBCD
:100130000582E0FDC39CC39840B798EB33FB058272
:10014000E0FCC39DC39840A998EB33FB0582E0FD1A
:10015000C39CC398409B98EB33FB0582E0FCC39D96
:10016000C398408D98EB33FB05822175900000D237
:10017000A8D2AA619FE0FDC39CC39840EF98EA33E0
:10018000FA0582E0FCC39DC39840E198EA33FA0582
:1001900082E0FDC39CC39840D398EA33FA0582E01D
:1001A000FCC39DC39840C598EA33FA0582E0FDC3BD
:1001B0009CC39840B798EA33FA0582E0FCC39DC31C
:1001C0009840A998EA33FA0582E0FDC39CC39840A1
:1001D0009B98EA33FA0582E0FCC39DC398408D9852
:1001E000EA33FA0582EBC46B6A54F0F9EAC454F0BE
:1001F000C3996009900000D2A8D2AA619FEBF4C411
:1002000054F0F9EAF4C4540E49FAEBF4C4540FFB69
:10021000C3EA9460FAEB9400FB50067B007A007905
:1002200000303A27C3EA94D0F8EB9407F9400BE882
:10023000FAE9FB203509D235413F303502C235207D
:100240003902B235C3EA33FAEB33FBEB2B3B3BF914
:10025000C3EB13FBEA13FAEA29FAEB3400FB30E3B1
:10026000047AFF7BFFE5255403601B202A18E55B19
:1002700033F9EB7007C3E99A4002E9FAE53CC4336D
:100280002AFAEB3400FBC3EA33C4540FF8EB33C44F
:1002900054F048F87005EA60027801C3EB13FBEAFA
:1002A00013FA900000D2A8D2AAE52260021522819A
:1002B00083900000D2A8D2AA619FC0D0C0E0C2CF74
:1002C0000541E52360021523C3E55260057553001F
:1002D00041DDE5532401F55350037553FFD0E0D0C1
:1002E000D032C2AF53E67F7592FA7593FFC22053A6
:1002F000917FD2AF32C0E0E58A30340885698BF057
:10030000A3D0E032D0E0C2AF53E6EFC0D0C0E0C02F
:10031000F0D2D3D2AF5388EFA88AA98C758A007522
:100320008C0043881030331FE8C4540FFAE9C454DA
:10033000F04AFAC3132AFAC3E833F8E933F9E82A92
:10034000FAE93403FB619030320FC3E833E933FA42
:10035000E82AFAE93400FB6190303115E875F0566F
:10036000A4AAF0E975F056A42AFAC5F03400FB619E
:1003700090E875F02BA4AAF0E975F02BA42AFAC531
:10038000F03400C313FBEA13FAC3EB13FBEA13FACE
:10039000C3EB94095009C3EA949AEB9403501605F1
:1003A00022E52270021522C3E5229432500281D741
:1003B00075520081DAE522600215223036067C0093
:1003C0007D0461CFAC31AD32303A04AC33AD34C3CF
:1003D000EA9CFAEB9DFB9208AE5EAF5F303A42506A
:1003E00007203509D23561ED303502C2353035048C
:1003F000AE60AF61203902B235C3EA33FAEB33FBAA
:10040000A208500AEAF42401FAEBF43400FBC3EA30
:100410009428FAEB9400FB501478007A007B00815A
:100420002DA208500878007A007B008183E52554CE
:10043000036019202A16E55BF9EB7007C3E99A40BF
:1004400002E9FAE53CC42AFAEB3400FBEA8EF0A498
:10045000F9AAF0EB8EF0A42AFAC5F03400FBC3EB46
:1004600013FDEA13F80FEF146004C3E833F8C3E98F
:1004700033EA33FAEB33FBDFEDEB30E20678FF7A59
:10048000FF7B038852D230E86003755300C3E559FF
:10049000FC955A4002AC5AC3EC95525008EC75F0EA
:1004A00004A4FAABF0EAF4F8EBF45403F9C3E894CB
:1004B00005FAE99400FB50047A007B0088548955C2
:1004C0008A568B5775230AD0F0D0E0D0D053F7DF8F
:1004D00043F74043E6103275230AD0F0D0E0D0D085
:1004E00043E61032C2AAD28EC2CA85CC6A85CD6BD1
:1004F000D2CA32C2AFC0D0C0E0D2D3A8F9E55830DA
:10050000E10AE5FA20E13520E032A114E5FA30E114
:100510002B20E028C3E55513F8E55413F5FB88FCC0
:10052000C3E55713F8E55613F5E988EA855558539E
:10053000F7BFD2A8303402D2AA53E6EF53F7DFD088
:10054000E0D0D0D2AF327901801479038010790ADB
:10055000800C791E80087964800479C8800078173F
:10056000E4D5E0FDD8FAD9F62278FF20282879A131
:10057000E76023E548601F74FF8548F084853FF0FD
:1005800030290375F005A4F8C5F0600278FFC3E8D0
:10059000955B5002A85B885A22C3E54794E4E5487E
:1005A0009400E55A500314A1AA046002F55A22757A
:1005B000E89022055CC3E55C9408405330EDF4A854
:1005C000BDA9BE755C00E9FA79A0E76041EA700652
:1005D000E55D6018800CC3E8955D600EE55D500533
:1005E000600A1480070460FA8002E55DF55DC3953A
:1005F00067401B7559C0C394044013755980C39458
:1006000004400B755940C39404400375590022E51A
:10061000592410500274FFF55922743279A687F0DC
:10062000A4C5F0A2F733F8C3E895594002A8598849
:100630005B227547007548F022C2AFC2CAA8CCA998
:10064000CDAA4130CF010AD2CAD2AFAB42AC438867
:10065000428943C3E89BF8E99C202808F9302C0222
:10066000E149C1A2AD448A44F9EA9DFA600678FFE7
:1006700079FFC187AE45AF468B458C46A842A9435A
:10068000C3E89EF8E99FF9C3E54813FBE54713FA71
:10069000E82AF547E93BF54850067547FF7548FFDE
:1006A000C1EFAA47AB48AC47AD487E047F02C3EB1D
:1006B0009404400D1E1FC3EB940840052029021E20
:1006C0001FC3ED13FDEC13FCDEF7C3EA9CFAEB9DB0
:1006D000FBEF6009C3E913F9E813F8DFF7EA28FA3A
:1006E000EB39FB8A478B4850067BFF8B478B48C30F
:1006F000EB94025002D22C3028047F03E11A789246
:10070000E6FFC3E53D948240110FC3E53D94A04050
:10071000010FC3EF940640027F057E02E548C454F2
:100720000FF9E548C454F0F8E547C4540F28F8C35E
:10073000E89EFAE99400FB4009C3EA9401EB9400B7
:1007400050047A01E4FB020795AA47AB48EBC4FECC
:10075000EAC4540F4EFCC3EA9CFAEB9400FBC3E8D6
:1007600013C313F8EA28FAEB3400FB8A478B48C31B
:10077000EB94024002C22C7802EBC4FE7B00EAC478
:10078000540F4EFAC3EA98FA4005C3940150027A16
:10079000017892E6FF302002E195854E92854F93D5
:1007A000D22043E680C3E49AF8E49BF9302C03029C
:1007B0000823E8FAE9FBD3E913FDE813FC884E8926
:1007C0004FC3EF94036038EF20E00CE82CF8E93DCC
:1007D000F9ECFAEDFB8013E828F8E939F9C3E824CD
:1007E00001F8E93400F97AFF7BFFC3EF9403400F6F
:1007F0008A508B51884A894B8C4C8D4D0208588801
:100800005089518A4A8B4B8C4C8D4D302812755033
:10081000F07551FF754CF0754DFF754EF0754FFF3B
:10082000020858E8FAD3E813FC884EC3EF9403603B
:1008300021EF20E007E82CF8ECFA0143E828240136
:10084000F87AFFC3EF940340098A50884A8C4C021F
:10085000085888508A4A8C4C3020020158753A0258
:10086000D22043E680E52554036034A847A948C355
:10087000E913F9E813F8C3E913F9E813F830280489
:10088000E92440F9C2AF53E67F759100C3E498F5BF
:1008900094E499F595759104D22043E680D2AF2275
:1008A000D221754900752000302B0375204001BE10
:1008B000D221754900752040302B03752000780146
:1008C0007901202C20E52554036002C2217914E52A
:1008D00048C313700104F8C39414400278143028FC
:1008E00004781B791B202010E549600C302803D5C3
:1008F0003A04D223216511600549E59B5440B52097
:1009000002214F30280908C3E89940011801E52069
:10091000210A08C3E899400201BE01E5C22153E65D
:100920007F759100302C117594007595F8759104C0
:10093000D22043E6800208BEE5487EFFC33340056F
:10094000C3334001FEC3E49E759400F595212DC389
:10095000E5399401500201BE30210201BED80221C6
:100960006301E5C223C2AF53E67F759100855094C1
:10097000855195759104854A92854B93D22043E623
:1009800080D2AFE525540360072029020539801085
:1009900030230D202B0A2021071581158102151EF9
:1009A0002278003021027801E53D75F007A4F9E5D1
:1009B000F028F5F0E9A2F013A2F113A2F213F53D2D
:1009C000C394785003753D78C3E53D953E400BD206
:1009D00022C291C292C29375D57F30200221DA855E
:1009E0004C92854D93D22043E68022203810C2AF2E
:1009F000C295D29475D537D2AF759F4541BBC2AF72
:100A0000C295D29675D56DD2AF759F4541BB203842
:100A100010C2AFC29375D55BD294D2AF759F6541BA
:100A2000BBC2AFC29175D55BD296D2AF759F7541EF
:100A3000BB203810C2AFC294D29675D55BD2AF75C9
:100A40009F758077C2AFC296D29475D55BD2AF75D1
:100A50009F658067203810C2AFC29275D56DD2965F
:100A6000D2AF759F458054C2AFC29275D537D2942C
:100A7000D2AF759F458044203810C2AFC296D29540
:100A800075D56DD2AF759F658031C2AFC294D295D6
:100A900075D537D2AF759F758021203810C2AFC28F
:100AA0009175D537D295D2AF759F75800EC2AFC202
:100AB0009375D56DD295D2AF759F65C22222203E27
:100AC000687A147BC88019203E697A107B8C80106C
:100AD000203E6A7A0D7BB48007203E6B7A0B7BC880
:100AE000303F01227902E4C295D5E0FDD292D5E0F3
:100AF000FDC292D5E0FDD295D5E0FDE920E002D21D
:100B00009130E002D293E562D5E0FDE920E002C237
:100B10009130E002C2937496D5E0FDD9C9EAF8D5C8
:100B2000E0FDD8FBDBBEC295227A507C507B057D70
:100B30001480407A327C287B147D2880367A3C7C75
:100B4000B47B047D0A802C7A967C327B027D1E80E9
:100B5000227A647C287B057D0F80187888E614D281
:100B60003C7AC87C327B037D3C80087AC87C507B11
:100B7000057D46303F0122EBF8303C15203D091C35
:100B8000ECB40112B23D800E0CECB43209B23D80DF
:100B9000051CEC70010CECC0E0E8C0E0EDC0E030FA
:100BA0003B0FD295D291E562D5E0FDC291C295800E
:100BB0000DD295D293E562D5E0FDC293C295B23BCA
:100BC000D0E0FDFED0E0F8D0E0FCF97464D5E0FDA3
:100BD000DEF9744BD5E0FDD9F9203BBAD8B8DA017B
:100BE00022DA9422C291C292C293C294C295C29652
:100BF00075D57F22788076FF0876FF0876FF087625
:100C0000FF0876FF0876FF0876050876FF0876016C
:100C1000788C76010876FF0876FF0876FF0876FF65
:100C20000876FF0876030876FF0876FF0876FF0847
:100C3000760A0876F008765B087650087603087620
:100C4000FF0876030876FF08767D0876FF087606AB
:100C50000876010876FF0876FF08760108760122FB
:100C6000FA75F00CA4ABF0EAC333F8740133F9E879
:100C7000C333F8E933F9E8C32BF8E93400F92278F3
:100C800088E6C39403D23A5002C23AC238E630E151
:100C900002D238A23892397886E614900080937890
:100CA000A6F67886E6F53FC394025003753F0278B6
:100CB0009CE6753EFFB40203753EA0B40303753E87
:100CC0008278A0E6F8600674282409D8FCF56778D5
:100CD00096E6916088318932789EE6916088338902
:100CE000347897E691608835893671E42230361180
:100CF0007A007B007CFF7D007E00B1538B5F8A5EB3
:100D000022303A227896E6FA7B00789EE6FC7D0057
:100D1000C3EA33FAEB33FBC3EC33FCED33FD7E0A5D
:100D2000B1538B618A607896303A02789EE6FA7BFE
:100D3000007897E6FC7D007E00303A10C3EA33FA73
:100D4000EB33FBC3EC33FCED33FD7E0AB1538B5F19
:100D50008A5E22C3EC9EFCED9400FDC3EC9AFCED90
:100D60009BFDC3EC9423ED940050047C237D00C3D1
:100D7000EC94FFED940140047CFF7D017BFF0B7A36
:100D8000000AEA7009C3EC33FCED33FDA17EEC8A66
:100D9000F0A4AEF0ED8AF0A42E947C40E4EAF46076
:100DA000DD22D23691ED1205521205527A007B00F7
:100DB0007C1012054AE5522AFA74003BFBDCF37CF6
:100DC00004C3EB13FBEA13FADCF7FFEB60027FFFCF
:100DD000C23691ED2278A5E6F95403D2827002C2A0
:100DE00082E9540C7000E954307000E954C070007E
:100DF000227ADC7B367C02C1C17A327B367C02C12E
:100E0000C17A667B5A7C02C1C17A3A7B1D7C02C1E1
:100E1000C17A3E7B047C02C1C17AA47B067C03C1FB
:100E2000C17A467B557C03C1C17ADE7B6E7C02C1F0
:100E3000C17A847B2B7C03C1C17A847B1D7C02C177
:100E4000C17A587BAC7C02C1C17A587B147C038088
:100E5000707A627B6E7C0280687A2D7B6E7C028069
:100E6000607A5E7B967C0280587A417BB67C0180FA
:100E7000507A467B7D7C0380487A457B9B7C018051
:100E8000407A497B8C7C0180387A927B8C7C018013
:100E9000307A4E7B797C0180287A527B677C018096
:100EA000207AA47B677C0180187A577B567C01806E
:100EB000107AC47B377C0180087A587B377C0180AC
:100EC00000ECC0E0D295D291E562D5E0FDC291C2BE
:100ED00095D0E0FCF9EBFD7817E4D5E0FDD8FAD920
:100EE000F6741ED5E0FDDDF9DAD722C28212055272
:100EF000740220310E0420320A0420330604203408
:100F0000027401C0E051BE120556D0E0D5E0F422D3
:100F100030341EE56CC3941E400C941E40028011B8
:100F200051D051D0800B51C751C712055651D051E5
:100F3000D012055651D951D92275650075660075D4
:100F400097DE7597AD7581C043FF8075EF0675A973
:100F50000071E47580FB75F10F75A4047580FB7555
:100F6000D4FF75900075F27E75A57E75900075D5DD
:100F70007F75A60175E34075E20271E4E4F8F6D8E6
:100F8000FD71F412155278988662753001C2AF1265
:100F9000055AB1D512055A12055AE562147005D2E8
:100FA0003F021130D282C23F945914603B14600C4E
:100FB00014605F1460030211210210EF120552D178
:100FC00099120552D199120556120552D19912055E
:100FD00056D169120552D199120556D1B912055A46
:100FE00012055AD15902113012055AD1291205564B
:100FF000D129120556D129120556D131D139120EF7
:1010000029120556120E31120E39120E29120E290E
:10101000213012055A120EB112054E120E69120E2F
:101020006912054E120E9112054E120EA912054EAE
:10103000120EB112054E120E69120E6912054E12F1
:101040000E9112054E120EA912054E120EB1120586
:101050004E120E69120E6912054E120E9112054EB5
:10106000120EA912054E120EB112054E120E691281
:101070000E6912054E120E9112054E120EA912059E
:101080004E120E8912054E120E5112054E120E0905
:1010900012054E120E6912054E120E8912054E12DD
:1010A0000E5112054E120E0912054E120E6912054E
:1010B0004E120E8912054E120E5112054E120E09D5
:1010C00012054E120E6912054E120E8912054E12AD
:1010D0000E5112054E120E0912054E120E6912051E
:1010E0004E120EA9120EA912054E120E4180411287
:1010F0000E99120E81120E61120E01120E79120E4D
:1011000011120E21120E49120E11120DF9120E714A
:10111000120E49120DF9120DF9120DF9120DF98086
:101120000F120ABE120552120AC7120552120AD035
:10113000120552C2AF75650075660078FA79FA300B
:101140008307D9FBD8F7021C00120C7F120CED7834
:10115000988662120BE475E403758811758E047528
:10116000890975C80475910475D84075D90875F753
:1011700081759E0375960275DA4275DB4275A8216A
:1011800075E69075B801759B80759D0075D10C75DD
:10119000BC5975BB1075E88075B201120546D2AF17
:1011A000753C00C23012055AC231C232C233C23459
:1011B000752200120556C3E522940A50024175D2E9
:1011C00031752200120556C3E522940A500241757A
:1011D000C231D232752200120556C3E522940A505C
:1011E00002417575E4B3758851758E017589AA75CC
:1011F0008C00758D00C2A9D2ABD2AA7569C0756882
:1012000014756C50C232D23475220A1205567568B4
:1012100010C3E522940A405D758E0C75698075686F
:1012200028756C2875220A120556756820C3E522B8
:10123000940A4041758E0C7569C0756816756C17F7
:1012400075220A120556756817C3E522940A4025CF
:1012500075E403758811758E04758909D2A9C2AB2E
:10126000C2AAC234D233752200120556C3E52294B5
:101270000A4002213312054A203003021133C2AF63
:10128000120EEBD2AF12055A203403303A03021388
:101290003712054A788CE6C3940150026137E53075
:1012A000C39401500261377565A57566F17F02D25E
:1012B00036120CED120556C2AFC236120CEDC3E564
:1012C00052947FD2AF4070120546C2AF120AD9D2F3
:1012D000AFDFDC120DA2C3EF7897F612055AD13FAB
:1012E0007F0AD236120CED120556C2AFC236120C6E
:1012F000EDC3E552947FD2AF50E6120546C2AF125D
:101300000ABE12054E120ABED2AFDFD6120DA2EFF0
:1013100024037896F6F87997E7C39423400398500E
:1013200006E824237897F612055AB199D16E120572
:1013300056120CED021133756500756600120556E4
:10134000C3E552940140024188C2AF120556120F04
:1013500010D2AF12055A753000E4F537F53805376D
:10136000E537F4703F0538789AE6781914601278FA
:101370003214600D787D14600878FA1460037538B3
:1013800000C3E53898401D120BE412054615387568
:10139000370078998662C2AF120B51D2AF78988627
:1013A0006212055612054EE52370022133C3E55241
:1013B000940140AA120556E5237003021133C2AF0F
:1013C000120BE4E4D2AFE4F55CF524F525F53D75A8
:1013D0005C081205461205AF30EDFDA8BDA9BEE9B7
:1013E0007001F8885D1205B3755C08C2AF7559FFCE
:1013F00012061A855B59855B5AD2AF303A07C2385C
:10140000303502D238D228753900120A77120A9A7A
:10141000120632120639120632120639120632123A
:1014200008B01209A11209EB1206391208A0202CEB
:1014300003120569302C031205991209A1120A0E34
:101440001206391208B01209A1120A311206391215
:1014500008A01209A1120A541206391208B0120982
:10146000A1120A771206391205AF1208A01209A1BB
:10147000120A9A1205B3120639302827855B59796A
:10148000187A0CC3E53999400EC228D2298A3B85C7
:101490005B59855B5A800CC3E552940140030214EA
:1014A0001FA12630291F202B1CE53B147006C229E2
:1014B000D22A811FF53BC3E5529401400302141F59
:1014C000203A028061753C0078FA79A4E7600278DE
:1014D00003C3E55398504FE523604B303A1720384B
:1014E00005203507800F303502800A202B07D22BCC
:1014F000855B59814F78F0302B05855B597820C387
:10150000E54898500302141F302B1BC22BC2383001
:101510003502D238D229753B12855B59811F053CB3
:10152000E5526002A129753C00C2AF120BE475249C
:1015300000752500D2AF120556120BE478A4E660C0
:1015400006D294D295D296C3E53C9404400221334E
:101550006159901A0D7820B1D2E520B4550AA3B193
:10156000D2E520B4AA0280137565A57566F1120B49
:10157000F4B199756500756600801D901A03788036
:101580007B0AB1D2A308DBFA901A0F788C7B1AB1D0
:10159000D2A308DBFA901A2922C2AFD115B1F2907A
:1015A0001A007410B1D7A37444B1D7A37421B1D772
:1015B000901A0378807B0AB1D6A308DBFA901A0F41
:1015C000788C7B1AB1D6A308DBFAD128D106901A01
:1015D0002922E493F622E6438F01538FFDFFC3E5F2
:1015E00083941C400122EF8565B78566B7F0538F61
:1015F000FE22438F02438F018565B78566B7901A37
:101600000DF0538FFC22901A0D7455B1D7901A0E1D
:1016100074AAB1D7227A3079D07820901A40B1D20A
:10162000E520F709A3DAF7227A3079D0901A40E75B
:10163000B1D709A3DAF9227C0512055ADCFB22C2D4
:10164000AF120ABE120AC7120AD0120AD912054EE8
:10165000120ABE120AC7120AD0120AD912054E1275
:101660000ABE120AC7120AD0120AD9D2AF22C2AFDA
:10167000120AD9120AD0120AC7120ABE12054E1255
:101680000AD9120AD0120AC7120ABE12054E120A4D
:0D169000D9120AD0120AC7120ABED2AF2228
:1019FD00020F39104421FFFFFFFFFFFF05FF01FF1D
:101A0D0055AA01FFFFFFFFFF03FFFFFF0AF05B5029
:0D1A1D0003FF03FF7DFF0601FFFF0101FF36
:101A4000234D5F4C5F303523202020202020202094
:101A500023424C48454C492445464D3842313023B9
:101A600031362E36385F546F6E657320202020206B
:101C0000C2AFC2D37597DE7597AD7581C075A90057
:101C100043FF80752438752503B1DB7529A5752A26
:101C2000F143F10853A4F7D28375D4FF75E3407DE7
:101C3000FA780379E67C10752200752300901DE880
:101C40007B0675249875250130830281482083081E
:101C5000D8FBD9F9DCF781BA308308D8FBD9F9DC95
:101C6000F781BAB19BE493A3C39A6004DDC381BA40
:101C7000DBDBB18D600281317B08E493FAA3B16EA6
:101C8000DBF87A30B16E752200752300B18DEAFC65
:101C9000EBFDC3ED94FE400EB18D8A278B28ED300D
:101CA000E0048A828B83B18D7AC270D8C3ED94FE32
:101CB000601950CEBD0029EC600F7520007521FF22
:101CC000752900752A000200008100A827A92808AC
:101CD00009D804D90281DDB191EAF281D10D81A642
:101CE000C3ED94035051EDA2E092007AC5C3E582A2
:101CF0009400E583941C508C200010438F02438F86
:101D0000018529B7852AB7F0300027A827A9280818
:101D100009438F01538FFDD804D902A132C3E58353
:101D2000941C4003A3A117E28529B7852AB7F0A325
:101D3000A117538FFC81827AC1BD030CE493A3FAEF
:101D4000B152DCF8B14A81828184AA22AB23B16E00
:101D5000EBFAEA6222752608C3E52313F523E52290
:101D600013F52250066323A0632201D526EAB1DBD6
:101D7000B1DB75260AEAF4200102D283300102C2E7
:101D800083B1DBC3134002C201D526EB22B191EA35
:101D9000FB208302A191308302A196752608AE2410
:101DA000AF25C3EF13FFEE13FEB1DFB1DBC3EA13C0
:101DB0003083024480FA30E703632201C3E5231332
:101DC000F523E52213F52250066323A0632201D5F3
:101DD00026D9E52265236523F52222AE24AF250E00
:101DE0000FDEFEDFFCD20122424C48656C693437BD
:061DF0003164E8B10601B8
:00000001FF
