:020000040000FA
:060000000219FD020301DC
:03000B0002008D63
:0300130002051AC9
:03001B0002009050
:03002B000202B618
:03005B0002052972
:030073000202EE98
:100080000406080C10182030406080A0C0054032E3
:10009000C2AFC2A853E6EFC28E85698BC0D0D2D35F
:1000A000C0E0C0F0C2CAA8CCA9CDD2CAD2AF758A6E
:1000B00000C3E8956AF8E9956BF9C3E913F9E81309
:1000C000F8E5646007C3E913F9E813F8E97025E877
:1000D000956C4020956C501CE582B410177C007B19
:1000E000007A007908900000A868E5647004C3E80D
:1000F00013F801FD900000D2A8D2AA61CCE0FDC3A4
:100100009CC39840EF98EB33FB0582E0FCC39DC392
:100110009840E198EB33FB0582E0FDC39CC3984017
:10012000D398EB33FB0582E0FCC39DC39840C59890
:10013000EB33FB0582E0FDC39CC39840B798EB33DB
:10014000FB0582E0FCC39DC39840A998EB33FB05F7
:1001500082E0FDC39CC398409B98EB33FB0582E093
:10016000FCC39DC398408D98EB33FB0582217890AA
:100170000000D2A8D2AA61CCE0FDC39CC39840EF96
:1001800098EA33FA0582E0FCC39DC39840E198EAFF
:1001900033FA0582E0FDC39CC39840D398EA33FA52
:1001A0000582E0FCC39DC39840C598EA33FA0582F6
:1001B000E0FDC39CC39840B798EA33FA0582E0FC9F
:1001C000C39DC39840A998EA33FA0582E0FDC39C19
:1001D000C398409B98EA33FA0582E0FCC39DC3981C
:1001E000408D98EA33FA0582EBC46B6A54F0F9EA61
:1001F000C454F0C3996009900000D2A8D2AA61CC7F
:10020000EBF4C454F0F9EAF4C4540E49FAEBF4C424
:10021000540FFBC3EA9460FAEB9400FB50067B009A
:100220007A007900303A27C3EA94D0F8EB9407F9C2
:10023000400BE8FAE9FB203509D23541423035025E
:10024000C235203902B235C3EA33FAEB33FBEB2B6C
:100250003B3BF9C3EB13FBEA13FAEA29FAEB340050
:10026000FB30E3047AFF7BFFE5255403601B202A63
:1002700018E55B33F9EB7007C3E99A4002E9FAE548
:100280003CC4332AFAEB3400FBC3EA33C4540FF8FE
:10029000EB33C454F048F87005EA6002780190002E
:1002A00000D2A8D2AAE5226002152281B9900000EE
:1002B000D2A8D2AA61CCC0D0C0E0C2CF0541E564CB
:1002C0006009E563600575630041E9756301E52335
:1002D00060021523C3E552600575530041E9E553FB
:1002E0002401F55350037553FFD0E0D0D032C2AF94
:1002F00053E67F7592FA7593FFC22053917FD2AF78
:1003000032C0E0E58A30340885698BF0A3D0E03252
:10031000D0E0C2AF53E6EFC0D0C0E0C0F0D2D3D23D
:10032000AF5388EFA88AA98CAA40308D010A758A3C
:1003300000758C00754000438810E564700AC3E8BE
:1003400033F8E933F9EA33FA30331FE8C4540FFACB
:10035000E9C454F04AFAC3132AFAC3E833F8E9337C
:10036000F9E82AFAE93406FB61BD30320FC3E833FD
:10037000E933FAE82AFAE93400FB61BD303115E8C7
:1003800075F056A4AAF0E975F056A42AFAC5F0341F
:1003900000FB61BDC3EA13FAE913F9E813F8E87545
:1003A000F056A4AAF0E975F056A42AFAC5F0340074
:1003B000C313FBEA13FAC3EB13FBEA13FAC3EB9480
:1003C000125009C3EA9434EB940750160522E52233
:1003D00070021522C3E52294325002A10D7552001D
:1003E000A110E522600215223036067C007D0861EE
:1003F000FCAC31AD32303A04AC33AD34C3EA9CFAD4
:10040000EB9DFB9208AE5EAF5F303A42500720355D
:1004100009D235811A303502C235303504AE60AFAD
:1004200061203902B235C3EA33FAEB33FBA208503C
:100430000AEAF42401FAEBF43400FBC3EA9450FA1C
:10044000EB9400FB501478007A007B00815AA208DC
:10045000500878007A007B0081B9E5255403601BC1
:10046000202A18E55B33F9EB7007C3E99A4002E9EB
:10047000FAE53CC4332AFAEB3400FBEA8EF0A4F927
:10048000AAF0EB8EF0A42AFAC5F03400FBC3EB13FC
:10049000FDEA13F8C3ED13FDE813F80FEF14600441
:1004A000C3E833F8C3E933EA33FAEB33FBDFEDEBB0
:1004B00030E30678FF7AFF7B078852D230E860038A
:1004C000755300C3E559FC955A4002AC5AC3EC95EC
:1004D000525008EC75F008A4FAABF0EAF4F8EBF42B
:1004E0005407F9C3E89432FAE99400FB50047A0007
:1004F0007B00885489558A568B5775230AD0F0D0D3
:10050000E0D0D053F7DF43F74043E6103275230ABB
:10051000D0F0D0E0D0D043E61032C2AAD28EC2CA08
:1005200085CC6A85CD6BD2CA32C2AFC0D0C0E0D212
:10053000D3A8F9E55830E20AE5FA20E23520E132A5
:10054000A14AE5FA30E22B20E128C3E55513F8E58E
:100550005413F5FB88FCC3E55713F8E55613F5E98A
:1005600088EA85555853F7BFD2A8303402D2AA532F
:10057000E6EF53F7DFD0E0D0D0D2AF32790180146C
:1005800079038010790A800C791E800879648004D0
:1005900079C880007817E4D5E0FDD8FAD9F622783A
:1005A000FF20282879A1E76023E548601F74FF85B4
:1005B00048F084853FF030290375F005A4F8C5F0B4
:1005C000600278FFC3E8955B5002A85B885A22C39B
:1005D000E54794A0E5489400E55A500314A1E004CF
:1005E0006002F55A2275E89022055CC3E55C940828
:1005F000405330EDF4A8BDA9BE755C00E9FA79A0BE
:10060000E76041EA7006E55D6018800CC3E8955D1F
:10061000600EE55D5005600A1480070460FA8002F0
:10062000E55DF55DC39567401B7559C0C3940440F3
:1006300013755980C39404400B755940C39404400A
:100640000375590022E5592410500274FFF5592210
:10065000743279A687F0A4C5F0A2F733F8C3E89501
:10066000594002A859885B227547007548F022C29C
:10067000AFC2CAA8CCA9CDAA4130CF010AD2CAD2F2
:10068000AFC3EA13FAE913F9E813F8AB42AC4388B5
:10069000428943C3E89BF8E99C20280A547FF9303B
:1006A0002C02E18DC1E6AD448A44F9EA9D547FFAFB
:1006B000600678FF79FFC1CBAE45AF468B458C46CF
:1006C000A842A943C3E89EF8E99FF9C3E54813FB94
:1006D000E54713FAE82AF547E93BF5485006754720
:1006E000FF7548FFE133AA47AB48AC47AD487E04ED
:1006F0007F02C3EB9404400D1E1FC3EB940840051A
:100700002029021E1FC3ED13FDEC13FCDEF7C3EA24
:100710009CFAEB9DFBEF6009C3E913F9E813F8DFDE
:10072000F7EA28FAEB39FB8A478B4850067BFF8BA8
:10073000478B48C3EB94025002D22C3028047F032D
:10074000E15E7892E6FFC3E53D948240110FC3E578
:100750003D94A040010FC3EF940640027F057E0246
:10076000E548C4540FF9E548C454F0F8E547C454CB
:100770000F28F8C3E89EFAE99400FB4009C3EA9405
:1007800001EB940050047A01E4FB0207D9AA47ABBD
:1007900048EBC4FEEAC4540F4EFCC3EA9CFAEB9447
:1007A00000FBC3E813C313F8EA28FAEB3400FB8A12
:1007B000478B48C3EB94024002C22C7802EBC4FE84
:1007C0007B00EAC4540F4EFAC3EA98FA4005C3947A
:1007D0000150027A017892E6FF302002E1D9854E7D
:1007E00092854F93D22043E680C3E49AF8E49BF9C4
:1007F000C3E833F8E933F9302C0302086EE8FAE96C
:10080000FBD3E913FDE813FC884E894FC3EF940333
:100810006038EF20E00CE82CF8E93DF9ECFAEDFB4C
:100820008013E828F8E939F9C3E82401F8E934002D
:10083000F97AFF7BFFC3EF9403400F8A508B5188F6
:100840004A894B8C4C8D4D0208A3885089518A4AA5
:100850008B4B8C4C8D4D3028127550F07551FF75B7
:100860004CF0754DFF754EF0754FFF0208A3E8FA86
:10087000D3E813FC884EC3EF94036021EF20E00718
:10088000E82CF8ECFA018EE8282401F87AFFC3EF8F
:10089000940340098A50884A8C4C0208A388508AE5
:1008A0004A8C4C30200201A3753A02D22043E680E4
:1008B000E5255403602DA847A948C3E913F9E813B7
:1008C000F8302804E92440F9C2AF53E67F7591005F
:1008D000C3E498F594E499F595759104D22043E624
:1008E00080D2AF22D221754900752000302B0375CC
:1008F00020402102D221754900752040302B03751C
:10090000200078017901202C20E52554036002C2E3
:10091000217914E548C313700104F8C3941440020C
:100920007814302804781B791BC3E833F8C3E93303
:10093000F9202010E549600C302803D53A04D22371
:1009400021B611AB0549E59BF45440B5200221A026
:1009500030280908C3E899400118213120210A08EC
:10096000C3E899400221022131C22153E67F7591EB
:1009700000302C117594007595F0759104D22043C8
:10098000E680020902E5487EFFC3334009C33340D5
:1009900005C3334001FEC3E49E759400F595217AAA
:1009A000C3E5399401500221023021022102D8020C
:1009B00021B42131C223C2AF53E67F759100855027
:1009C00094855195759104854A92854B93D2204325
:1009D000E680D2AFE525540360072029020539805F
:1009E0001030230D202B0A202107158115810215B7
:1009F000972278003021027801E53D75F007A4F9CF
:100A0000E5F028F5F0E9A2F013A2F113A2F213F534
:100A10003DC394785003753D78C3E53D953E400B4A
:100A2000D222C290C292C29475D53F302002412B8F
:100A3000854C92854D93D22043E68022203810C207
:100A4000AFD293C29175D50FD2AF759F03610CC21F
:100A5000AFD293C29575D53CD2AF759F03610C2080
:100A60003810C2AFC29475D533C291D2AF759F13FF
:100A7000610CC2AFC29075D533C295D2AF759F23BA
:100A8000610C203810C2AFD291C29575D533D2AF68
:100A9000759F238077C2AFD295C29175D533D2AFFF
:100AA000759F138067203810C2AFC29275D53CC2C3
:100AB00095D2AF759F038054C2AFC29275D50FC255
:100AC00091D2AF759F038044203810C2AFD295C237
:100AD0009375D53CD2AF759F138031C2AFD291C20E
:100AE0009375D50FD2AF759F238021203810C2AFE8
:100AF000C29075D50FC293D2AF759F23800EC2AF3F
:100B0000C29475D53CC293D2AF759F13C2222220E6
:100B10003E687A147BC88019203E697A107B8C80ED
:100B200010203E6A7A0D7BB48007203E6B7A0B7BE7
:100B3000C8303F01227902E4D293D5E0FDD292D5AC
:100B4000E0FDC292D5E0FDC293D5E0FDE920E002D0
:100B5000D29030E002D294E562D5E0FDE920E002D7
:100B6000C29030E002C2947496D5E0FDD9C9EAF88B
:100B7000D5E0FDD8FBDBBED293227A507C507B05BA
:100B80007D1480407A327C287B147D2880367A3C24
:100B90007CB47B047D0A802C7A967C327B027D1E9D
:100BA00080227A647C287B057D0F80187888E61483
:100BB000D23C7AC87C327B037D3C80087AC87C506A
:100BC0007B057D46303F0122EBF8303C15203D0986
:100BD0001CECB40112B23D800E0CECB43209B23DF3
:100BE00080051CEC70010CECC0E0E8C0E0EDC0E05A
:100BF000303B0FC293D290E562D5E0FDC290D29314
:100C0000800DC293D294E562D5E0FDC294D293B236
:100C10003BD0E0FDFED0E0F8D0E0FCF97464D5E014
:100C2000FDDEF9744BD5E0FDD9F9203BBAD8B8DA2E
:100C30000122DA9422C290C292C294D291D293D26B
:100C40009575D53F22788076FF0876FF0876FF08F5
:100C500076FF0876FF0876FF0876050876FF0876A7
:100C600001788C76010876FF0876FF0876FF087613
:100C7000FF0876FF0876030876FF0876FF0876FF00
:100C800008760A0876F008765B087650087603083E
:100C900076FF0876030876FF08767D0876FF0876EB
:100CA000060876010876FF0876FF087601087601C7
:100CB00022FA75F00CA4ABF0EAC333F8740133F9EF
:100CC000E8C333F8E933F9E8C32BF8E93400F9E86D
:100CD000C333F8E933F9227888E6C39403D23A5053
:100CE00002C23AC238E630E102D238A238923978EC
:100CF00086E6149000809378A6F67886E6F53FC3E2
:100D000094025003753F02789CE6753EFFB40203DF
:100D1000753EA0B40303753E8278A0E6F8600674C1
:100D2000282409D8FCF5677896E691B18831893294
:100D3000789EE691B1883389347897E691B1883509
:100D400089369135223036117A007B007CFF7D0098
:100D50007E00B1AB8B5F8A5E22303A227896E6FA4B
:100D60007B00789EE6FC7D00C3EA33FAEB33FBC3DD
:100D7000EC33FCED33FD7E0AB1AB8B618A60789673
:100D8000303A02789EE6FA7B007897E6FC7D007E9A
:100D900000303A10C3EA33FAEB33FBC3EC33FCED1B
:100DA00033FD7E0AB1AB8B5F8A5E22C3EC9EFCED05
:100DB0009400FDC3EC9AFCED9BFDC3EC9423ED94F1
:100DC0000050047C237D00C3EC94FFED94014004AB
:100DD0007CFF7D017BFF0B7A000AEA7009C3EC33CC
:100DE000FCED33FDA1D6EC8AF0A4AEF0ED8AF0A4C0
:100DF0002E947C40E4EAF460DD22D236B14512053F
:100E0000881205887A007B007C10120580E5522A42
:100E1000FA74003BFBDCF37C04C3EB13FBEA13FA2C
:100E2000DCF7FFEB60027FFFC236B1452278A5E612
:100E3000F954037000E9540C7000E954307000E973
:100E400054C07000227ADC7B367C02E1157A327B5A
:100E5000367C02E1157A667B5A7C02E1157A3A7B90
:100E60001D7C02E1157A3E7B047C02E1157AA47BAD
:100E7000067C03E1157A467B557C03E1157ADE7B1F
:100E80006E7C02E1157A847B2B7C03E1157A847BEE
:100E90001D7C02E1157A587BAC7C02E1157A587B07
:100EA000147C0380707A627B6E7C0280687A2D7B72
:100EB0006E7C0280607A5E7B967C0280587A417BF1
:100EC000B67C0180507A467B7D7C0380487A457BE6
:100ED0009B7C0180407A497B8C7C0180387A927BB4
:100EE0008C7C0180307A4E7B797C0180287A527B21
:100EF000677C0180207AA47B677C0180187A577B0D
:100F0000567C0180107AC47B377C0180087A587B3C
:100F1000377C018000ECC0E0C293D290E562D5E05E
:100F2000FDC290D293D0E0FCF9EBFD7817E4D5E058
:100F3000FDD8FAD9F6741ED5E0FDDDF9DAD7221214
:100F40000588740220310E0420320A04203306047E
:100F50002034027401C0E0710F12058CD0E0D5E09E
:100F6000F42230341EE56CC3941E400C941E4002E3
:100F7000801171217121800B7118711812058C710B
:100F800021712112058C712A712A227565007566FE
:100F9000007597DE7597AD7581C043FF8075EF06CC
:100FA00075A90091357580FF75F1F075A400758005
:100FB000FF75D4FF75902A75F23F75A53F75902A8D
:100FC00075D53F75A60175E34075E2029135E4F8E9
:100FD000F6D8FD91451215DA78988662753001C20F
:100FE000AF120590D12D120590120590E562147094
:100FF00005D23F02118BC23F945914604114600C1A
:1010000014606A14600302117C02114A12058812EE
:101010000EED120588120EED12058C120588120EC7
:10102000ED12058C120EBD120588120EED12058C04
:10103000120F0D120590120590120EAD218B1205A4
:1010400090120E7D12058C120E7D12058C120E7DF3
:1010500012058C120E85120E8D120E7D12058C1249
:101060000E85120E8D120E7D120E7D218B120590B3
:10107000120F05120584120EBD120EBD1205841248
:101080000EE5120584120EFD120584120F051205DD
:1010900084120EBD120EBD120584120EE5120584D7
:1010A000120EFD120584120F05120584120EBD12D8
:1010B0000EBD120584120EE5120584120EFD1205F6
:1010C00084120F05120584120EBD120EBD12058486
:1010D000120EE5120584120EFD120584120EDD12A9
:1010E0000584120EA5120584120E5D120584120EDF
:1010F000BD120584120EDD120584120EA5120584A0
:10110000120E5D120584120EBD120584120EDD1240
:101110000584120EA5120584120E5D120584120EAE
:10112000BD120584120EDD120584120EA51205846F
:10113000120E5D120584120EBD120584120EFD12F0
:101140000EFD120584120E958041120EED120ED581
:10115000120EB5120E55120ECD120E65120E75122C
:101160000E9D120E65120E4D120EC5120E9D120E20
:101170004D120E4D120E4D120E4D800F120B0F120E
:101180000588120B18120588120B21120588C2AFB0
:1011900075650075660078FA79FA308507D9FBD84D
:1011A000F7021C00120CD7120D4578988662120CBB
:1011B0003575A91375A71075C10075A70075640072
:1011C00075E405758811758E0475890975C80475EF
:1011D000910475D84075D90875F782759E03759688
:1011E0000075DA4275DB4275A82375E69075B80183
:1011F000759B80759D0075D10C75BCB975BB10755C
:10120000E88075B20112057CD2AF753C00C2301285
:101210000590C231C232C233C23475220012058C2D
:10122000C3E522940A500241DFD231752200120533
:101230008CC3E522940A500241DFC231D2327522BA
:101240000012058CC3E522940A500241DF75E4D5F3
:10125000758851758E017589AA758C00758D00C2CF
:10126000A9D2ABD2AA756980756814756C50C23268
:10127000D23475220A12058C756810C3E522940ACF
:10128000405D758E0C756900756828756C2875222F
:101290000A12058C756820C3E522940A4041758EB8
:1012A0000C756950756816756C1775220A12058CD5
:1012B000756817C3E522940A402575E40575881101
:1012C000758E04758909D2A9C2ABC2AAC234D233C1
:1012D00075220012058CC3E522940A4002218E1269
:1012E000058020300302118EC2AF120F3FD2AF1221
:1012F0000590203403303A030213A1120580788C44
:10130000E6C39401500261A1E530C394015002612B
:10131000A17565A57566F17F02D236120D451205DD
:101320008CC2AFC236120D45C3E552947FD2AF4096
:101330007012057CC2AF120B2AD2AFDFDC120DFA9D
:10134000C3EF7897F6120590D1C77F0AD236120DF7
:101350004512058CC2AFC236120D45C3E552947FCB
:10136000D2AF50E612057CC2AF120B0F12058412E9
:101370000B0FD2AFDFD6120DFAEF24037896F6F8F2
:101380007997E7C394234003985006E8242378977D
:10139000F6120590D121D1F612058C120D450211DD
:1013A0008E75650075660012058CC3E55294014088
:1013B0000241F2C2AF12058C120F62D2AF12059039
:1013C000753000E4F537F5380537E537F4703F053B
:1013D00038789AE67819146012783214600D787DA6
:1013E00014600878FA146003753800C3E538984033
:1013F0001D120C3512057C153875370078998662F8
:10140000C2AF120BA2D2AF7898866212058C120579
:1014100084E5237002218EC3E552940140AA12058F
:101420008CE523700302118EC2AF120C35E4D2AFEB
:10143000E4F55CF524F525F53D755C0812057C1294
:1014400005E530EDFDA8BDA9BEE97001F8885D1283
:1014500005E9755C08C2AF7559FF120650855B59E6
:10146000855B5AD2AF75A71075C13075A70075A9F5
:1014700003756401303A07C238303502D238D228B9
:10148000753900120AC8120AEB12066812066F12AA
:10149000066812066F1206681208F41209F2120AA0
:1014A0003C12066F1208E4202C0312059F302C0317
:1014B0001205CF1209F2120A5F12066F1208F41217
:1014C00009F2120A8212066F1208E41209F2120AD5
:1014D000A512066F1208F41209F2120AC812066F5A
:1014E0001205E51208E41209F2120AEB1205E912DC
:1014F000066F302827855B5979187A0CC3E539992E
:10150000400EC228D2298A3B855B59855B5A800CE4
:10151000C3E55294014003021498A19F30291F2073
:101520002B1CE53B147006C229D22A8198F53BC3D7
:10153000E55294014003021498203A028061753C00
:101540000078FA79A4E760027803C3E55398504F16
:10155000E523604B303A17203805203507800F30DF
:101560003502800A202B07D22B855B5981C878F081
:10157000302B05855B597820C3E548985003021449
:1015800098302B1BC22BC238303502D238D2297585
:101590003B12855B598198053CE5526002A1A2751A
:1015A0003C00C2AF120C3575240075250075A913D7
:1015B00075A71075C10075A700756400D2AF12053C
:1015C0008C120C3578A4E66006C291C293C295C312
:1015D000E53C94044002218E61C3901A0D7820D11D
:1015E0005AE520B4550AA3D15AE520B4AA028013C3
:1015F0007565A57566F1120C45D121756500756696
:1016000000801D901A0378807B0AD15AA308DBFA68
:10161000901A0F788C7B1AD15AA308DBFA901A29FA
:1016200022C2AFD19DD17A901A007410D15FA374F9
:1016300044D15FA37421D15F901A0378807B0AD1D3
:101640005EA308DBFA901A0F788C7B1AD15EA30890
:10165000DBFAD1B0D18E901A2922E493F622E64328
:101660008F01538FFDFFC3E583941C400122EF855A
:1016700065B78566B7F0538FFE22438F02438F0113
:101680008565B78566B7901A0DF0538FFC22901AC6
:101690000D7455D15F901A0E74AAD15F227A3079F9
:1016A000D07820901A40D15AE520F709A3DAF72222
:1016B0007A3079D0901A40E7D15F09A3DAF9227C19
:1016C00005120590DCFB22C2AF120B0F120B181291
:1016D0000B21120B2A120584120B0F120B18120B7E
:1016E00021120B2A120584120B0F120B18120B2158
:1016F000120B2AD2AF22C2AF120B2A120B21120BED
:1017000018120B0F120584120B2A120B21120B1840
:10171000120B0F120584120B2A120B21120B181236
:051720000B0FD2AF2207
:1019FD00020F8B104421FFFFFFFFFFFF05FF01FFCB
:101A0D0055AA01FFFFFFFFFF03FFFFFF0AF05B5029
:0D1A1D0003FF03FF7DFF0601FFFF0101FF36
:101A4000234F5F485F323523202020202020202094
:101A500023424C48454C492445464D3842323123B7
:101A600031362E36385F546F6E657320202020206B
:101C0000C2AFC2D37597DE7597AD7581C075A90057
:101C100043FF80752438752503B1DB7529A5752A26
:101C2000F143F12053A4DFD28575D4FF75E3407DE5
:101C3000FA780379E67C10752200752300901DE880
:101C40007B0675249875250130850281482085081A
:101C5000D8FBD9F9DCF781BA308508D8FBD9F9DC93
:101C6000F781BAB19BE493A3C39A6004DDC381BA40
:101C7000DBDBB18D600281317B08E493FAA3B16EA6
:101C8000DBF87A30B16E752200752300B18DEAFC65
:101C9000EBFDC3ED94FE400EB18D8A278B28ED300D
:101CA000E0048A828B83B18D7AC270D8C3ED94FE32
:101CB000601950CEBD0029EC600F7520007521FF22
:101CC000752900752A000200008100A827A92808AC
:101CD00009D804D90281DDB191EAF281D10D81A642
:101CE000C3ED94035051EDA2E092007AC5C3E582A2
:101CF0009400E583941C508C200010438F02438F86
:101D0000018529B7852AB7F0300027A827A9280818
:101D100009438F01538FFDD804D902A132C3E58353
:101D2000941C4003A3A117E28529B7852AB7F0A325
:101D3000A117538FFC81827AC1BD030CE493A3FAEF
:101D4000B152DCF8B14A81828184AA22AB23B16E00
:101D5000EBFAEA6222752608C3E52313F523E52290
:101D600013F52250066323A0632201D526EAB1DBD6
:101D7000B1DB75260AEAF4200102D285300102C2E5
:101D800085B1DBC3134002C201D526EB22B191EA33
:101D9000FB208502A191308502A196752608AE240C
:101DA000AF25C3EF13FFEE13FEB1DFB1DBC3EA13C0
:101DB0003085024480FA30E703632201C3E5231330
:101DC000F523E52213F52250066323A0632201D5F3
:101DD00026D9E52265236523F52222AE24AF250E00
:101DE0000FDEFEDFFCD20122424C48656C693437BD
:061DF0003164E8B20601B7
:00000001FF
