:020000040000FA
:060000000219FD020301DC
:03000B0002008D63
:0300130002051CC7
:03001B0002009050
:03002B000202B618
:03005B0002052B70
:030073000202EE98
:100080000406080C10182030406080A0C0054032E3
:10009000C2AFC2A853E6EFC28E85698BC0D0D2D35F
:1000A000C0E0C0F0C2CAA8CCA9CDD2CAD2AF758A6E
:1000B00000C3E8956AF8E9956BF9C3E913F9E81309
:1000C000F8E5646007C3E913F9E813F8E97025E877
:1000D000956C4020956C501CE582B410177C007B19
:1000E000007A007908900000A868E5647004C3E80D
:1000F00013F801FD900000D2A8D2AA61CCE0FDC3A4
:100100009CC39840EF98EB33FB0582E0FCC39DC392
:100110009840E198EB33FB0582E0FDC39CC3984017
:10012000D398EB33FB0582E0FCC39DC39840C59890
:10013000EB33FB0582E0FDC39CC39840B798EB33DB
:10014000FB0582E0FCC39DC39840A998EB33FB05F7
:1001500082E0FDC39CC398409B98EB33FB0582E093
:10016000FCC39DC398408D98EB33FB0582217890AA
:100170000000D2A8D2AA61CCE0FDC39CC39840EF96
:1001800098EA33FA0582E0FCC39DC39840E198EAFF
:1001900033FA0582E0FDC39CC39840D398EA33FA52
:1001A0000582E0FCC39DC39840C598EA33FA0582F6
:1001B000E0FDC39CC39840B798EA33FA0582E0FC9F
:1001C000C39DC39840A998EA33FA0582E0FDC39C19
:1001D000C398409B98EA33FA0582E0FCC39DC3981C
:1001E000408D98EA33FA0582EBC46B6A54F0F9EA61
:1001F000C454F0C3996009900000D2A8D2AA61CC7F
:10020000EBF4C454F0F9EAF4C4540E49FAEBF4C424
:10021000540FFBC3EA9460FAEB9400FB50067B009A
:100220007A007900303A27C3EA94D0F8EB9407F9C2
:10023000400BE8FAE9FB203509D23541423035025E
:10024000C235203902B235C3EA33FAEB33FBEB2B6C
:100250003B3BF9C3EB13FBEA13FAEA29FAEB340050
:10026000FB30E3047AFF7BFFE5255403601B202A63
:1002700018E55B33F9EB7007C3E99A4002E9FAE548
:100280003CC4332AFAEB3400FBC3EA33C4540FF8FE
:10029000EB33C454F048F87005EA6002780190002E
:1002A00000D2A8D2AAE5226002152281B9900000EE
:1002B000D2A8D2AA61CCC0D0C0E0C2CF0541E564CB
:1002C0006009E563600575630041E9756301E52335
:1002D00060021523C3E552600575530041E9E553FB
:1002E0002401F55350037553FFD0E0D0D032C2AF94
:1002F00053E67F7592FA7593FFC22053917FD2AF78
:1003000032C0E0E58A30340885698BF0A3D0E03252
:10031000D0E0C2AF53E6EFC0D0C0E0C0F0D2D3D23D
:10032000AF5388EFA88AA98CAA40308D010A758A3C
:1003300000758C00754000438810E564700AC3E8BE
:1003400033F8E933F9EA33FA30331FE8C4540FFACB
:10035000E9C454F04AFAC3132AFAC3E833F8E9337C
:10036000F9E82AFAE93406FB61BD30320FC3E833FD
:10037000E933FAE82AFAE93400FB61BD303115E8C7
:1003800075F056A4AAF0E975F056A42AFAC5F0341F
:1003900000FB61BDC3EA13FAE913F9E813F8E87545
:1003A000F056A4AAF0E975F056A42AFAC5F0340074
:1003B000C313FBEA13FAC3EB13FBEA13FAC3EB9480
:1003C000125009C3EA9434EB940750160522E52233
:1003D00070021522C3E52294325002A10F7552001B
:1003E000A112E522600215223036067C007D0861EC
:1003F000FCAC31AD32303A04AC33AD34C3EA9CFAD4
:10040000EB9DFB9208AE5EAF5F303A42500720355D
:1004100009D235811A303502C235303504AE60AFAD
:1004200061203902B235C3EA33FAEB33FBA208503C
:100430000AEAF42401FAEBF43400FBC3EA9450FA1C
:10044000EB9400FB501478007A007B00815AA208DC
:10045000500878007A007B0081B9E5255403601BC1
:10046000202A18E55B33F9EB7007C3E99A4002E9EB
:10047000FAE53CC4332AFAEB3400FBEA8EF0A4F927
:10048000AAF0EB8EF0A42AFAC5F03400FBC3EB13FC
:10049000FDEA13F8C3ED13FDE813F80FEF14600441
:1004A000C3E833F8C3E933EA33FAEB33FBDFEDEBB0
:1004B00030E30678FF7AFF7B078852D230E860038A
:1004C000755300C3E559FC955A4002AC5AC3EC95EC
:1004D000525008EC75F008A4FAABF0EAF4F8EBF42B
:1004E0005407F98854895575230AE55830E210D02D
:1004F000F0D0E0D0D053F7DF43F74043E61032D0DE
:10050000F0D0E0D0D053D8FE43DA0143E610327584
:10051000230AD0F0D0E0D0D043E61032C2AAD28E67
:10052000C2CA85CC6A85CD6BD2CA32C2AFC0D0C038
:10053000E0D2D38554FB8555FC85555853F7BF53FE
:10054000DAFED2A8303402D2AA53E6EF53F7DF53D3
:10055000D8FED0E0D0D0D2AF3279018014790380B8
:1005600010790A800C791E80087964800479C8802B
:10057000007817E4D5E0FDD8FAD9F62278FF2028D4
:100580002879A1E76023E548601F74FF8548F0845F
:10059000853FF030290375F005A4F8C5F0600278B6
:1005A000FFC3E8955B5002A85B885A22C3E54794D5
:1005B000A0E5489400E55A500314A1BD046002F57B
:1005C0005A2275E89022055CC3E55C9408405330DC
:1005D000EDF4A8BDA9BE755C00E9FA79A0E7604119
:1005E000EA7006E55D6018800CC3E8955D600EE575
:1005F0005D5005600A1480070460FA8002E55DF52D
:100600005DC39567401B7559C0C394044013755969
:1006100080C39404400B755940C39404400375593A
:100620000022E5592410500274FFF55922743279E2
:10063000A687F0A4C5F0A2F733F8C3E895594002A5
:10064000A859885B227547007548F022C2AFC2CA1C
:10065000A8CCA9CDAA4130CF010AD2CAD2AFC3EAF1
:1006600013FAE913F9E813F8AB42AC438842894323
:10067000C3E89BF8E99C20280A547FF9302C02E15A
:100680006AC1C3AD448A44F9EA9D547FFA60067892
:10069000FF79FFC1A8AE45AF468B458C46A842A95D
:1006A00043C3E89EF8E99FF9C3E54813FBE5471308
:1006B000FAE82AF547E93BF54850067547FF7548C3
:1006C000FFE110AA47AB48AC47AD487E047F02C3A8
:1006D000EB9404400D1E1FC3EB9408400520290233
:1006E0001E1FC3ED13FDEC13FCDEF7C3EA9CFAEB0F
:1006F0009DFBEF6009C3E913F9E813F8DFF7EA2877
:10070000FAEB39FB8A478B4850067BFF8B478B48B7
:10071000C3EB94025002D22C3028047F03E13B78D3
:1007200092E6FFC3E53D948240110FC3E53D94A0DE
:1007300040010FC3EF940640027F057E02E548C4E6
:10074000540FF9E548C454F0F8E547C4540F28F8AD
:10075000C3E89EFAE99400FB4009C3EA9401EB94D4
:100760000050047A01E4FB0207B6AA47AB48EBC489
:10077000FEEAC4540F4EFCC3EA9CFAEB9400FBC3A0
:10078000E813C313F8EA28FAEB3400FB8A478B48D6
:10079000C3EB94024002C22C7802EBC4FE7B00EA59
:1007A000C4540F4EFAC3EA98FA4005C394015002AC
:1007B0007A017892E6FF302002E1B6854E92854FAD
:1007C00093D22043E680C3E49AF8E49BF9C3E8336C
:1007D000F8E933F9302C0302084BE8FAE9FBD3E9D6
:1007E00013FDE813FC884E894FC3EF94036038EF84
:1007F00020E00CE82CF8E93DF9ECFAEDFB8013E879
:1008000028F8E939F9C3E82401F8E93400F97AFF56
:100810007BFFC3EF9403400F8A508B51884A894B6A
:100820008C4C8D4D020880885089518A4A8B4B8CA4
:100830004C8D4D3028127550F07551FF754CF07588
:100840004DFF754EF0754FFF020880E8FAD3E813AC
:10085000FC884EC3EF94036021EF20E007E82CF8FA
:10086000ECFA016BE8282401F87AFFC3EF94034007
:10087000098A50884A8C4C02088088508A4A8C4CDD
:100880003020020180753A02D22043E680E52554EB
:1008900003602DA847A948C3E913F9E813F83028E5
:1008A00004E92440F9C2AF53E67F759100C3E49890
:1008B000F594E499F595759104D22043E680D2AF82
:1008C00022D221754900752000302B03752040018C
:1008D000DFD221754900752040302B037520007848
:1008E000017901202C20E52554036002C2217914EE
:1008F000E548C313700104F8C3941440027814301F
:100900002804781B791BC3E833F8C3E933F92020A6
:1009100010E549600C302803D53A04D22321931105
:10092000880549E59BF45440B52002217D30280913
:1009300008C3E899400118210E20210A08C3E8994C
:10094000400201DF210EC22153E67F759100302C59
:10095000117594007595F0759104D22043E68002DC
:1009600008DFE5487EFFC3334009C3334005C33386
:100970004001FEC3E49E759400F5952157C3E53907
:100980009401500201DF30210201DFD802219121C0
:100990000EC223C2AF53E67F7591008550948551F6
:1009A00095759104854A92854B93D22043E680D277
:1009B000AFE5255403600720290205398010302354
:1009C0000D202B0A202107158115810215B92278E7
:1009D000003021027801E53D75F007A4F9E5F02823
:1009E000F5F0E9A2F013A2F113A2F213F53DC394BE
:1009F000785003753D78C3E53D953E400BD222D239
:100A000091D293D29575D53F3020024108854C9202
:100A1000854D93D22043E68022203814C2AFD29372
:100A2000C290C291C29575D52FD2AF759F0361193F
:100A3000C2AFD293C294C295C29175D53ED2AF7562
:100A40009F036119203814C2AFD295C29375D53B6C
:100A5000C290C291D2AF759F136119C2AFD291C239
:100A60009375D53BC294C295D2AF759F236119206F
:100A70003814C2AFD291C294C295C29375D53BD2FD
:100A8000AF759F236119C2AFD295C290C291C29334
:100A900075D53BD2AF759F136119203814C2AFD200
:100AA00093C29175D53EC294C295D2AF759F038013
:100AB00068C2AFD293C29575D52FC290C291D2AF02
:100AC000759F038054203814C2AFD295C292C2934E
:100AD000C29175D53ED2AF759F13803DC2AFD29102
:100AE000C292C293C29575D52FD2AF759F2380292C
:100AF000203814C2AFD291C29575D52FC292C2933D
:100B0000D2AF759F238012C2AFD295C29175D53EE8
:100B1000C292C293D2AF759F13C22222203E707A36
:100B2000147BC88019203E717A107B8C8010203E87
:100B3000727A0D7BB48007203E737A0B7BC8303FFE
:100B400001227902E4D293D5E0FDD292C293D5E09E
:100B5000FDD293D5E0FDC292C293D5E0FDE920E03D
:100B600004D290C29130E004D294C295E562D5E0FF
:100B7000FDE920E002D29130E002D2957496D5E0F2
:100B8000FDD9C1EAF8D5E0FDD8FBDBB6D293227AD5
:100B9000507C507B057D1480407A327C287B147D0C
:100BA0002880367A3C7CB47B047D0A802C7A967C43
:100BB000327B027D1E80227A647C287B057D0F803B
:100BC000187888E614D23C7AC87C327B037D3C805E
:100BD000087AC87C507B057D46303F0122EBF83017
:100BE0003C15203D091CECB40112B23D800E0CEC0A
:100BF000B43209B23D80051CEC70010CECC0E0E899
:100C0000C0E0EDC0E0303B13C292C293D290C291DB
:100C1000E562D5E0FDD291D2938011C292C293D207
:100C200094C295E562D5E0FDD295D293B23BD0E077
:100C3000FDFED0E0F8D0E0FCF97464D5E0FDDEF90B
:100C4000744BD5E0FDD9F9203BB2D8B0DA0122DAF5
:100C50008C22D291D293D295D291D293D29575D53E
:100C60003F22788076FF0876FF0876FF0876FF0837
:100C700076FF0876FF0876050876FF087601788CFF
:100C800076010876FF0876FF0876FF0876FF08767B
:100C9000FF0876030876FF0876FF0876FF08760AD5
:100CA0000876F008765B0876500876030876FF0829
:100CB00076030876FF08767D0876FF0876060876C4
:100CC000010876FF0876FF08760108760122FA759A
:100CD000F00CA4ABF0EAC333F8740133F9E8C33382
:100CE000F8E933F9E8C32BF8E93400F9E8C333F83D
:100CF000E933F9227888E6C39403D23A5002C23A23
:100D0000C238E630E102D238A23892397886E61449
:100D10009000809378A6F67886E6F53FC39402505B
:100D200003753F02789CE6753EFFB40203753EA052
:100D3000B40303753E8278A0E6F86006742824099F
:100D4000D8FCF5677896E691CE88318932789EE6B0
:100D500091CE883389347897E691CE88358936915B
:100D600052223036117A007B007CFF7D007E00B17C
:100D7000C88B5F8A5E22303A227896E6FA7B00784A
:100D80009EE6FC7D00C3EA33FAEB33FBC3EC33FC95
:100D9000ED33FD7E0AB1C88B618A607896303A02E5
:100DA000789EE6FA7B007897E6FC7D007E00303A7C
:100DB00010C3EA33FAEB33FBC3EC33FCED33FD7EB7
:100DC0000AB1C88B5F8A5E22C3EC9EFCED9400FDE5
:100DD000C3EC9AFCED9BFDC3EC9423ED940050040E
:100DE0007C237D00C3EC94FFED940140047CFF7DE7
:100DF000017BFF0B7A000AEA7009C3EC33FCED3388
:100E0000FDA1F3EC8AF0A4AEF0ED8AF0A42E947C60
:100E100040E4EAF460DD22D236B1621205651205C3
:100E2000657A007B007C1012055DE5522AFA740099
:100E30003BFBDCF37C04C3EB13FBEA13FADCF7FFA8
:100E4000EB60027FFFC236B1622278A5E6F9540357
:100E50007000E9540C7000E954307000E954C0701F
:100E600000227ADC7B367C02E1327A327B367C02ED
:100E7000E1327A667B5A7C02E1327A3A7B1D7C024F
:100E8000E1327A3E7B047C02E1327AA47B067C0369
:100E9000E1327A467B557C03E1327ADE7B6E7C025E
:100EA000E1327A847B2B7C03E1327A847B1D7C02E5
:100EB000E1327A587BAC7C02E1327A587B147C03B5
:100EC00080707A627B6E7C0280687A2D7B6E7C02F9
:100ED00080607A5E7B967C0280587A417BB67C018A
:100EE00080507A467B7D7C0380487A457B9B7C01E1
:100EF00080407A497B8C7C0180387A927B8C7C01A3
:100F000080307A4E7B797C0180287A527B677C0125
:100F100080207AA47B677C0180187A577B567C01FD
:100F200080107AC47B377C0180087A587B377C013B
:100F30008000ECC0E0C292C293D290C291E562D52B
:100F4000E0FDD291D293D0E0FCF9EBFD7817E4D527
:100F5000E0FDD8FAD9F6741ED5E0FDDDF9DAD3222A
:100F6000120565740220310E0420320A0420330673
:100F7000042034027401C0E0711C120569D0E0D570
:100F8000E0F42230341EE56CC3941E400C941E40E5
:100F9000028011712E712E800B7125712512056949
:100FA000712E712E120569713771372275650075C2
:100FB00066007597DE7597AD7581C043FF8075EF4C
:100FC0000675A90091527580FF75F1F075A4007542
:100FD00080FF75D4FF75902A75F23F75A53F759017
:100FE0002A75D53F75A60175E34075E2029152E47A
:100FF000F8F6D8FD91621216027898866275300173
:10100000C2AF12056D120E4A12056D12056DE56232
:10101000147005D23F0211ADC23F945914604114BF
:10102000600C14606A14600302119E02116C1205B8
:1010300065120F0A120565120F0A1205691205657D
:10104000120F0A120569120EDA120565120F0A1242
:101050000569120F2A12056D12056D120ECA21AD17
:1010600012056D120E9A120569120E9A1205691276
:101070000E9A120569120EA2120EAA120E9A1205EB
:1010800069120EA2120EAA120E9A120E9A21AD1217
:10109000056D120F22120561120EDA120EDA120518
:1010A00061120F02120561120F1A120561120F224E
:1010B000120561120EDA120EDA120561120F021217
:1010C0000561120F1A120561120F22120561120E2C
:1010D000DA120EDA120561120F02120561120F1AEE
:1010E000120561120F22120561120EDA120EDA12C7
:1010F0000561120F02120561120F1A120561120E1C
:10110000FA120561120EC2120561120E7A12056101
:10111000120EDA120561120EFA120561120EC212D7
:101120000561120E7A120561120EDA120561120EB5
:10113000FA120561120EC2120561120E7A120561D1
:10114000120EDA120561120EFA120561120EC212A7
:101150000561120E7A120561120EDA120561120F84
:101160001A120F1A120561120EB28041120F0A12E2
:101170000EF2120ED2120E72120EEA120E82120E1F
:1011800092120EBA120E82120E6A120EE2120EBAEB
:10119000120E6A120E6A120E6A120E6A800F120B7B
:1011A0001C120565120B25120565120B2E12056522
:1011B000C2AF75650075660078FA79FA308507D98F
:1011C000FBD8F7021C00120CF4120D6278988662AC
:1011D000120C5275A91375A71075C10075A700757B
:1011E000640075E405758811758E0475890975C8E4
:1011F0000475910475D84075D90875F783759E00FC
:1012000075960075DA4A75DB0075A82375E690754A
:10121000B801759B80759D0075D10C75BCB975BB07
:101220001075E88075B201120559D2AF753C00C245
:101230003012056DC231C232C233C234752200127F
:101240000569C3E522940A50026101D2317522007A
:10125000120569C3E522940A50026101C231D232FB
:10126000752200120569C3E522940A5002610175D6
:10127000E4D5758851758E017589AA758C00758DB8
:1012800000C2A9D2ABD2AA756980756814756C507A
:10129000C232D23475220A120569756810C3E5227C
:1012A000940A405D758E0C756900756828756C2808
:1012B00075220A120569756820C3E522940A404127
:1012C000758E0C756950756816756C1775220A1243
:1012D0000569756817C3E522940A402575E405750C
:1012E0008811758E04758909D2A9C2ABC2AAC2340D
:1012F000D233752200120569C3E522940A40022107
:10130000B012055D2030030211B0C2AF120F60D2DF
:10131000AF12056D203403303A030213C312055D8A
:10132000788CE6C39401500261C3E530C394015048
:101330000261C37565A57566F17F02D236120D6232
:10134000120569C2AFC236120D62C3E552947FD254
:10135000AF4070120559C2AF120B37D2AFDFDC12AB
:101360000E17C3EF7897F612056DD1EF7F0AD236CC
:10137000120D62120569C2AFC236120D62C3E55288
:10138000947FD2AF50E6120559C2AF120B1C120562
:1013900061120B1CD2AFDFD6120E17EF2403789622
:1013A000F6F87997E7C394234003985006E824237E
:1013B0007897F612056DD149F11E120569120D627A
:1013C0000211B0756500756600120569C3E5529497
:1013D0000140026114C2AF120569120F83D2AF122D
:1013E000056D753000E4F537F5380537E537F470ED
:1013F0003F0538789AE67819146012783214600D37
:10140000787D14600878FA146003753800C3E538F5
:1014100098401D120C5212055915387537007899ED
:101420008662C2AF120BB7D2AF7898866212056996
:10143000120561E523700221B0C3E552940140AA70
:10144000120569E52370030211B0C2AF120C52E419
:10145000D2AFE4F55CF524F525F53D755C08120581
:10146000591205C230EDFDA8BDA9BEE97001F8888A
:101470005D1205C6755C08C2AF7559FF12062D8551
:101480005B59855B5AD2AF75A71075C13075A7003F
:1014900075A903756401303A07C238303502D23875
:1014A000D228753900120AC5120AF0120645120632
:1014B0004C12064512064C1206451208D11209CFED
:1014C000120A1912064C1208C1202C0312057C3096
:1014D0002C031205AC1209CF120A4412064C120852
:1014E000D11209CF120A6F12064C1208C11209CF8D
:1014F000120A9A12064C1208D11209CF120AC5120A
:10150000064C1205C21208C11209CF120AF01205C8
:10151000C612064C302827855B5979187A0CC3E52A
:101520003999400EC228D2298A3B855B59855B5A7E
:10153000800CC3E552940140030214BAA1C13029C2
:101540001F202B1CE53B147006C229D22A81BAF554
:101550003BC3E552940140030214BA203A02806171
:10156000753C0078FA79A4E760027803C3E55398E4
:10157000504FE523604B303A17203805203507805F
:101580000F303502800A202B07D22B855B5981EA68
:1015900078F0302B05855B597820C3E548985003D7
:1015A0000214BA302B1BC22BC238303502D238D2CB
:1015B00029753B12855B5981BA053CE5526002A151
:1015C000C4753C00C2AF120C52752400752500751D
:1015D000A91375A71075C10075A700756400D2AF77
:1015E000120569120C5278A4E6600CC290C291C236
:1015F00092C293C294C295C3E53C9404400221B0C8
:1016000061E5901A0D7820D182E520B4550AA3D166
:1016100082E520B4AA0280137565A57566F1120CE7
:1016200062D149756500756600801D901A03788047
:101630007B0AD182A308DBFA901A0F788C7B1AD12F
:1016400082A308DBFA901A2922C2AFD1C5D1A29099
:101650001A007410D187A37444D187A37421D18751
:10166000901A0378807B0AD186A308DBFA901A0FC0
:10167000788C7B1AD186A308DBFAD1D8D1B6901A20
:101680002922E493F622E6438F01538FFDFFC3E541
:1016900083941C400122EF8565B78566B7F0538FB0
:1016A000FE22438F02438F018565B78566B7901A86
:1016B0000DF0538FFC22901A0D7455D187901A0E9D
:1016C00074AAD187227A3079D07820901A40D182BA
:1016D000E520F709A3DAF7227A3079D0901A40E7AB
:1016E000D18709A3DAF9227C0512056DDCFB22C241
:1016F000AF120B1C120B25120B2E120B37120561A9
:10170000120B1C120B25120B2E120B371205611235
:101710000B1C120B25120B2E120B37D2AF22C2AFAD
:10172000120B37120B2E120B25120B1C1205611215
:101730000B37120B2E120B25120B1C120561120B0C
:0D17400037120B2E120B25120B1CD2AF22FC
:1019FD00020FAC104421FFFFFFFFFFFF05FF01FFAA
:101A0D0055AA01FFFFFFFFFF03FFFFFF0AF05B5029
:0D1A1D0003FF03FF7DFF0601FFFF0101FF36
:101A4000234F5F485F30302320202020202020209B
:101A500023424C48454C492445464D3842323123B7
:101A600031362E36385F546F6E657320202020206B
:101C0000C2AFC2D37597DE7597AD7581C075A90057
:101C100043FF80752438752503B1DB7529A5752A26
:101C2000F143F12053A4DFD28575D4FF75E3407DE5
:101C3000FA780379E67C10752200752300901DE880
:101C40007B0675249875250130850281482085081A
:101C5000D8FBD9F9DCF781BA308508D8FBD9F9DC93
:101C6000F781BAB19BE493A3C39A6004DDC381BA40
:101C7000DBDBB18D600281317B08E493FAA3B16EA6
:101C8000DBF87A30B16E752200752300B18DEAFC65
:101C9000EBFDC3ED94FE400EB18D8A278B28ED300D
:101CA000E0048A828B83B18D7AC270D8C3ED94FE32
:101CB000601950CEBD0029EC600F7520007521FF22
:101CC000752900752A000200008100A827A92808AC
:101CD00009D804D90281DDB191EAF281D10D81A642
:101CE000C3ED94035051EDA2E092007AC5C3E582A2
:101CF0009400E583941C508C200010438F02438F86
:101D0000018529B7852AB7F0300027A827A9280818
:101D100009438F01538FFDD804D902A132C3E58353
:101D2000941C4003A3A117E28529B7852AB7F0A325
:101D3000A117538FFC81827AC1BD030CE493A3FAEF
:101D4000B152DCF8B14A81828184AA22AB23B16E00
:101D5000EBFAEA6222752608C3E52313F523E52290
:101D600013F52250066323A0632201D526EAB1DBD6
:101D7000B1DB75260AEAF4200102D285300102C2E5
:101D800085B1DBC3134002C201D526EB22B191EA33
:101D9000FB208502A191308502A196752608AE240C
:101DA000AF25C3EF13FFEE13FEB1DFB1DBC3EA13C0
:101DB0003085024480FA30E703632201C3E5231330
:101DC000F523E52213F52250066323A0632201D5F3
:101DD00026D9E52265236523F52222AE24AF250E00
:101DE0000FDEFEDFFCD20122424C48656C693437BD
:061DF0003164E8B20601B7
:00000001FF
