:020000040000FA
:060000000219FD0202F5E9
:030013000204E6FE
:03001B0002008D53
:03002B000202BA14
:03005B000204F5A7
:030073000202E2A4
:100080000406080C10182030406080A0C0C2AFC227
:10009000A853E6EFC28E85698BC0D0D2D3C0E0C032
:1000A000F0C2CAA8CCA9CDD2CAD2AF758A00C3E823
:1000B000956AF8E9956BF9C3E913F9E813F8E56473
:1000C0006007C3E913F9E813F8E97025E8956C4077
:1000D00020956C501CE582B410177C007B007A00E0
:1000E0007908900000A868E5647004C3E813F8017B
:1000F000FA900000D2A8D2AA619FE0FDC39CC398E9
:1001000040EF98EB33FB0582E0FCC39DC39840E1D0
:1001100098EB33FB0582E0FDC39CC39840D398EB7A
:1001200033FB0582E0FCC39DC39840C598EB33FBCD
:100130000582E0FDC39CC39840B798EB33FB058272
:10014000E0FCC39DC39840A998EB33FB0582E0FD1A
:10015000C39CC398409B98EB33FB0582E0FCC39D96
:10016000C398408D98EB33FB05822175900000D237
:10017000A8D2AA619FE0FDC39CC39840EF98EA33E0
:10018000FA0582E0FCC39DC39840E198EA33FA0582
:1001900082E0FDC39CC39840D398EA33FA0582E01D
:1001A000FCC39DC39840C598EA33FA0582E0FDC3BD
:1001B0009CC39840B798EA33FA0582E0FCC39DC31C
:1001C0009840A998EA33FA0582E0FDC39CC39840A1
:1001D0009B98EA33FA0582E0FCC39DC398408D9852
:1001E000EA33FA0582EBC46B6A54F0F9EAC454F0BE
:1001F000C3996009900000D2A8D2AA619FEBF4C411
:1002000054F0F9EAF4C4540E49FAEBF4C4540FFB69
:10021000C3EA9460FAEB9400FB50067B007A007905
:1002200000303A27C3EA94D0F8EB9407F9400BE882
:10023000FAE9FB203509D235413F303502C235207D
:100240003902B235C3EA33FAEB33FBEB2B3B3BF914
:10025000C3EB13FBEA13FAEA29FAEB3400FB30E3B1
:10026000047AFF7BFFE5255403601B202A18E55B19
:1002700033F9EB7007C3E99A4002E9FAE53CC4336D
:100280002AFAEB3400FBC3EA33C4540FF8EB33C44F
:1002900054F048F87005EA60027801C3EB13FBEAFA
:1002A00013FA900000D2A8D2AAE52260021522819A
:1002B00083900000D2A8D2AA619FC0D0C0E0C2CF74
:1002C0000541E52360021523C3E55260057553001F
:1002D00041DDE5532401F55350037553FFD0E0D0C1
:1002E000D032C2AF53E67F7592FA7593FFC22053A6
:1002F000917FD2AF32C0E0E58A30340885698BF057
:10030000A3D0E032D0E0C2AF53E6EFC0D0C0E0C02F
:10031000F0D2D3D2AF5388EFA88AA98C758A007522
:100320008C0043881030331FE8C4540FFAE9C454DA
:10033000F04AFAC3132AFAC3E833F8E933F9E82A92
:10034000FAE93403FB619030320FC3E833E933FA42
:10035000E82AFAE93400FB6190303115E875F0566F
:10036000A4AAF0E975F056A42AFAC5F03400FB619E
:1003700090E875F02BA4AAF0E975F02BA42AFAC531
:10038000F03400C313FBEA13FAC3EB13FBEA13FACE
:10039000C3EB94095009C3EA949AEB9403501605F1
:1003A00022E52270021522C3E5229432500281D93F
:1003B00075520081DCE522600215223036067C0091
:1003C0007D0461CFAC31AD32303A04AC33AD34C3CF
:1003D000EA9CFAEB9DFB9208AE5EAF5F303A42506A
:1003E00007203509D23561ED303502C2353035048C
:1003F000AE60AF61203902B235C3EA33FAEB33FBAA
:10040000A208500AEAF42401FAEBF43400FBC3EA30
:100410009428FAEB9400FB501478007A007B00815A
:100420002DA208500878007A007B008183E52554CE
:10043000036019202A16E55BF9EB7007C3E99A40BF
:1004400002E9FAE53CC42AFAEB3400FBEA8EF0A498
:10045000F9AAF0EB8EF0A42AFAC5F03400FBC3EB46
:1004600013FDEA13F80FEF146004C3E833F8C3E98F
:1004700033EA33FAEB33FBDFEDEB30E20678FF7A59
:10048000FF7B038852D230E86003755300C3E559FF
:10049000FC955A4002AC5AC3EC95525008EC75F0EA
:1004A00004A4FAABF0EAF4F8EBF45403F9885489A5
:1004B0005575230AE55830E110D0F0D0E0D0D05384
:1004C000F7DF43F74043E61032D0F0D0E0D0D0530E
:1004D000D8FE43DA0143E6103275230AD0F0D0E0AB
:1004E000D0D043E61032C2AAD28EC2CA85CC6A8569
:1004F000CD6BD2CA32C2AFC0D0C0E0D2D38554FBDC
:100500008555FC85555853F7BF53DAFED2A83034D1
:1005100002D2AA53E6EF53F7DF53D8FED0E0D0D093
:10052000D2AF327901801479038010790A800C7976
:100530001E80087964800479C880007817E4D5E0CB
:10054000FDD8FAD9F62278FF20282879A1E7602380
:10055000E548601F74FF8548F084853FF03029032B
:1005600075F005A4F8C5F0600278FFC3E8955B500C
:1005700002A85B885A22C3E54794E4E5489400E565
:100580005A500314A187046002F55A2275E890229C
:10059000055CC3E55C9408405330EDF4A8BDA9BEEA
:1005A000755C00E9FA79A0E76041EA7006E55D60F4
:1005B00018800CC3E8955D600EE55D5005600A1477
:1005C00080070460FA8002E55DF55DC39567401B16
:1005D0007559C0C394044013755980C39404400BEB
:1005E000755940C39404400375590022E5592410FD
:1005F000500274FFF55922743279A687F0A4C5F031
:10060000A2F733F8C3E895594002A859885B2275D0
:1006100047007548F022C2AFC2CAA8CCA9CDAA41F2
:1006200030CF010AD2CAD2AFAB42AC438842894331
:10063000C3E89BF8E99C202808F9302C02E126C188
:100640007FAD448A44F9EA9DFA600678FF79FFC1DC
:1006500064AE45AF468B458C46A842A943C3E89E8D
:10066000F8E99FF9C3E54813FBE54713FAE82AF5D3
:1006700047E93BF54850067547FF7548FFC1CCAACE
:1006800047AB48AC47AD487E047F02C3EB940440BF
:100690000D1E1FC3EB940840052029021E1FC3ED49
:1006A00013FDEC13FCDEF7C3EA9CFAEB9DFBEF6055
:1006B00009C3E913F9E813F8DFF7EA28FAEB39FB85
:1006C0008A478B4850067BFF8B478B48C3EB9402CD
:1006D0005002D22C3028047F03C1F77892E6FFC382
:1006E000E53D948240110FC3E53D94A040010FC346
:1006F000EF940640027F057E02E548C4540FF9E5F9
:1007000048C454F0F8E547C4540F28F8C3E89EFAEB
:10071000E99400FB4009C3EA9401EB940050047A89
:1007200001E4FB020772AA47AB48EBC4FEEAC454DB
:100730000F4EFCC3EA9CFAEB9400FBC3E813C3130F
:10074000F8EA28FAEB3400FB8A478B48C3EB9402A3
:100750004002C22C7802EBC4FE7B00EAC4540F4E68
:10076000FAC3EA98FA4005C3940150027A017892DC
:10077000E6FF302002E172854E92854F93D22043EE
:10078000E680C3E49AF8E49BF9302C03020800E801
:10079000FAE9FBD3E913FDE813FC884E894FC3EF58
:1007A00094036038EF20E00CE82CF8E93DF9ECFA0E
:1007B000EDFB8013E828F8E939F9C3E82401F8E9EA
:1007C0003400F97AFF7BFFC3EF9403400F8A508B0C
:1007D00051884A894B8C4C8D4D020835885089517F
:1007E0008A4A8B4B8C4C8D4D3028127550F07551C8
:1007F000FF754CF0754DFF754EF0754FFF020835D3
:10080000E8FAD3E813FC884EC3EF94036021EF208D
:10081000E007E82CF8ECFA0120E8282401F87AFF38
:10082000C3EF940340098A50884A8C4C02083588EB
:10083000508A4A8C4C3020020135753A02D220434E
:10084000E680E52554036034A847A948C3E913F9B5
:10085000E813F8C3E913F9E813F8302804E9244051
:10086000F9C2AF53E67F759100C3E498F594E4991B
:10087000F595759104D22043E680D2AF22D221753E
:100880004900752000302B03752040019BD2217553
:100890004900752040302B03752000780179012034
:1008A0002C20E52554036002C2217914E548C313C6
:1008B000700104F8C3941440027814302804781BA3
:1008C000791B202010E549600C302803D53A04D26A
:1008D000232143113D0549E59BF45440B5200221F5
:1008E0002D30280908C3E89940011801C220210AC7
:1008F00008C3E8994002019B01C2C22153E67F75FB
:100900009100302C117594007595F8759104D220E2
:1009100043E68002089BE5487EFFC3334005C333AE
:100920004001FEC3E49E759400F595210BC3E539A3
:1009300094015002019B302102019BD80221410108
:10094000C2C223C2AF53E67F759100855094855192
:1009500095759104854A92854B93D22043E680D2C7
:10096000AFE52554036007202902053980103023A4
:100970000D202B0A2021071581158102153C2278B4
:10098000003021027801E53D75F007A4F9E5F02873
:10099000F5F0E9A2F013A2F113A2F213F53DC3940E
:1009A000785003753D78C3E53D953E400BD222D289
:1009B00091D293D29575D53F30200221B8854C92C3
:1009C000854D93D22043E68022203814C2AFD293C3
:1009D000C290C291C29575D52FD2AF759F0341C900
:1009E000C2AFD293C294C295C29175D53ED2AF75B3
:1009F0009F0341C9203814C2AFD295C29375D53B2D
:100A0000C290C291D2AF759F1341C9C2AFD291C2F9
:100A10009375D53BC294C295D2AF759F2341C9202F
:100A20003814C2AFD291C294C295C29375D53BD24D
:100A3000AF759F2341C9C2AFD295C290C291C293F4
:100A400075D53BD2AF759F1341C9203814C2AFD2C0
:100A500093C29175D53EC294C295D2AF759F038063
:100A600068C2AFD293C29575D52FC290C291D2AF52
:100A7000759F038054203814C2AFD295C292C2939E
:100A8000C29175D53ED2AF759F13803DC2AFD29152
:100A9000C292C293C29575D52FD2AF759F2380297C
:100AA000203814C2AFD291C29575D52FC292C2938D
:100AB000D2AF759F238012C2AFD295C29175D53E39
:100AC000C292C293D2AF759F13C22222203E707A87
:100AD000147BC88019203E717A107B8C8010203ED8
:100AE000727A0D7BB48007203E737A0B7BC8303F4F
:100AF00001227902E4D293D5E0FDD292C293D5E0EF
:100B0000FDD293D5E0FDC292C293D5E0FDE920E08D
:100B100004D290C29130E004D294C295E562D5E04F
:100B2000FDE920E002D29130E002D2957496D5E042
:100B3000FDD9C1EAF8D5E0FDD8FBDBB6D293227A25
:100B4000507C507B057D1480407A327C287B147D5C
:100B50002880367A3C7CB47B047D0A802C7A967C93
:100B6000327B027D1E80227A647C287B057D0F808B
:100B7000187888E614D23C7AC87C327B037D3C80AE
:100B8000087AC87C507B057D46303F0122EBF83067
:100B90003C15203D091CECB40112B23D800E0CEC5A
:100BA000B43209B23D80051CEC70010CECC0E0E8E9
:100BB000C0E0EDC0E0303B13C292C293D290C2912C
:100BC000E562D5E0FDD291D2938011C292C293D258
:100BD00094C295E562D5E0FDD295D293B23BD0E0C8
:100BE000FDFED0E0F8D0E0FCF97464D5E0FDDEF95C
:100BF000744BD5E0FDD9F9203BB2D8B0DA0122DA46
:100C00008C22D291D293D295D291D293D29575D58E
:100C10003F22788076FF0876FF0876FF0876FF0887
:100C200076FF0876FF0876050876FF087601788C4F
:100C300076010876FF0876FF0876FF0876FF0876CB
:100C4000FF0876030876FF0876FF0876FF08760A25
:100C50000876F008765B0876500876030876FF0879
:100C600076030876FF08767D0876FF087606087614
:100C7000010876FF0876FF08760108760122FA75EA
:100C8000F00CA4ABF0EAC333F8740133F9E8C333D2
:100C9000F8E933F9E8C32BF8E93400F9227888E65B
:100CA000C39403D23A5002C23AC238E630E102D2CB
:100CB00038A23892397886E6149000809378A6F6A8
:100CC0007886E6F53FC394025003753F02789CE6B0
:100CD000753EFFB40203753EA0B40303753E8278EF
:100CE000A0E6F8600674282409D8FCF5677896E633
:100CF000917E88318932789EE6917E883389347876
:100D000097E6917E883589369102223036117A0035
:100D10007B007CFF7D007E00B1718B5F8A5E22309C
:100D20003A227896E6FA7B00789EE6FC7D00C3EADC
:100D300033FAEB33FBC3EC33FCED33FD7E0AB171C8
:100D40008B618A607896303A02789EE6FA7B00786A
:100D500097E6FC7D007E00303A10C3EA33FAEB33AD
:100D6000FBC3EC33FCED33FD7E0AB1718B5F8A5E11
:100D700022C3EC9EFCED9400FDC3EC9AFCED9BFDC0
:100D8000C3EC9423ED940050047C237D00C3EC94C9
:100D9000FFED940140047CFF7D017BFF0B7A000A8C
:100DA000EA7009C3EC33FCED33FDA19CEC8AF0A49E
:100DB000AEF0ED8AF0A42E947C40E4EAF460DD22EB
:100DC000D236B10B12052F12052F7A007B007C1052
:100DD000120527E5522AFA74003BFBDCF37C04C3BE
:100DE000EB13FBEA13FADCF7FFEB60027FFFC2367E
:100DF000B10B2278A5E6F954037000E9540C700099
:100E0000E954307000E954C07000227ADC7B367CF3
:100E100002C1DB7A327B367C02C1DB7A667B5A7C8C
:100E200002C1DB7A3A7B1D7C02C1DB7A3E7B047C0B
:100E300002C1DB7AA47B067C03C1DB7A467B557C4E
:100E400003C1DB7ADE7B6E7C02C1DB7A847B2B7C88
:100E500003C1DB7A847B1D7C02C1DB7A587BAC7CCE
:100E600002C1DB7A587B147C0380707A627B6E7CD3
:100E70000280687A2D7B6E7C0280607A5E7B967C35
:100E80000280587A417BB67C0180507A467B7D7C1B
:100E90000380487A457B9B7C0180407A497B8C7C2F
:100EA0000180387A927B8C7C0180307A4E7B797C11
:100EB0000180287A527B677C0180207AA47B677C42
:100EC0000180187A577B567C0180107AC47B377C6E
:100ED0000180087A587B377C018000ECC0E0C29228
:100EE000C293D290C291E562D5E0FDD291D293D067
:100EF000E0FCF9EBFD7817E4D5E0FDD8FAD9F674FB
:100F00001ED5E0FDDDF9DAD32212052F740220315F
:100F10000E0420320A04203306042034027401C077
:100F2000E051CC120533D0E0D5E0F42230341EE598
:100F30006CC3941E400C941E4002801151DE51DEA1
:100F4000800B51D551D512053351DE51DE120533D8
:100F500051E751E7227565007566007597DE759754
:100F6000AD7581C043FF8075EF0675A900910275CC
:100F700080FF75F1F075A4007580FF75D4FF759042
:100F80002A75F23F75A53F75902A75D53F75A60164
:100F900075E34075E2029102E4F8F6D8FD91121271
:100FA000157678988662753001C2AF120537B1F3B5
:100FB000120537120537E562147005D23F02114E53
:100FC000C23F945914603A14600C146063146003B7
:100FD00002113F02110D12052FD1B312052FD1B30B
:100FE00012053312052FD1B3120533D18312052F09
:100FF000D1B3120533D1D3120537120537D173217E
:101000004E120537120E43120533120E43120533EA
:10101000120E43120533120E4B120E53120E4312D0
:101020000533120E4B120E53120E43120E43214E75
:10103000120537120ECB12052B120E83120E8312DD
:10104000052B120EAB12052B120EC312052B120E1E
:10105000CB12052B120E83120E8312052B120EAB30
:1010600012052B120EC312052B120ECB12052B12DA
:101070000E83120E8312052B120EAB12052B120ECD
:10108000C312052B120ECB12052B120E83120E83E8
:1010900012052B120EAB12052B120EC312052B12CA
:1010A0000EA312052B120E6B12052B120E23120526
:1010B0002B120E8312052B120EA312052B120E6B90
:1010C00012052B120E2312052B120E8312052B1262
:1010D0000EA312052B120E6B12052B120E231205F6
:1010E0002B120E8312052B120EA312052B120E6B60
:1010F00012052B120E2312052B120E8312052B1232
:101100000EC3120EC312052B120E5B8041120EB3DA
:10111000120E9B120E7B120E1B120E93120E2B122E
:101120000E3B120E63120E2B120E13120E8B120EAA
:1011300063120E13120E13120E13120E13800F12DF
:101140000ACC12052F120AD512052F120ADE12053B
:101150002FC2AF75650075660078FA79FA30850799
:10116000D9FBD8F7021C00120C9D120D0B78988643
:1011700062120C0275E405758811758E0475890973
:1011800075C80475910475D84075D90875F78275CE
:101190009E0075960075DA4A75DB0075A82175E624
:1011A0009075B801759B80759D0075D10C75BC5903
:1011B00075BB1075E88075B201120523D2AF753C7E
:1011C00000C230120537C231C232C233C234752276
:1011D00000120533C3E522940A50024193D23175BF
:1011E0002200120533C3E522940A50024193C23112
:1011F000D232752200120533C3E522940A5002410F
:101200009375E4D5758851758E017589AA758C0022
:10121000758D00C2A9D2ABD2AA7569C07568147564
:101220006C50C232D23475220A120533756810C36D
:10123000E522940A405D758E0C7569807568287585
:101240006C2875220A120533756820C3E522940ABA
:101250004041758E0C7569C0756816756C177522DE
:101260000A120533756817C3E522940A402575E410
:1012700005758811758E04758909D2A9C2ABC2AAF9
:10128000C234D233752200120533C3E522940A40DA
:10129000022151120527203003021151C2AF120F53
:1012A00009D2AF120537203403303A030213551226
:1012B0000527788CE6C3940150026155E530C3944C
:1012C00001500261557565A57566F17F02D236122F
:1012D0000D0B120533C2AFC236120D0BC3E552948B
:1012E0007FD2AF4070120523C2AF120AE7D2AFDF40
:1012F000DC120DC0C3EF7897F6120537D1637F0A71
:10130000D236120D0B120533C2AFC236120D0BC30B
:10131000E552947FD2AF50E6120523C2AF120ACC39
:1013200012052B120ACCD2AFDFD6120DC0EF240368
:101330007896F6F87997E7C394234003985006E827
:1013400024237897F6120537B1BDD19212053312D6
:101350000D0B021151756500756600120533C3E56A
:10136000529401400241A6C2AF120533120F2CD293
:10137000AF120537753000E4F537F5380537E53736
:10138000F4703F0538789AE67819146012783214B0
:10139000600D787D14600878FA146003753800C316
:1013A000E53898401D120C021205231538753700D8
:1013B00078998662C2AF120B67D2AF7898866212B4
:1013C000053312052BE52370022151C3E552940128
:1013D00040AA120533E5237003021151C2AF120C6B
:1013E00002E4D2AFE4F55CF524F525F53D755C0823
:1013F00012052312058C30EDFDA8BDA9BEE97001D0
:10140000F8885D120590755C08C2AF7559FF12052A
:10141000F7855B59855B5AD2AF303A07C238303511
:1014200002D238D228753900120A75120AA01206A3
:101430000F12061612060F12061612060F12088D4C
:1014400012097F1209C912061612087D202C0312F8
:101450000546302C0312057612097F1209F4120694
:101460001612088D12097F120A1F12061612087D25
:1014700012097F120A4A12061612088D12097F12EB
:101480000A7512061612058C12087D12097F120ABF
:10149000A0120590120616302827855B5979187A14
:1014A0000CC3E53999400EC228D2298A3B855B5985
:1014B000855B5A800CC3E5529401400302143DA1A0
:1014C0004430291F202B1CE53B147006C229D22A68
:1014D000813DF53BC3E5529401400302143D203A9F
:1014E000028061753C0078FA79A4E760027803C352
:1014F000E55398504FE523604B303A1720380520CC
:101500003507800F303502800A202B07D22B855BF0
:1015100059816D78F0302B05855B597820C3E548FB
:1015200098500302143D302B1BC22BC238303502B9
:10153000D238D229753B12855B59813D053CE55275
:101540006002A147753C00C2AF120C027524007501
:101550002500D2AF120533120C0278A4E6600CC24B
:1015600090C291C292C293C294C295C3E53C9404C6
:10157000400221516177901A0D7820B1F6E520B430
:10158000550AA3B1F6E520B4AA0280137565A575C6
:1015900066F1120C12B1BD756500756600801D9074
:1015A0001A0378807B0AB1F6A308DBFA901A0F7849
:1015B0008C7B1AB1F6A308DBFA901A2922C2AFD1AC
:1015C00039D116901A007410B1FBA37444B1FBA377
:1015D0007421B1FB901A0378807B0AB1FAA308DB6F
:1015E000FA901A0F788C7B1AB1FAA308DBFAD14C67
:1015F000D12A901A2922E493F622E6438F01538FD1
:10160000FDFFC3E583941C400122EF8565B7856625
:10161000B7F0538FFE22438F02438F018565B78554
:1016200066B7901A0DF0538FFC22901A0D7455B1C5
:10163000FB901A0E74AAB1FB227A3079D0782090F0
:101640001A40B1F6E520F709A3DAF7227A3079D00B
:10165000901A40E7B1FB09A3DAF9227C051205379D
:10166000DCFB22C2AF120ACC120AD5120ADE120A21
:10167000E712052B120ACC120AD5120ADE120AE76B
:1016800012052B120ACC120AD5120ADE120AE7D270
:10169000AF22C2AF120AE7120ADE120AD5120ACC32
:1016A00012052B120AE7120ADE120AD5120ACC1210
:1016B000052B120AE7120ADE120AD5120ACCD2AFA3
:0116C0002207
:1019FD00020F55104421FFFFFFFFFFFF05FF01FF01
:101A0D0055AA01FFFFFFFFFF03FFFFFF0AF05B5029
:0D1A1D0003FF03FF7DFF0601FFFF0101FF36
:101A4000234F5F4C5F303023202020202020202097
:101A500023424C48454C492445464D3842313023B9
:101A600031362E36385F546F6E657320202020206B
:101C0000C2AFC2D37597DE7597AD7581C075A90057
:101C100043FF80752438752503B1DB7529A5752A26
:101C2000F143F12053A4DFD28575D4FF75E3407DE5
:101C3000FA780379E67C10752200752300901DE880
:101C40007B0675249875250130850281482085081A
:101C5000D8FBD9F9DCF781BA308508D8FBD9F9DC93
:101C6000F781BAB19BE493A3C39A6004DDC381BA40
:101C7000DBDBB18D600281317B08E493FAA3B16EA6
:101C8000DBF87A30B16E752200752300B18DEAFC65
:101C9000EBFDC3ED94FE400EB18D8A278B28ED300D
:101CA000E0048A828B83B18D7AC270D8C3ED94FE32
:101CB000601950CEBD0029EC600F7520007521FF22
:101CC000752900752A000200008100A827A92808AC
:101CD00009D804D90281DDB191EAF281D10D81A642
:101CE000C3ED94035051EDA2E092007AC5C3E582A2
:101CF0009400E583941C508C200010438F02438F86
:101D0000018529B7852AB7F0300027A827A9280818
:101D100009438F01538FFDD804D902A132C3E58353
:101D2000941C4003A3A117E28529B7852AB7F0A325
:101D3000A117538FFC81827AC1BD030CE493A3FAEF
:101D4000B152DCF8B14A81828184AA22AB23B16E00
:101D5000EBFAEA6222752608C3E52313F523E52290
:101D600013F52250066323A0632201D526EAB1DBD6
:101D7000B1DB75260AEAF4200102D285300102C2E5
:101D800085B1DBC3134002C201D526EB22B191EA33
:101D9000FB208502A191308502A196752608AE240C
:101DA000AF25C3EF13FFEE13FEB1DFB1DBC3EA13C0
:101DB0003085024480FA30E703632201C3E5231330
:101DC000F523E52213F52250066323A0632201D5F3
:101DD00026D9E52265236523F52222AE24AF250E00
:101DE0000FDEFEDFFCD20122424C48656C693437BD
:061DF0003164E8B10601B8
:00000001FF
