:020000040000FA
:060000000219FD0202F5E9
:030013000204E6FE
:03001B0002008D53
:03002B000202BA14
:03005B000204F5A7
:030073000202E2A4
:100080000406080C10182030406080A0C0C2AFC227
:10009000A853E6EFC28E85698BC0D0D2D3C0E0C032
:1000A000F0C2CAA8CCA9CDD2CAD2AF758A00C3E823
:1000B000956AF8E9956BF9C3E913F9E813F8E56473
:1000C0006007C3E913F9E813F8E97025E8956C4077
:1000D00020956C501CE582B410177C007B007A00E0
:1000E0007908900000A868E5647004C3E813F8017B
:1000F000FA900000D2A8D2AA619FE0FDC39CC398E9
:1001000040EF98EB33FB0582E0FCC39DC39840E1D0
:1001100098EB33FB0582E0FDC39CC39840D398EB7A
:1001200033FB0582E0FCC39DC39840C598EB33FBCD
:100130000582E0FDC39CC39840B798EB33FB058272
:10014000E0FCC39DC39840A998EB33FB0582E0FD1A
:10015000C39CC398409B98EB33FB0582E0FCC39D96
:10016000C398408D98EB33FB05822175900000D237
:10017000A8D2AA619FE0FDC39CC39840EF98EA33E0
:10018000FA0582E0FCC39DC39840E198EA33FA0582
:1001900082E0FDC39CC39840D398EA33FA0582E01D
:1001A000FCC39DC39840C598EA33FA0582E0FDC3BD
:1001B0009CC39840B798EA33FA0582E0FCC39DC31C
:1001C0009840A998EA33FA0582E0FDC39CC39840A1
:1001D0009B98EA33FA0582E0FCC39DC398408D9852
:1001E000EA33FA0582EBC46B6A54F0F9EAC454F0BE
:1001F000C3996009900000D2A8D2AA619FEBF4C411
:1002000054F0F9EAF4C4540E49FAEBF4C4540FFB69
:10021000C3EA9460FAEB9400FB50067B007A007905
:1002200000303A27C3EA94D0F8EB9407F9400BE882
:10023000FAE9FB203509D235413F303502C235207D
:100240003902B235C3EA33FAEB33FBEB2B3B3BF914
:10025000C3EB13FBEA13FAEA29FAEB3400FB30E3B1
:10026000047AFF7BFFE5255403601B202A18E55B19
:1002700033F9EB7007C3E99A4002E9FAE53CC4336D
:100280002AFAEB3400FBC3EA33C4540FF8EB33C44F
:1002900054F048F87005EA60027801C3EB13FBEAFA
:1002A00013FA900000D2A8D2AAE52260021522819A
:1002B00083900000D2A8D2AA619FC0D0C0E0C2CF74
:1002C0000541E52360021523C3E55260057553001F
:1002D00041DDE5532401F55350037553FFD0E0D0C1
:1002E000D032C2AF53E67F7592FA7593FFC22053A6
:1002F000917FD2AF32C0E0E58A30340885698BF057
:10030000A3D0E032D0E0C2AF53E6EFC0D0C0E0C02F
:10031000F0D2D3D2AF5388EFA88AA98C758A007522
:100320008C0043881030331FE8C4540FFAE9C454DA
:10033000F04AFAC3132AFAC3E833F8E933F9E82A92
:10034000FAE93403FB619030320FC3E833E933FA42
:10035000E82AFAE93400FB6190303115E875F0566F
:10036000A4AAF0E975F056A42AFAC5F03400FB619E
:1003700090E875F02BA4AAF0E975F02BA42AFAC531
:10038000F03400C313FBEA13FAC3EB13FBEA13FACE
:10039000C3EB94095009C3EA949AEB9403501605F1
:1003A00022E52270021522C3E5229432500281D93F
:1003B00075520081DCE522600215223036067C0091
:1003C0007D0461CFAC31AD32303A04AC33AD34C3CF
:1003D000EA9CFAEB9DFB9208AE5EAF5F303A42506A
:1003E00007203509D23561ED303502C2353035048C
:1003F000AE60AF61203902B235C3EA33FAEB33FBAA
:10040000A208500AEAF42401FAEBF43400FBC3EA30
:100410009428FAEB9400FB501478007A007B00815A
:100420002DA208500878007A007B008183E52554CE
:10043000036019202A16E55BF9EB7007C3E99A40BF
:1004400002E9FAE53CC42AFAEB3400FBEA8EF0A498
:10045000F9AAF0EB8EF0A42AFAC5F03400FBC3EB46
:1004600013FDEA13F80FEF146004C3E833F8C3E98F
:1004700033EA33FAEB33FBDFEDEB30E20678FF7A59
:10048000FF7B038852D230E86003755300C3E559FF
:10049000FC955A4002AC5AC3EC95525008EC75F0EA
:1004A00004A4FAABF0EAF4F8EBF45403F9885489A5
:1004B0005575230AE55830E110D0F0D0E0D0D05384
:1004C000F7DF43F74043E61032D0F0D0E0D0D0530E
:1004D000D8FE43DA0143E6103275230AD0F0D0E0AB
:1004E000D0D043E61032C2AAD28EC2CA85CC6A8569
:1004F000CD6BD2CA32C2AFC0D0C0E0D2D38554FBDC
:100500008555FC85555853F7BF53DAFED2A83034D1
:1005100002D2AA53E6EF53F7DF53D8FED0E0D0D093
:10052000D2AF327901801479038010790A800C7976
:100530001E80087964800479C880007817E4D5E0CB
:10054000FDD8FAD9F62278FF20282879A1E7602380
:10055000E548601F74FF8548F084853FF03029032B
:1005600075F005A4F8C5F0600278FFC3E8955B500C
:1005700002A85B885A22C3E54794E4E5489400E565
:100580005A500314A187046002F55A2275E890229C
:10059000055CC3E55C9408405330EDF4A8BDA9BEEA
:1005A000755C00E9FA79A0E76041EA7006E55D60F4
:1005B00018800CC3E8955D600EE55D5005600A1477
:1005C00080070460FA8002E55DF55DC39567401B16
:1005D0007559C0C394044013755980C39404400BEB
:1005E000755940C39404400375590022E5592410FD
:1005F000500274FFF55922743279A687F0A4C5F031
:10060000A2F733F8C3E895594002A859885B2275D0
:1006100047007548F022C2AFC2CAA8CCA9CDAA41F2
:1006200030CF010AD2CAD2AFAB42AC438842894331
:10063000C3E89BF8E99C202808F9302C02E126C188
:100640007FAD448A44F9EA9DFA600678FF79FFC1DC
:1006500064AE45AF468B458C46A842A943C3E89E8D
:10066000F8E99FF9C3E54813FBE54713FAE82AF5D3
:1006700047E93BF54850067547FF7548FFC1CCAACE
:1006800047AB48AC47AD487E047F02C3EB940440BF
:100690000D1E1FC3EB940840052029021E1FC3ED49
:1006A00013FDEC13FCDEF7C3EA9CFAEB9DFBEF6055
:1006B00009C3E913F9E813F8DFF7EA28FAEB39FB85
:1006C0008A478B4850067BFF8B478B48C3EB9402CD
:1006D0005002D22C3028047F03C1F77892E6FFC382
:1006E000E53D948240110FC3E53D94A040010FC346
:1006F000EF940640027F057E02E548C4540FF9E5F9
:1007000048C454F0F8E547C4540F28F8C3E89EFAEB
:10071000E99400FB4009C3EA9401EB940050047A89
:1007200001E4FB020772AA47AB48EBC4FEEAC454DB
:100730000F4EFCC3EA9CFAEB9400FBC3E813C3130F
:10074000F8EA28FAEB3400FB8A478B48C3EB9402A3
:100750004002C22C7802EBC4FE7B00EAC4540F4E68
:10076000FAC3EA98FA4005C3940150027A017892DC
:10077000E6FF302002E172854E92854F93D22043EE
:10078000E680C3E49AF8E49BF9302C03020800E801
:10079000FAE9FBD3E913FDE813FC884E894FC3EF58
:1007A00094036038EF20E00CE82CF8E93DF9ECFA0E
:1007B000EDFB8013E828F8E939F9C3E82401F8E9EA
:1007C0003400F97AFF7BFFC3EF9403400F8A508B0C
:1007D00051884A894B8C4C8D4D020835885089517F
:1007E0008A4A8B4B8C4C8D4D3028127550F07551C8
:1007F000FF754CF0754DFF754EF0754FFF020835D3
:10080000E8FAD3E813FC884EC3EF94036021EF208D
:10081000E007E82CF8ECFA0120E8282401F87AFF38
:10082000C3EF940340098A50884A8C4C02083588EB
:10083000508A4A8C4C3020020135753A02D220434E
:10084000E680E52554036034A847A948C3E913F9B5
:10085000E813F8C3E913F9E813F8302804E9244051
:10086000F9C2AF53E67F759100C3E498F594E4991B
:10087000F595759104D22043E680D2AF22D221753E
:100880004900752000302B03752040019BD2217553
:100890004900752040302B03752000780179012034
:1008A0002C20E52554036002C2217914E548C313C6
:1008B000700104F8C3941440027814302804781BA3
:1008C000791B202010E549600C302803D53A04D26A
:1008D000232142113D0549E5BF5440B52002212C9A
:1008E00030280908C3E89940011801C220210A08EC
:1008F000C3E8994002019B01C2C22153E67F759172
:1009000000302C117594007595F8759104D2204330
:10091000E68002089BE5487EFFC3334005C33340B1
:1009200001FEC3E49E759400F595210AC3E5399450
:10093000015002019B302102019BD802214001C2DB
:10094000C223C2AF53E67F759100855094855195BF
:10095000759104854A92854B93D22043E680D2AFAD
:10096000E525540360072029020539801030230D46
:10097000202B0A2021071581158102157C22780081
:100980003021027801E53D75F007A4F9E5F028F57E
:10099000F0E9A2F013A2F113A2F213F53DC394788B
:1009A0005003753D78C3E53D953E400ED222C2907E
:1009B000C291C29275D4FF75D50730200221BA8545
:1009C0004C92854D93D22043E68022203817C2AF47
:1009D000C291C285D290D29275D47F75D507D2AF1D
:1009E00075AA5341EFC2AFC291C287D292D290751D
:1009F000D4DF75D507D2AF75AA5341EF203817C29F
:100A0000AFC292D29175D4BF75D507C285D290D2AC
:100A1000AF75AA4341EFC2AFC290D29175D4BF75F2
:100A2000D507C287D292D2AF75AA6341EF2038179B
:100A3000C2AFC290C287D292D29175D4BF75D5078A
:100A4000D2AF75AA6341EFC2AFC292C285D290D233
:100A50009175D4BF75D507D2AF75AA4341EF203841
:100A600017C2AFC291D29075D4DF75D507C287D2B5
:100A700092D2AF75AA538077C2AFC291D29275D489
:100A80007F75D507C285D290D2AF75AA53806020FA
:100A90003817C2AFC292C286D291D29075D4DF7598
:100AA000D507D2AF75AA438046C2AFC290C286D2E4
:100AB00091D29275D47F75D507D2AF75AA63802F76
:100AC000203817C2AFC290D29275D47F75D507C2B5
:100AD00086D291D2AF75AA638015C2AFC292D2906E
:100AE00075D4DF75D507C286D291D2AF75AA43C23D
:100AF0002222203E707A147BC88019203E717A1021
:100B00007B8C8010203E727A0D7BB48007203E7370
:100B10007A0B7BC8303F01227902E4C291D5E0FD17
:100B2000D286D291D5E0FDC291D5E0FDC286D291A8
:100B3000D5E0FDE920E004D285D29030E004D287F0
:100B4000D292E562D5E0FDE920E002C29030E002F9
:100B5000C2927496D5E0FDD9C1EAF8D5E0FDD8FB84
:100B6000DBB6C291227A507C507B057D1480407A9E
:100B7000327C287B147D2880367A3C7CB47B047DD3
:100B80000A802C7A967C327B027D1E80227A647CDD
:100B9000287B057D0F80187888E614D23C7AC87CC3
:100BA000327B037D3C80087AC87C507B057D4630D3
:100BB0003F0122EBF8303C15203D091CECB401123A
:100BC000B23D800E0CECB43209B23D80051CEC70D5
:100BD000010CECC0E0E8C0E0EDC0E0303B13C286A1
:100BE000D291D285D290E562D5E0FDC290C29180CB
:100BF00011C286D291D287D292E562D5E0FDC2922F
:100C0000C291B23BD0E0FDFED0E0F8D0E0FCF97438
:100C100064D5E0FDDEF9744BD5E0FDD9F9203BB297
:100C2000D8B0DA0122DA8C22C290C291C292C2906C
:100C3000C291C29275D4FF75D50722788076FF08DD
:100C400076FF0876FF0876FF0876FF0876FF0876BD
:100C5000050876FF087601788C76010876FF08761D
:100C6000FF0876FF0876FF0876FF0876030876FF10
:100C70000876FF0876FF08760A0876F008765B08A3
:100C800076500876030876FF0876030876FF087624
:100C90007D0876FF0876060876010876FF0876FF5D
:100CA00008760108760122FA75F00CA4ABF0EAC3CD
:100CB00033F8740133F9E8C333F8E933F9E8C32BA7
:100CC000F8E93400F9227888E6C39403D23A500256
:100CD000C23AC238E630E102D238A2389239788678
:100CE000E6149000809378A6F67886E6F53FC394E4
:100CF000025003753F02789CE6753EFFB40203750F
:100D00003EA0B40303753E8278A0E6F8600674281E
:100D10002409D8FCF5677896E691A788318932785E
:100D20009EE691A7883389347897E691A78835891C
:100D3000369128223036117A007B007CFF7D007EC0
:100D400000B19A8B5F8A5E22303A227896E6FA7B6F
:100D500000789EE6FC7D00C3EA33FAEB33FBC3EC7C
:100D600033FCED33FD7E0AB19A8B618A6078963050
:100D70003A02789EE6FA7B007897E6FC7D007E00DA
:100D8000303A10C3EA33FAEB33FBC3EC33FCED33F8
:100D9000FD7E0AB19A8B5F8A5E22C3EC9EFCED94C5
:100DA00000FDC3EC9AFCED9BFDC3EC9423ED940095
:100DB00050047C237D00C3EC94FFED940140047C3F
:100DC000FF7D017BFF0B7A000AEA7009C3EC33FC5C
:100DD000ED33FDA1C5EC8AF0A4AEF0ED8AF0A42EAF
:100DE000947C40E4EAF460DD22D236B13412052F5F
:100DF00012052F7A007B007C10120527E5522AFA93
:100E000074003BFBDCF37C04C3EB13FBEA13FADC5A
:100E1000F7FFEB60027FFFC236B1342278A5E6F916
:100E20005403D2837002C283E9540CD2847002C28C
:100E300084E954307000E954C07000227ADC7B36BB
:100E40007C02E10C7A327B367C02E10C7A667B5ABA
:100E50007C02E10C7A3A7B1D7C02E10C7A3E7B0439
:100E60007C02E10C7AA47B067C03E10C7A467B557C
:100E70007C03E10C7ADE7B6E7C02E10C7A847B2BB6
:100E80007C03E10C7A847B1D7C02E10C7A587BACFC
:100E90007C02E10C7A587B147C0380707A627B6E52
:100EA0007C0280687A2D7B6E7C0280607A5E7B9605
:100EB0007C0280587A417BB67C0180507A467B7DEB
:100EC0007C0380487A457B9B7C0180407A497B8CFF
:100ED0007C0180387A927B8C7C0180307A4E7B79E1
:100EE0007C0180287A527B677C0180207AA47B6712
:100EF0007C0180187A577B567C0180107AC47B373E
:100F00007C0180087A587B377C018000ECC0E0C20D
:100F100086D291D285D290E562D5E0FDC290C29191
:100F2000D0E0FCF9EBFD7817E4D5E0FDD8FAD9F66E
:100F3000741ED5E0FDDDF9DAD322C28312052FD26B
:100F400084740220310E0420320A04203306042067
:100F500034027401C0E051F2120533D0E0D5E0F460
:100F60002230341EE56CC3941E400C941E40028057
:100F70001171047104800B51FB51FB120533710494
:100F80007104120533710D710D22756500756600CF
:100F90007597DE7597AD7581C043FF8075EF067557
:100FA000A900912875800275F1FF75A4F87580027B
:100FB00075D4FF75900075F20775A50775900075DB
:100FC000D50775A60175E34075E2029128E4F8F6AD
:100FD000D8FD913B1215B678988662753001C2AF84
:100FE000120537D11C120537120537E5621470055A
:100FF000D23F02118CD283C23F94591460411460D5
:101000000C14606A14600302117D02114B12052F4B
:10101000120EE412052F120EE412053312052F12E0
:101020000EE4120533120EB412052F120EE412054F
:1010300033120F04120537120537120EA4218C1239
:101040000537120E74120533120E74120533120E88
:1010500074120533120E7C120E84120E74120533B4
:10106000120E7C120E84120E74120E74218C120554
:1010700037120EFC12052B120EB4120EB412052BF1
:10108000120EDC12052B120EF412052B120EFC129E
:10109000052B120EB4120EB412052B120EDC120523
:1010A0002B120EF412052B120EFC12052B120EB48D
:1010B000120EB412052B120EDC12052B120EF412B6
:1010C000052B120EFC12052B120EB4120EB41205D3
:1010D0002B120EDC12052B120EF412052B120ED45D
:1010E00012052B120E9C12052B120E5412052B12F8
:1010F0000EB412052B120ED412052B120E9C1205E3
:101100002B120E5412052B120EB412052B120ED4F4
:1011100012052B120E9C12052B120E5412052B12C7
:101120000EB412052B120ED412052B120E9C1205B2
:101130002B120E5412052B120EB412052B120EF4A4
:10114000120EF412052B120E8C8041120EE4120EB8
:10115000CC120EAC120E4C120EC4120E5C120E6C9F
:10116000120E94120E5C120E44120EBC120E941249
:101170000E44120E44120E44120E44800F120AF254
:1011800012052F120AFB12052F120B0412052FC293
:10119000AF75650075660078FA79FA308107D9FB7A
:1011A000D8F7021C00120CC6120D34789886621211
:1011B0000C2875E401758811758E0475890975C848
:1011C0000475910475D84075D90875F782759E002D
:1011D00075960275DA4A75DB0075A82175E690757B
:1011E000B80175BF8075AB0075D10C75BC5975BB66
:1011F0001075E88075B201120523D2AF753C00C2AC
:1012000030120537C231C232C233C23475220012E5
:101210000533C3E522940A500241D1D23175220030
:10122000120533C3E522940A500241D1C231D232B1
:10123000752200120533C3E522940A500241D1758C
:10124000E491758851758E017589AA758C00758D2C
:1012500000C2A9D2ABD2AA7569C0756814756C506A
:10126000C232D23475220A120533756810C3E522E2
:10127000940A405D758E0C756980756828756C28B8
:1012800075220A120533756820C3E522940A40418D
:10129000758E0C7569C0756816756C1775220A1203
:1012A0000533756817C3E522940A402575E4017576
:1012B0008811758E04758909D2A9C2ABC2AAC2343D
:1012C000D233752200120533C3E522940A4002216D
:1012D0008F12052720300302118FC2AF120F3AD2AE
:1012E000AF120537203403303A0302139312052757
:1012F000788CE6C3940150026193E530C3940150A9
:101300000261937565A57566F17F02D236120D34C0
:10131000120533C2AFC236120D34C3E552947FD2E8
:10132000AF4070120523C2AF120B0DD2AFDFDC123B
:101330000DE9C3EF7897F6120537D1A37F0AD236AD
:10134000120D34120533C2AFC236120D34C3E5524A
:10135000947FD2AF50E6120523C2AF120AF21205F3
:101360002B120AF2D2AFDFD6120DE9EF24037896E2
:10137000F6F87997E7C394234003985006E82423AE
:101380007897F6120537B1FDD1D2120533120D341C
:1013900002118F756500756600120533C3E552941E
:1013A00001400241E4C2AFC284120533120F61D280
:1013B000AF120537753000E4F537F5380537E537F6
:1013C000F4703F0538789AE6781914601278321470
:1013D000600D787D14600878FA146003753800C3D6
:1013E000E53898401D120C28120523153875370072
:1013F00078998662C2AF120B8DD2AF78988662124E
:10140000053312052BE5237002218FC3E5529401A9
:1014100040AA120533E523700302118FC2AF120CEC
:1014200028E4D2AFE4F55CF524F525F53D755C08BC
:1014300012052312058C30EDFDA8BDA9BEE970018F
:10144000F8885D120590755C08C2AF7559FF1205EA
:10145000F7855B59855B5AD2AF303A07C2383035D1
:1014600002D238D228753900120A8F120AC0120629
:101470000F12061612060F12061612060F12088D0C
:1014800012097E1209CB12061612087D202C0312B7
:101490000546302C0312057612097E1209FC12064D
:1014A0001612088D12097E120A2D12061612087DD8
:1014B00012097E120A5E12061612088D12097E1299
:1014C0000A8F12061612058C12087D12097E120A66
:1014D000C0120590120616302827855B5979187AB4
:1014E0000CC3E53999400EC228D2298A3B855B5945
:1014F000855B5A800CC3E5529401400302147DA120
:101500008430291F202B1CE53B147006C229D22AE7
:10151000817DF53BC3E5529401400302147D203ADE
:10152000028061753C0078FA79A4E760027803C311
:10153000E55398504FE523604B303A17203805208B
:101540003507800F303502800A202B07D22B855BB0
:101550005981AD78F0302B05855B597820C3E5487B
:1015600098500302147D302B1BC22BC23830350239
:10157000D238D229753B12855B59817D053CE552F5
:101580006002A187753C00C2AF120C28752400755B
:101590002500D2AF120533120C2878A4E6600CC2E5
:1015A00085D290C286D291C287D292C3E53C940480
:1015B0004002218F61B7901A0D7820D136E520B412
:1015C000550AA3D136E520B4AA0280137565A57526
:1015D00066F1120C3BB1FD756500756600801D90CB
:1015E0001A0378807B0AD136A308DBFA901A0F78A9
:1015F0008C7B1AD136A308DBFA901A2922C2AFD10C
:1016000079D156901A007410D13BA37444D13BA3F6
:101610007421D13B901A0378807B0AD13AA308DB6E
:10162000FA901A0F788C7B1AD13AA308DBFAD18C86
:10163000D16A901A2922E493F622E6438F01538F50
:10164000FDFFC3E583941C400122EF8565B78566E5
:10165000B7F0538FFE22438F02438F018565B78514
:1016600066B7901A0DF0538FFC22901A0D7455D165
:101670003B901A0E74AAD13B227A3079D078209010
:101680001A40D136E520F709A3DAF7227A3079D06B
:10169000901A40E7D13B09A3DAF9227C05120537FD
:1016A000DCFB22C2AF120AF2120AFB120B04120B6D
:1016B0000D12052B120AF2120AFB120B04120B0D6B
:1016C00012052B120AF2120AFB120B04120B0DD296
:1016D000AF22C2AF120B0D120B04120AFB120AF258
:1016E00012052B120B0D120B04120AFB120AF21236
:1016F000052B120B0D120B04120AFB120AF2D2AFC9
:0117000022C6
:1019FD00020F8A104421FFFFFFFFFFFF05FF01FFCC
:101A0D0055AA01FFFFFFFFFF03FFFFFF0AF05B5029
:0D1A1D0003FF03FF7DFF0601FFFF0101FF36
:101A400023515F4C5F303023202020202020202095
:101A500023424C48454C492445464D3842313023B9
:101A600031362E36385F546F6E657320202020206B
:101C0000C2AFC2D37597DE7597AD7581C075A90057
:101C100043FF80752438752503B1DB7529A5752A26
:101C2000F143F10253A4FDD28175D4FF75E3407DE9
:101C3000FA780379E67C10752200752300901DE880
:101C40007B06752498752501308102814820810822
:101C5000D8FBD9F9DCF781BA308108D8FBD9F9DC97
:101C6000F781BAB19BE493A3C39A6004DDC381BA40
:101C7000DBDBB18D600281317B08E493FAA3B16EA6
:101C8000DBF87A30B16E752200752300B18DEAFC65
:101C9000EBFDC3ED94FE400EB18D8A278B28ED300D
:101CA000E0048A828B83B18D7AC270D8C3ED94FE32
:101CB000601950CEBD0029EC600F7520007521FF22
:101CC000752900752A000200008100A827A92808AC
:101CD00009D804D90281DDB191EAF281D10D81A642
:101CE000C3ED94035051EDA2E092007AC5C3E582A2
:101CF0009400E583941C508C200010438F02438F86
:101D0000018529B7852AB7F0300027A827A9280818
:101D100009438F01538FFDD804D902A132C3E58353
:101D2000941C4003A3A117E28529B7852AB7F0A325
:101D3000A117538FFC81827AC1BD030CE493A3FAEF
:101D4000B152DCF8B14A81828184AA22AB23B16E00
:101D5000EBFAEA6222752608C3E52313F523E52290
:101D600013F52250066323A0632201D526EAB1DBD6
:101D7000B1DB75260AEAF4200102D281300102C2E9
:101D800081B1DBC3134002C201D526EB22B191EA37
:101D9000FB208102A191308102A196752608AE2414
:101DA000AF25C3EF13FFEE13FEB1DFB1DBC3EA13C0
:101DB0003081024480FA30E703632201C3E5231334
:101DC000F523E52213F52250066323A0632201D5F3
:101DD00026D9E52265236523F52222AE24AF250E00
:101DE0000FDEFEDFFCD20122424C48656C693437BD
:061DF0003164E8B10601B8
:00000001FF
