:020000040000FA
:060000000219FD0202F5E9
:030013000204E400
:03001B0002008D53
:03002B000202BA14
:03005B000204F3A9
:030073000202E2A4
:100080000406080C10182030406080A0C0C2AFC227
:10009000A853E6EFC28E85698BC0D0D2D3C0E0C032
:1000A000F0C2CAA8CCA9CDD2CAD2AF758A00C3E823
:1000B000956AF8E9956BF9C3E913F9E813F8E56473
:1000C0006007C3E913F9E813F8E97025E8956C4077
:1000D00020956C501CE582B410177C007B007A00E0
:1000E0007908900000A868E5647004C3E813F8017B
:1000F000FA900000D2A8D2AA619FE0FDC39CC398E9
:1001000040EF98EB33FB0582E0FCC39DC39840E1D0
:1001100098EB33FB0582E0FDC39CC39840D398EB7A
:1001200033FB0582E0FCC39DC39840C598EB33FBCD
:100130000582E0FDC39CC39840B798EB33FB058272
:10014000E0FCC39DC39840A998EB33FB0582E0FD1A
:10015000C39CC398409B98EB33FB0582E0FCC39D96
:10016000C398408D98EB33FB05822175900000D237
:10017000A8D2AA619FE0FDC39CC39840EF98EA33E0
:10018000FA0582E0FCC39DC39840E198EA33FA0582
:1001900082E0FDC39CC39840D398EA33FA0582E01D
:1001A000FCC39DC39840C598EA33FA0582E0FDC3BD
:1001B0009CC39840B798EA33FA0582E0FCC39DC31C
:1001C0009840A998EA33FA0582E0FDC39CC39840A1
:1001D0009B98EA33FA0582E0FCC39DC398408D9852
:1001E000EA33FA0582EBC46B6A54F0F9EAC454F0BE
:1001F000C3996009900000D2A8D2AA619FEBF4C411
:1002000054F0F9EAF4C4540E49FAEBF4C4540FFB69
:10021000C3EA9460FAEB9400FB50067B007A007905
:1002200000303A27C3EA94D0F8EB9407F9400BE882
:10023000FAE9FB203509D235413F303502C235207D
:100240003902B235C3EA33FAEB33FBEB2B3B3BF914
:10025000C3EB13FBEA13FAEA29FAEB3400FB30E3B1
:10026000047AFF7BFFE5255403601B202A18E55B19
:1002700033F9EB7007C3E99A4002E9FAE53CC4336D
:100280002AFAEB3400FBC3EA33C4540FF8EB33C44F
:1002900054F048F87005EA60027801C3EB13FBEAFA
:1002A00013FA900000D2A8D2AAE52260021522819A
:1002B00083900000D2A8D2AA619FC0D0C0E0C2CF74
:1002C0000541E52360021523C3E55260057553001F
:1002D00041DDE5532401F55350037553FFD0E0D0C1
:1002E000D032C2AF53E67F7592FA7593FFC22053A6
:1002F000917FD2AF32C0E0E58A30340885698BF057
:10030000A3D0E032D0E0C2AF53E6EFC0D0C0E0C02F
:10031000F0D2D3D2AF5388EFA88AA98C758A007522
:100320008C0043881030331FE8C4540FFAE9C454DA
:10033000F04AFAC3132AFAC3E833F8E933F9E82A92
:10034000FAE93403FB619030320FC3E833E933FA42
:10035000E82AFAE93400FB6190303115E875F0566F
:10036000A4AAF0E975F056A42AFAC5F03400FB619E
:1003700090E875F02BA4AAF0E975F02BA42AFAC531
:10038000F03400C313FBEA13FAC3EB13FBEA13FACE
:10039000C3EB94095009C3EA949AEB9403501605F1
:1003A00022E52270021522C3E5229432500281D741
:1003B00075520081DAE522600215223036067C0093
:1003C0007D0461CFAC31AD32303A04AC33AD34C3CF
:1003D000EA9CFAEB9DFB9208AE5EAF5F303A42506A
:1003E00007203509D23561ED303502C2353035048C
:1003F000AE60AF61203902B235C3EA33FAEB33FBAA
:10040000A208500AEAF42401FAEBF43400FBC3EA30
:100410009428FAEB9400FB501478007A007B00815A
:100420002DA208500878007A007B008183E52554CE
:10043000036019202A16E55BF9EB7007C3E99A40BF
:1004400002E9FAE53CC42AFAEB3400FBEA8EF0A498
:10045000F9AAF0EB8EF0A42AFAC5F03400FBC3EB46
:1004600013FDEA13F80FEF146004C3E833F8C3E98F
:1004700033EA33FAEB33FBDFEDEB30E20678FF7A59
:10048000FF7B038852D230E86003755300C3E559FF
:10049000FC955A4002AC5AC3EC95525008EC75F0EA
:1004A00004A4FAABF0EAF4F8EBF45403F9C3E894CB
:1004B00014FAE99400FB50047A007B0088548955B3
:1004C0008A568B5775230AD0F0D0E0D0D053F7DF8F
:1004D00043F74043E6103275230AD0F0D0E0D0D085
:1004E00043E61032C2AAD28EC2CA85CC6A85CD6BD1
:1004F000D2CA32C2AFC0D0C0E0D2D3A8F9E55830DA
:10050000E10AE5FA20E13520E032A114E5FA30E114
:100510002B20E028C3E55513F8E55413F5FB88FCC0
:10052000C3E55713F8E55613F5E988EA855558539E
:10053000F7BFD2A8303402D2AA53E6EF53F7DFD088
:10054000E0D0D0D2AF327901801479038010790ADB
:10055000800C791E80087964800479C8800078173F
:10056000E4D5E0FDD8FAD9F62278FF20282879A131
:10057000E76023E548601F74FF8548F084853FF0FD
:1005800030290375F005A4F8C5F0600278FFC3E8D0
:10059000955B5002A85B885A22C3E54794E4E5487E
:1005A0009400E55A500314A1AA046002F55A22757A
:1005B000E89022055CC3E55C9408405330EDF4A854
:1005C000BDA9BE755C00E9FA79A0E76041EA700652
:1005D000E55D6018800CC3E8955D600EE55D500533
:1005E000600A1480070460FA8002E55DF55DC3953A
:1005F00067401B7559C0C394044013755980C39458
:1006000004400B755940C39404400375590022E51A
:10061000592410500274FFF55922743279A687F0DC
:10062000A4C5F0A2F733F8C3E895594002A8598849
:100630005B227547007548F022C2AFC2CAA8CCA998
:10064000CDAA4130CF010AD2CAD2AFAB42AC438867
:10065000428943C3E89BF8E99C202808F9302C0222
:10066000E149C1A2AD448A44F9EA9DFA600678FFE7
:1006700079FFC187AE45AF468B458C46A842A9435A
:10068000C3E89EF8E99FF9C3E54813FBE54713FA71
:10069000E82AF547E93BF54850067547FF7548FFDE
:1006A000C1EFAA47AB48AC47AD487E047F02C3EB1D
:1006B0009404400D1E1FC3EB940840052029021E20
:1006C0001FC3ED13FDEC13FCDEF7C3EA9CFAEB9DB0
:1006D000FBEF6009C3E913F9E813F8DFF7EA28FA3A
:1006E000EB39FB8A478B4850067BFF8B478B48C30F
:1006F000EB94025002D22C3028047F03E11A789246
:10070000E6FFC3E53D948240110FC3E53D94A04050
:10071000010FC3EF940640027F057E02E548C454F2
:100720000FF9E548C454F0F8E547C4540F28F8C35E
:10073000E89EFAE99400FB4009C3EA9401EB9400B7
:1007400050047A01E4FB020795AA47AB48EBC4FECC
:10075000EAC4540F4EFCC3EA9CFAEB9400FBC3E8D6
:1007600013C313F8EA28FAEB3400FB8A478B48C31B
:10077000EB94024002C22C7802EBC4FE7B00EAC478
:10078000540F4EFAC3EA98FA4005C3940150027A16
:10079000017892E6FF302002E195854E92854F93D5
:1007A000D22043E680C3E49AF8E49BF9302C03029C
:1007B0000823E8FAE9FBD3E913FDE813FC884E8926
:1007C0004FC3EF94036038EF20E00CE82CF8E93DCC
:1007D000F9ECFAEDFB8013E828F8E939F9C3E824CD
:1007E00001F8E93400F97AFF7BFFC3EF9403400F6F
:1007F0008A508B51884A894B8C4C8D4D0208588801
:100800005089518A4A8B4B8C4C8D4D302812755033
:10081000F07551FF754CF0754DFF754EF0754FFF3B
:10082000020858E8FAD3E813FC884EC3EF9403603B
:1008300021EF20E007E82CF8ECFA0143E828240136
:10084000F87AFFC3EF940340098A50884A8C4C021F
:10085000085888508A4A8C4C3020020158753A0258
:10086000D22043E680E52554036034A847A948C355
:10087000E913F9E813F8C3E913F9E813F830280489
:10088000E92440F9C2AF53E67F759100C3E498F5BF
:1008900094E499F595759104D22043E680D2AF2275
:1008A000D221754900752000302B0375204001BE10
:1008B000D221754900752040302B03752000780146
:1008C0007901202C20E52554036002C2217914E52A
:1008D00048C313700104F8C39414400278143028FC
:1008E00004781B791B202010E549600C302803D5C3
:1008F0003A04D223216511600549E5BF5440B52073
:1009000002214F30280908C3E89940011801E52069
:10091000210A08C3E899400201BE01E5C22153E65D
:100920007F759100302C117594007595F8759104C0
:10093000D22043E6800208BEE5487EFFC33340056F
:10094000C3334001FEC3E49E759400F595212DC389
:10095000E5399401500201BE30210201BED80221C6
:100960006301E5C223C2AF53E67F759100855094C1
:10097000855195759104854A92854B93D22043E623
:1009800080D2AFE525540360072029020539801085
:1009900030230D202B0A20210715811581021558BF
:1009A0002278003021027801E53D75F007A4F9E5D1
:1009B000F028F5F0E9A2F013A2F113A2F213F53D2D
:1009C000C394785003753D78C3E53D953E400ED203
:1009D00022C285C286C28775D4FF75D50730200232
:1009E00021DD854C92854D93D22043E6802220382C
:1009F00013C2AFC291D29075D47F75D503D2AF75B3
:100A0000AA5341E2C2AFC291D29275D4DF75D50626
:100A1000D2AF75AA5341E2203813C2AFC28775D452
:100A2000BF75D505D290D2AF75AA4341E2C2AFC21D
:100A30008575D4BF75D505D292D2AF75AA6341E250
:100A4000203813C2AFC290D29275D4BF75D505D2EB
:100A5000AF75AA6341E2C2AFC292D29075D4BF759E
:100A6000D505D2AF75AA438079203813C2AFC286AC
:100A700075D4DF75D506D292D2AF75AA538063C202
:100A8000AFC28675D47F75D503D290D2AF75AA5305
:100A90008050203813C2AFC292D29175D4DF75D581
:100AA00006D2AF75AA43803AC2AFC290D29175D434
:100AB0007F75D503D2AF75AA638027203813C2AFE4
:100AC000C28575D47F75D503D291D2AF75AA6380E4
:100AD00011C2AFC28775D4DF75D506D291D2AF757A
:100AE000AA43C22222203E687A147BC88019203E85
:100AF000697A107B8C8010203E6A7A0D7BB4800767
:100B0000203E6B7A0B7BC8303F01227902E4C29110
:100B1000D5E0FDD286D5E0FDC286D5E0FDD291D5E7
:100B2000E0FDE920E002D28530E002D287E562D51F
:100B3000E0FDE920E002C28530E002C2877496D56C
:100B4000E0FDD9C9EAF8D5E0FDD8FBDBBEC29122B1
:100B50007A507C507B057D1480407A327C287B144F
:100B60007D2880367A3C7CB47B047D0A802C7A9682
:100B70007C327B027D1E80227A647C287B057D0F7F
:100B800080187888E614D23C7AC87C327B037D3C9E
:100B900080087AC87C507B057D46303F0122EBF807
:100BA000303C15203D091CECB40112B23D800E0C06
:100BB000ECB43209B23D80051CEC70010CECC0E0D5
:100BC000E8C0E0EDC0E0303B0FD291D285E562D5C0
:100BD000E0FDC285C291800DD291D287E562D5E059
:100BE000FDC287C291B23BD0E0FDFED0E0F8D0E07C
:100BF000FCF97464D5E0FDDEF9744BD5E0FDD9F95C
:100C0000203BBAD8B8DA0122DA9422C285C286C261
:100C100087C290C291C29275D4FF75D507227880A1
:100C200076FF0876FF0876FF0876FF0876FF0876DD
:100C3000FF0876050876FF087601788C760108763D
:100C4000FF0876FF0876FF0876FF0876FF08760330
:100C50000876FF0876FF0876FF08760A0876F0081F
:100C6000765B0876500876030876FF0876030876E8
:100C7000FF08767D0876FF0876060876010876FF7D
:100C80000876FF08760108760122FA75F00CA4AB0D
:100C9000F0EAC333F8740133F9E8C333F8E933F900
:100CA000E8C32BF8E93400F9227888E6C39403D22C
:100CB0003A5002C23AC238E630E102D238A2389243
:100CC000397886E6149000809378A6F67886E6F563
:100CD0003FC394025003753F02789CE6753EFFB413
:100CE0000203753EA0B40303753E8278A0E6F86067
:100CF0000674282409D8FCF5677896E6918A88312D
:100D00008932789EE6918A883389347897E6918A89
:100D100088358936910B223036117A007B007CFFB2
:100D20007D007E00B17D8B5F8A5E22303A2278960C
:100D3000E6FA7B00789EE6FC7D00C3EA33FAEB33EB
:100D4000FBC3EC33FCED33FD7E0AB17D8B618A6021
:100D50007896303A02789EE6FA7B007897E6FC7D3A
:100D6000007E00303A10C3EA33FAEB33FBC3EC33B6
:100D7000FCED33FD7E0AB17D8B5F8A5E22C3EC9E63
:100D8000FCED9400FDC3EC9AFCED9BFDC3EC9423B9
:100D9000ED940050047C237D00C3EC94FFED94019E
:100DA00040047CFF7D017BFF0B7A000AEA7009C3D7
:100DB000EC33FCED33FDA1A8EC8AF0A4AEF0ED8A93
:100DC000F0A42E947C40E4EAF460DD22D236B11720
:100DD0001205521205527A007B007C1012054AE57A
:100DE000522AFA74003BFBDCF37C04C3EB13FBEAEE
:100DF00013FADCF7FFEB60027FFFC236B1172278EF
:100E0000A5E6F95403D2837002C283E9540CD2845C
:100E10007002C284E954307000E954C07000227A34
:100E2000DC7B367C02C1EF7A327B367C02C1EF7A02
:100E3000667B5A7C02C1EF7A3A7B1D7C02C1EF7A55
:100E40003E7B047C02C1EF7AA47B067C03C1EF7A6F
:100E5000467B557C03C1EF7ADE7B6E7C02C1EF7A64
:100E6000847B2B7C03C1EF7A847B1D7C02C1EF7AEB
:100E7000587BAC7C02C1EF7A587B147C0380707A7B
:100E8000627B6E7C0280687A2D7B6E7C0280607A49
:100E90005E7B967C0280587A417BB67C0180507ADA
:100EA000467B7D7C0380487A457B9B7C0180407A31
:100EB000497B8C7C0180387A927B8C7C0180307AF3
:100EC0004E7B797C0180287A527B677C0180207A76
:100ED000A47B677C0180187A577B567C0180107A4E
:100EE000C47B377C0180087A587B377C018000EC1A
:100EF000C0E0D291D285E562D5E0FDC285C291D035
:100F0000E0FCF9EBFD7817E4D5E0FDD8FAD9F674EA
:100F10001ED5E0FDDDF9DAD722C283120552D28454
:100F2000740220310E0420320A04203306042034D7
:100F3000027401C0E051E5120556D0E0D5E0F4227C
:100F400030341EE56CC3941E400C941E4002801188
:100F500051F751F7800B51EE51EE12055651F751F2
:100F6000F7120556710071002275650075660075EF
:100F700097DE7597AD7581C043FF8075EF0675A943
:100F800000910B75800275F1FF75A4F875800275EC
:100F9000D4FF75900075F20775A50775900075D59B
:100FA0000775A60175E34075E202910BE4F8F6D8E7
:100FB000FD911E12158C78988662753001C2AF12B1
:100FC000055AB1FF12055A12055AE562147005D28E
:100FD0003F021168D283C23F945914603E14600CE2
:100FE000146067146003021159021127120552D1CF
:100FF000C7120552D1C7120556120552D1C71205A4
:1010000056120E97120552120EC7120556120EE70F
:1010100012055A12055A120E87216812055A120E2D
:1010200057120556120E57120556120E5712055634
:10103000120E5F120E67120E57120556120E5F1235
:101040000E67120E57120E57216812055A120EDF44
:1010500012054E120E97120E9712054E120EBF1267
:10106000054E120ED712054E120EDF12054E120E4D
:1010700097120E9712054E120EBF12054E120ED782
:1010800012054E120EDF12054E120E97120E971217
:10109000054E120EBF12054E120ED712054E120E3D
:1010A000DF12054E120E97120E9712054E120EBF4A
:1010B00012054E120ED712054E120EB712054E1221
:1010C0000E7F12054E120E3712054E120E971205A4
:1010D0004E120EB712054E120E7F12054E120E372B
:1010E00012054E120E9712054E120EB712054E1231
:1010F0000E7F12054E120E3712054E120E97120574
:101100004E120EB712054E120E7F12054E120E37FA
:1011100012054E120E9712054E120ED7120ED7124E
:10112000054E120E6F8041120EC7120EAF120E8FB7
:10113000120E2F120EA7120E3F120E4F120E771222
:101140000E3F120E27120E9F120E77120E27120E4E
:1011500027120E27120E27800F120AE512055212CF
:101160000AEE120552120AF7120552C2AF75650057
:1011700075660078FA79FA308107D9FBD8F7021C36
:1011800000120CA9120D1778988662120C0B75E4E8
:1011900001758811758E0475890975C804759104E7
:1011A00075D84075D90875F781759E0375960275D7
:1011B000DA4275DB4275A82175E69075B80175BFF6
:1011C0008075AB0075D10C75BC5975BB1075E88086
:1011D00075B201120546D2AF753C00C23012055AF5
:1011E000C231C232C233C234752200120556C3E581
:1011F00022940A500241ADD231752200120556C325
:10120000E522940A500241ADC231D2327522001259
:101210000556C3E522940A500241AD75E4917588E4
:1012200051758E017589AA758C00758D00C2A9D281
:10123000ABD2AA7569C0756814756C50C232D234CD
:1012400075220A120556756810C3E522940A405D9E
:10125000758E0C756980756828756C2875220A1260
:101260000556756820C3E522940A4041758E0C75B9
:1012700069C0756816756C1775220A12055675686F
:1012800017C3E522940A402575E401758811758E0F
:1012900004758909D2A9C2ABC2AAC234D23375225D
:1012A00000120556C3E522940A4002216B12054A3A
:1012B00020300302116BC2AF120F19D2AF12055AC0
:1012C000203403303A0302136F12054A788CE6C3C8
:1012D00094015002616FE530C394015002616F7553
:1012E00065A57566F17F02D236120D17120556C23A
:1012F000AFC236120D17C3E552947FD2AF407012C1
:101300000546C2AF120B00D2AFDFDC120DCCC3EF2B
:101310007897F612055AD1797F0AD236120D171234
:101320000556C2AFC236120D17C3E552947FD2AF35
:1013300050E6120546C2AF120AE512054E120AE542
:10134000D2AFDFD6120DCCEF24037896F6F879975A
:10135000E7C394234003985006E824237897F612B5
:10136000055AB1D3D1A8120556120D1702116B758B
:101370006500756600120556C3E5529401400241AE
:10138000C0C2AFC284120556120F40D2AF12055A26
:10139000753000E4F537F5380537E537F4703F056B
:1013A00038789AE67819146012783214600D787DD6
:1013B00014600878FA146003753800C3E538984063
:1013C0001D120C0B12054615387537007899866288
:1013D000C2AF120B78D2AF7898866212055612050A
:1013E0004EE5237002216BC3E552940140AA120519
:1013F00056E523700302116BC2AF120C0BE4D2AF9F
:10140000E4F55CF524F525F53D755C0812054612FA
:1014100005AF30EDFDA8BDA9BEE97001F8885D12E9
:1014200005B3755C08C2AF7559FF12061A855B5982
:10143000855B5AD2AF303A07C238303502D238D243
:1014400028753900120A92120ABB120632120639A6
:101450001206321206391206321208B01209A1120F
:1014600009EE1206391208A0202C03120569302C4F
:10147000031205991209A1120A171206391208B0AF
:101480001209A1120A401206391208A01209A1126B
:101490000A691206391208B01209A1120A9212063C
:1014A000391205AF1208A01209A1120ABB1205B326
:1014B000120639302827855B5979187A0CC3E5392B
:1014C00099400EC228D2298A3B855B59855B5A8098
:1014D0000CC3E55294014003021459A16030291F46
:1014E000202B1CE53B147006C229D22A8159F53BFA
:1014F000C3E55294014003021459203A02806175F9
:101500003C0078FA79A4E760027803C3E553985069
:101510004FE523604B303A17203805203507800F00
:10152000303502800A202B07D22B855B59818978C0
:10153000F0302B05855B597820C3E54898500302AD
:101540001459302B1BC22BC238303502D238D22965
:10155000753B12855B598159053CE5526002A163D8
:10156000753C00C2AF120C0B752400752500D2AF7C
:10157000120556120C0B78A4E66006D290D291D2D6
:1015800092C3E53C94044002216B6193901A0D785C
:1015900020D10CE520B4550AA3D10CE520B4AA0251
:1015A00080137565A57566F1120C1EB1D3756500C3
:1015B000756600801D901A0378807B0AD10CA30801
:1015C000DBFA901A0F788C7B1AD10CA308DBFA9007
:1015D0001A2922C2AFD14FD12C901A007410D11108
:1015E000A37444D111A37421D111901A0378807B84
:1015F0000AD110A308DBFA901A0F788C7B1AD1104D
:10160000A308DBFAD162D140901A2922E493F62292
:10161000E6438F01538FFDFFC3E583941C400122F5
:10162000EF8565B78566B7F0538FFE22438F02437F
:101630008F018565B78566B7901A0DF0538FFC2230
:10164000901A0D7455D111901A0E74AAD111227AE4
:101650003079D07820901A40D10CE520F709A3DA30
:10166000F7227A3079D0901A40E7D11109A3DAF93C
:10167000227C0512055ADCFB22C2AF120AE5120ACF
:10168000EE120AF7120B0012054E120AE5120AEECC
:10169000120AF7120B0012054E120AE5120AEE1298
:1016A0000AF7120B00D2AF22C2AF120B00120AF7D8
:1016B000120AEE120AE512054E120B00120AF71278
:1016C0000AEE120AE512054E120B00120AF7120A70
:0716D000EE120AE5D2AF2281
:1019FD00020F69104421FFFFFFFFFFFF05FF01FFED
:101A0D0055AA01FFFFFFFFFF03FFFFFF0AF05B5029
:0D1A1D0003FF03FF7DFF0601FFFF0101FF36
:101A400023515F4C5F323023202020202020202093
:101A500023424C48454C492445464D3842313023B9
:101A600031362E36385F546F6E657320202020206B
:101C0000C2AFC2D37597DE7597AD7581C075A90057
:101C100043FF80752438752503B1DB7529A5752A26
:101C2000F143F10253A4FDD28175D4FF75E3407DE9
:101C3000FA780379E67C10752200752300901DE880
:101C40007B06752498752501308102814820810822
:101C5000D8FBD9F9DCF781BA308108D8FBD9F9DC97
:101C6000F781BAB19BE493A3C39A6004DDC381BA40
:101C7000DBDBB18D600281317B08E493FAA3B16EA6
:101C8000DBF87A30B16E752200752300B18DEAFC65
:101C9000EBFDC3ED94FE400EB18D8A278B28ED300D
:101CA000E0048A828B83B18D7AC270D8C3ED94FE32
:101CB000601950CEBD0029EC600F7520007521FF22
:101CC000752900752A000200008100A827A92808AC
:101CD00009D804D90281DDB191EAF281D10D81A642
:101CE000C3ED94035051EDA2E092007AC5C3E582A2
:101CF0009400E583941C508C200010438F02438F86
:101D0000018529B7852AB7F0300027A827A9280818
:101D100009438F01538FFDD804D902A132C3E58353
:101D2000941C4003A3A117E28529B7852AB7F0A325
:101D3000A117538FFC81827AC1BD030CE493A3FAEF
:101D4000B152DCF8B14A81828184AA22AB23B16E00
:101D5000EBFAEA6222752608C3E52313F523E52290
:101D600013F52250066323A0632201D526EAB1DBD6
:101D7000B1DB75260AEAF4200102D281300102C2E9
:101D800081B1DBC3134002C201D526EB22B191EA37
:101D9000FB208102A191308102A196752608AE2414
:101DA000AF25C3EF13FFEE13FEB1DFB1DBC3EA13C0
:101DB0003081024480FA30E703632201C3E5231334
:101DC000F523E52213F52250066323A0632201D5F3
:101DD00026D9E52265236523F52222AE24AF250E00
:101DE0000FDEFEDFFCD20122424C48656C693437BD
:061DF0003164E8B10601B8
:00000001FF
